{
	"contract/for遍历数组.sol": {
		"ForExample": {
			"abi": [
				{
					"inputs": [],
					"name": "forDemo",
					"outputs": [
						{
							"internalType": "uint256[]",
							"name": "",
							"type": "uint256[]"
						}
					],
					"stateMutability": "view",
					"type": "function"
				}
			],
			"devdoc": {
				"kind": "dev",
				"methods": {},
				"version": 1
			},
			"evm": {
				"assembly": "    /* \"contract/for\\xe9\\x81\\x8d\\xe5\\x8e\\x86\\xe6\\x95\\xb0\\xe7\\xbb\\x84.sol\":57:729  contract ForExample {... */\n  mstore(0x40, 0x80)\n    /* \"contract/for\\xe9\\x81\\x8d\\xe5\\x8e\\x86\\xe6\\x95\\xb0\\xe7\\xbb\\x84.sol\":143:172  uint256[] unms = [1, 2, 3, 4] */\n  mload(0x40)\n  dup1\n  0x80\n  add\n  0x40\n  mstore\n  dup1\n    /* \"contract/for\\xe9\\x81\\x8d\\xe5\\x8e\\x86\\xe6\\x95\\xb0\\xe7\\xbb\\x84.sol\":161:162  1 */\n  0x01\n    /* \"contract/for\\xe9\\x81\\x8d\\xe5\\x8e\\x86\\xe6\\x95\\xb0\\xe7\\xbb\\x84.sol\":143:172  uint256[] unms = [1, 2, 3, 4] */\n  0xff\n  and\n  dup2\n  mstore\n  0x20\n  add\n    /* \"contract/for\\xe9\\x81\\x8d\\xe5\\x8e\\x86\\xe6\\x95\\xb0\\xe7\\xbb\\x84.sol\":164:165  2 */\n  0x02\n    /* \"contract/for\\xe9\\x81\\x8d\\xe5\\x8e\\x86\\xe6\\x95\\xb0\\xe7\\xbb\\x84.sol\":143:172  uint256[] unms = [1, 2, 3, 4] */\n  0xff\n  and\n  dup2\n  mstore\n  0x20\n  add\n    /* \"contract/for\\xe9\\x81\\x8d\\xe5\\x8e\\x86\\xe6\\x95\\xb0\\xe7\\xbb\\x84.sol\":167:168  3 */\n  0x03\n    /* \"contract/for\\xe9\\x81\\x8d\\xe5\\x8e\\x86\\xe6\\x95\\xb0\\xe7\\xbb\\x84.sol\":143:172  uint256[] unms = [1, 2, 3, 4] */\n  0xff\n  and\n  dup2\n  mstore\n  0x20\n  add\n    /* \"contract/for\\xe9\\x81\\x8d\\xe5\\x8e\\x86\\xe6\\x95\\xb0\\xe7\\xbb\\x84.sol\":170:171  4 */\n  0x04\n    /* \"contract/for\\xe9\\x81\\x8d\\xe5\\x8e\\x86\\xe6\\x95\\xb0\\xe7\\xbb\\x84.sol\":143:172  uint256[] unms = [1, 2, 3, 4] */\n  0xff\n  and\n  dup2\n  mstore\n  pop\n  0x00\n  swap1\n  0x04\n  tag_1\n  swap3\n  swap2\n  swap1\n  tag_2\n  jump\t// in\ntag_1:\n  pop\n    /* \"contract/for\\xe9\\x81\\x8d\\xe5\\x8e\\x86\\xe6\\x95\\xb0\\xe7\\xbb\\x84.sol\":57:729  contract ForExample {... */\n  callvalue\n  dup1\n  iszero\n  tag_3\n  jumpi\n  0x00\n  dup1\n  revert\ntag_3:\n  pop\n  jump(tag_4)\ntag_2:\n  dup3\n  dup1\n  sload\n  dup3\n  dup3\n  sstore\n  swap1\n  0x00\n  mstore\n  keccak256(0x00, 0x20)\n  swap1\n  dup2\n  add\n  swap3\n  dup3\n  iszero\n  tag_5\n  jumpi\n  swap2\n  0x20\n  mul\n  dup3\n  add\ntag_6:\n  dup3\n  dup2\n  gt\n  iszero\n  tag_7\n  jumpi\n  dup3\n  mload\n  dup3\n  swap1\n  0xff\n  and\n  swap1\n  sstore\n  swap2\n  0x20\n  add\n  swap2\n  swap1\n  0x01\n  add\n  swap1\n  jump(tag_6)\ntag_7:\ntag_5:\n  pop\n  swap1\n  pop\n  tag_8\n  swap2\n  swap1\n  tag_9\n  jump\t// in\ntag_8:\n  pop\n  swap1\n  jump\t// out\ntag_9:\ntag_10:\n  dup1\n  dup3\n  gt\n  iszero\n  tag_11\n  jumpi\n  0x00\n  dup2\n  0x00\n  swap1\n  sstore\n  pop\n  0x01\n  add\n  jump(tag_10)\ntag_11:\n  pop\n  swap1\n  jump\t// out\ntag_4:\n  dataSize(sub_0)\n  dup1\n  dataOffset(sub_0)\n  0x00\n  codecopy\n  0x00\n  return\nstop\n\nsub_0: assembly {\n        /* \"contract/for\\xe9\\x81\\x8d\\xe5\\x8e\\x86\\xe6\\x95\\xb0\\xe7\\xbb\\x84.sol\":57:729  contract ForExample {... */\n      mstore(0x40, 0x80)\n      callvalue\n      dup1\n      iszero\n      tag_1\n      jumpi\n      0x00\n      dup1\n      revert\n    tag_1:\n      pop\n      jumpi(tag_2, lt(calldatasize, 0x04))\n      shr(0xe0, calldataload(0x00))\n      dup1\n      0x5d6dd78a\n      eq\n      tag_3\n      jumpi\n    tag_2:\n      0x00\n      dup1\n      revert\n        /* \"contract/for\\xe9\\x81\\x8d\\xe5\\x8e\\x86\\xe6\\x95\\xb0\\xe7\\xbb\\x84.sol\":179:430  function forDemo() external view returns (uint256[] memory) {... */\n    tag_3:\n      tag_4\n      tag_5\n      jump\t// in\n    tag_4:\n      mload(0x40)\n      tag_6\n      swap2\n      swap1\n      tag_7\n      jump\t// in\n    tag_6:\n      mload(0x40)\n      dup1\n      swap2\n      sub\n      swap1\n      return\n    tag_5:\n        /* \"contract/for\\xe9\\x81\\x8d\\xe5\\x8e\\x86\\xe6\\x95\\xb0\\xe7\\xbb\\x84.sol\":221:237  uint256[] memory */\n      0x60\n        /* \"contract/for\\xe9\\x81\\x8d\\xe5\\x8e\\x86\\xe6\\x95\\xb0\\xe7\\xbb\\x84.sol\":249:272  uint256[] memory result */\n      0x00\n        /* \"contract/for\\xe9\\x81\\x8d\\xe5\\x8e\\x86\\xe6\\x95\\xb0\\xe7\\xbb\\x84.sol\":289:293  unms */\n      dup1\n        /* \"contract/for\\xe9\\x81\\x8d\\xe5\\x8e\\x86\\xe6\\x95\\xb0\\xe7\\xbb\\x84.sol\":289:300  unms.length */\n      dup1\n      sload\n      swap1\n      pop\n        /* \"contract/for\\xe9\\x81\\x8d\\xe5\\x8e\\x86\\xe6\\x95\\xb0\\xe7\\xbb\\x84.sol\":275:301  new uint256[](unms.length) */\n      0xffffffffffffffff\n      dup2\n      gt\n      iszero\n      tag_9\n      jumpi\n      tag_10\n      tag_11\n      jump\t// in\n    tag_10:\n    tag_9:\n      mload(0x40)\n      swap1\n      dup1\n      dup3\n      mstore\n      dup1\n      0x20\n      mul\n      0x20\n      add\n      dup3\n      add\n      0x40\n      mstore\n      dup1\n      iszero\n      tag_12\n      jumpi\n      dup2\n      0x20\n      add\n      0x20\n      dup3\n      mul\n      dup1\n      calldatasize\n      dup4\n      calldatacopy\n      dup1\n      dup3\n      add\n      swap2\n      pop\n      pop\n      swap1\n      pop\n    tag_12:\n      pop\n        /* \"contract/for\\xe9\\x81\\x8d\\xe5\\x8e\\x86\\xe6\\x95\\xb0\\xe7\\xbb\\x84.sol\":249:301  uint256[] memory result = new uint256[](unms.length) */\n      swap1\n      pop\n        /* \"contract/for\\xe9\\x81\\x8d\\xe5\\x8e\\x86\\xe6\\x95\\xb0\\xe7\\xbb\\x84.sol\":316:325  uint256 i */\n      0x00\n        /* \"contract/for\\xe9\\x81\\x8d\\xe5\\x8e\\x86\\xe6\\x95\\xb0\\xe7\\xbb\\x84.sol\":311:401  for (uint256 i = 0; i < unms.length; i++) {... */\n    tag_13:\n        /* \"contract/for\\xe9\\x81\\x8d\\xe5\\x8e\\x86\\xe6\\x95\\xb0\\xe7\\xbb\\x84.sol\":335:339  unms */\n      0x00\n        /* \"contract/for\\xe9\\x81\\x8d\\xe5\\x8e\\x86\\xe6\\x95\\xb0\\xe7\\xbb\\x84.sol\":335:346  unms.length */\n      dup1\n      sload\n      swap1\n      pop\n        /* \"contract/for\\xe9\\x81\\x8d\\xe5\\x8e\\x86\\xe6\\x95\\xb0\\xe7\\xbb\\x84.sol\":331:332  i */\n      dup2\n        /* \"contract/for\\xe9\\x81\\x8d\\xe5\\x8e\\x86\\xe6\\x95\\xb0\\xe7\\xbb\\x84.sol\":331:346  i < unms.length */\n      lt\n        /* \"contract/for\\xe9\\x81\\x8d\\xe5\\x8e\\x86\\xe6\\x95\\xb0\\xe7\\xbb\\x84.sol\":311:401  for (uint256 i = 0; i < unms.length; i++) {... */\n      iszero\n      tag_14\n      jumpi\n        /* \"contract/for\\xe9\\x81\\x8d\\xe5\\x8e\\x86\\xe6\\x95\\xb0\\xe7\\xbb\\x84.sol\":389:390  2 */\n      0x02\n        /* \"contract/for\\xe9\\x81\\x8d\\xe5\\x8e\\x86\\xe6\\x95\\xb0\\xe7\\xbb\\x84.sol\":379:383  unms */\n      0x00\n        /* \"contract/for\\xe9\\x81\\x8d\\xe5\\x8e\\x86\\xe6\\x95\\xb0\\xe7\\xbb\\x84.sol\":384:385  i */\n      dup3\n        /* \"contract/for\\xe9\\x81\\x8d\\xe5\\x8e\\x86\\xe6\\x95\\xb0\\xe7\\xbb\\x84.sol\":379:386  unms[i] */\n      dup2\n      sload\n      dup2\n      lt\n      tag_16\n      jumpi\n      tag_17\n      tag_18\n      jump\t// in\n    tag_17:\n    tag_16:\n      swap1\n      0x00\n      mstore\n      keccak256(0x00, 0x20)\n      add\n      sload\n        /* \"contract/for\\xe9\\x81\\x8d\\xe5\\x8e\\x86\\xe6\\x95\\xb0\\xe7\\xbb\\x84.sol\":379:390  unms[i] * 2 */\n      tag_20\n      swap2\n      swap1\n      tag_21\n      jump\t// in\n    tag_20:\n        /* \"contract/for\\xe9\\x81\\x8d\\xe5\\x8e\\x86\\xe6\\x95\\xb0\\xe7\\xbb\\x84.sol\":367:373  result */\n      dup3\n        /* \"contract/for\\xe9\\x81\\x8d\\xe5\\x8e\\x86\\xe6\\x95\\xb0\\xe7\\xbb\\x84.sol\":374:375  i */\n      dup3\n        /* \"contract/for\\xe9\\x81\\x8d\\xe5\\x8e\\x86\\xe6\\x95\\xb0\\xe7\\xbb\\x84.sol\":367:376  result[i] */\n      dup2\n      mload\n      dup2\n      lt\n      tag_22\n      jumpi\n      tag_23\n      tag_18\n      jump\t// in\n    tag_23:\n    tag_22:\n      0x20\n      mul\n      0x20\n      add\n      add\n        /* \"contract/for\\xe9\\x81\\x8d\\xe5\\x8e\\x86\\xe6\\x95\\xb0\\xe7\\xbb\\x84.sol\":367:390  result[i] = unms[i] * 2 */\n      dup2\n      dup2\n      mstore\n      pop\n      pop\n        /* \"contract/for\\xe9\\x81\\x8d\\xe5\\x8e\\x86\\xe6\\x95\\xb0\\xe7\\xbb\\x84.sol\":348:351  i++ */\n      dup1\n      dup1\n      0x01\n      add\n      swap2\n      pop\n      pop\n        /* \"contract/for\\xe9\\x81\\x8d\\xe5\\x8e\\x86\\xe6\\x95\\xb0\\xe7\\xbb\\x84.sol\":311:401  for (uint256 i = 0; i < unms.length; i++) {... */\n      jump(tag_13)\n    tag_14:\n      pop\n        /* \"contract/for\\xe9\\x81\\x8d\\xe5\\x8e\\x86\\xe6\\x95\\xb0\\xe7\\xbb\\x84.sol\":417:423  result */\n      dup1\n        /* \"contract/for\\xe9\\x81\\x8d\\xe5\\x8e\\x86\\xe6\\x95\\xb0\\xe7\\xbb\\x84.sol\":410:423  return result */\n      swap2\n      pop\n      pop\n        /* \"contract/for\\xe9\\x81\\x8d\\xe5\\x8e\\x86\\xe6\\x95\\xb0\\xe7\\xbb\\x84.sol\":179:430  function forDemo() external view returns (uint256[] memory) {... */\n      swap1\n      jump\t// out\n        /* \"#utility.yul\":7:121   */\n    tag_24:\n        /* \"#utility.yul\":74:80   */\n      0x00\n        /* \"#utility.yul\":108:113   */\n      dup2\n        /* \"#utility.yul\":102:114   */\n      mload\n        /* \"#utility.yul\":92:114   */\n      swap1\n      pop\n        /* \"#utility.yul\":7:121   */\n      swap2\n      swap1\n      pop\n      jump\t// out\n        /* \"#utility.yul\":127:311   */\n    tag_25:\n        /* \"#utility.yul\":226:237   */\n      0x00\n        /* \"#utility.yul\":260:266   */\n      dup3\n        /* \"#utility.yul\":255:258   */\n      dup3\n        /* \"#utility.yul\":248:267   */\n      mstore\n        /* \"#utility.yul\":300:304   */\n      0x20\n        /* \"#utility.yul\":295:298   */\n      dup3\n        /* \"#utility.yul\":291:305   */\n      add\n        /* \"#utility.yul\":276:305   */\n      swap1\n      pop\n        /* \"#utility.yul\":127:311   */\n      swap3\n      swap2\n      pop\n      pop\n      jump\t// out\n        /* \"#utility.yul\":317:449   */\n    tag_26:\n        /* \"#utility.yul\":384:388   */\n      0x00\n        /* \"#utility.yul\":407:410   */\n      dup2\n        /* \"#utility.yul\":399:410   */\n      swap1\n      pop\n        /* \"#utility.yul\":437:441   */\n      0x20\n        /* \"#utility.yul\":432:435   */\n      dup3\n        /* \"#utility.yul\":428:442   */\n      add\n        /* \"#utility.yul\":420:442   */\n      swap1\n      pop\n        /* \"#utility.yul\":317:449   */\n      swap2\n      swap1\n      pop\n      jump\t// out\n        /* \"#utility.yul\":455:532   */\n    tag_27:\n        /* \"#utility.yul\":492:499   */\n      0x00\n        /* \"#utility.yul\":521:526   */\n      dup2\n        /* \"#utility.yul\":510:526   */\n      swap1\n      pop\n        /* \"#utility.yul\":455:532   */\n      swap2\n      swap1\n      pop\n      jump\t// out\n        /* \"#utility.yul\":538:646   */\n    tag_28:\n        /* \"#utility.yul\":615:639   */\n      tag_39\n        /* \"#utility.yul\":633:638   */\n      dup2\n        /* \"#utility.yul\":615:639   */\n      tag_27\n      jump\t// in\n    tag_39:\n        /* \"#utility.yul\":610:613   */\n      dup3\n        /* \"#utility.yul\":603:640   */\n      mstore\n        /* \"#utility.yul\":538:646   */\n      pop\n      pop\n      jump\t// out\n        /* \"#utility.yul\":652:831   */\n    tag_29:\n        /* \"#utility.yul\":721:731   */\n      0x00\n        /* \"#utility.yul\":742:788   */\n      tag_41\n        /* \"#utility.yul\":784:787   */\n      dup4\n        /* \"#utility.yul\":776:782   */\n      dup4\n        /* \"#utility.yul\":742:788   */\n      tag_28\n      jump\t// in\n    tag_41:\n        /* \"#utility.yul\":820:824   */\n      0x20\n        /* \"#utility.yul\":815:818   */\n      dup4\n        /* \"#utility.yul\":811:825   */\n      add\n        /* \"#utility.yul\":797:825   */\n      swap1\n      pop\n        /* \"#utility.yul\":652:831   */\n      swap3\n      swap2\n      pop\n      pop\n      jump\t// out\n        /* \"#utility.yul\":837:950   */\n    tag_30:\n        /* \"#utility.yul\":907:911   */\n      0x00\n        /* \"#utility.yul\":939:943   */\n      0x20\n        /* \"#utility.yul\":934:937   */\n      dup3\n        /* \"#utility.yul\":930:944   */\n      add\n        /* \"#utility.yul\":922:944   */\n      swap1\n      pop\n        /* \"#utility.yul\":837:950   */\n      swap2\n      swap1\n      pop\n      jump\t// out\n        /* \"#utility.yul\":986:1718   */\n    tag_31:\n        /* \"#utility.yul\":1105:1108   */\n      0x00\n        /* \"#utility.yul\":1134:1188   */\n      tag_44\n        /* \"#utility.yul\":1182:1187   */\n      dup3\n        /* \"#utility.yul\":1134:1188   */\n      tag_24\n      jump\t// in\n    tag_44:\n        /* \"#utility.yul\":1204:1290   */\n      tag_45\n        /* \"#utility.yul\":1283:1289   */\n      dup2\n        /* \"#utility.yul\":1278:1281   */\n      dup6\n        /* \"#utility.yul\":1204:1290   */\n      tag_25\n      jump\t// in\n    tag_45:\n        /* \"#utility.yul\":1197:1290   */\n      swap4\n      pop\n        /* \"#utility.yul\":1314:1370   */\n      tag_46\n        /* \"#utility.yul\":1364:1369   */\n      dup4\n        /* \"#utility.yul\":1314:1370   */\n      tag_26\n      jump\t// in\n    tag_46:\n        /* \"#utility.yul\":1393:1400   */\n      dup1\n        /* \"#utility.yul\":1424:1425   */\n      0x00\n        /* \"#utility.yul\":1409:1693   */\n    tag_47:\n        /* \"#utility.yul\":1434:1440   */\n      dup4\n        /* \"#utility.yul\":1431:1432   */\n      dup2\n        /* \"#utility.yul\":1428:1441   */\n      lt\n        /* \"#utility.yul\":1409:1693   */\n      iszero\n      tag_49\n      jumpi\n        /* \"#utility.yul\":1510:1516   */\n      dup2\n        /* \"#utility.yul\":1504:1517   */\n      mload\n        /* \"#utility.yul\":1537:1600   */\n      tag_50\n        /* \"#utility.yul\":1596:1599   */\n      dup9\n        /* \"#utility.yul\":1581:1594   */\n      dup3\n        /* \"#utility.yul\":1537:1600   */\n      tag_29\n      jump\t// in\n    tag_50:\n        /* \"#utility.yul\":1530:1600   */\n      swap8\n      pop\n        /* \"#utility.yul\":1623:1683   */\n      tag_51\n        /* \"#utility.yul\":1676:1682   */\n      dup4\n        /* \"#utility.yul\":1623:1683   */\n      tag_30\n      jump\t// in\n    tag_51:\n        /* \"#utility.yul\":1613:1683   */\n      swap3\n      pop\n        /* \"#utility.yul\":1469:1693   */\n      pop\n        /* \"#utility.yul\":1456:1457   */\n      0x01\n        /* \"#utility.yul\":1453:1454   */\n      dup2\n        /* \"#utility.yul\":1449:1458   */\n      add\n        /* \"#utility.yul\":1444:1458   */\n      swap1\n      pop\n        /* \"#utility.yul\":1409:1693   */\n      jump(tag_47)\n    tag_49:\n        /* \"#utility.yul\":1413:1427   */\n      pop\n        /* \"#utility.yul\":1709:1712   */\n      dup6\n        /* \"#utility.yul\":1702:1712   */\n      swap4\n      pop\n        /* \"#utility.yul\":1110:1718   */\n      pop\n      pop\n      pop\n        /* \"#utility.yul\":986:1718   */\n      swap3\n      swap2\n      pop\n      pop\n      jump\t// out\n        /* \"#utility.yul\":1724:2097   */\n    tag_7:\n        /* \"#utility.yul\":1867:1871   */\n      0x00\n        /* \"#utility.yul\":1905:1907   */\n      0x20\n        /* \"#utility.yul\":1894:1903   */\n      dup3\n        /* \"#utility.yul\":1890:1908   */\n      add\n        /* \"#utility.yul\":1882:1908   */\n      swap1\n      pop\n        /* \"#utility.yul\":1954:1963   */\n      dup2\n        /* \"#utility.yul\":1948:1952   */\n      dup2\n        /* \"#utility.yul\":1944:1964   */\n      sub\n        /* \"#utility.yul\":1940:1941   */\n      0x00\n        /* \"#utility.yul\":1929:1938   */\n      dup4\n        /* \"#utility.yul\":1925:1942   */\n      add\n        /* \"#utility.yul\":1918:1965   */\n      mstore\n        /* \"#utility.yul\":1982:2090   */\n      tag_53\n        /* \"#utility.yul\":2085:2089   */\n      dup2\n        /* \"#utility.yul\":2076:2082   */\n      dup5\n        /* \"#utility.yul\":1982:2090   */\n      tag_31\n      jump\t// in\n    tag_53:\n        /* \"#utility.yul\":1974:2090   */\n      swap1\n      pop\n        /* \"#utility.yul\":1724:2097   */\n      swap3\n      swap2\n      pop\n      pop\n      jump\t// out\n        /* \"#utility.yul\":2103:2283   */\n    tag_11:\n        /* \"#utility.yul\":2151:2228   */\n      0x4e487b7100000000000000000000000000000000000000000000000000000000\n        /* \"#utility.yul\":2148:2149   */\n      0x00\n        /* \"#utility.yul\":2141:2229   */\n      mstore\n        /* \"#utility.yul\":2248:2252   */\n      0x41\n        /* \"#utility.yul\":2245:2246   */\n      0x04\n        /* \"#utility.yul\":2238:2253   */\n      mstore\n        /* \"#utility.yul\":2272:2276   */\n      0x24\n        /* \"#utility.yul\":2269:2270   */\n      0x00\n        /* \"#utility.yul\":2262:2277   */\n      revert\n        /* \"#utility.yul\":2289:2469   */\n    tag_18:\n        /* \"#utility.yul\":2337:2414   */\n      0x4e487b7100000000000000000000000000000000000000000000000000000000\n        /* \"#utility.yul\":2334:2335   */\n      0x00\n        /* \"#utility.yul\":2327:2415   */\n      mstore\n        /* \"#utility.yul\":2434:2438   */\n      0x32\n        /* \"#utility.yul\":2431:2432   */\n      0x04\n        /* \"#utility.yul\":2424:2439   */\n      mstore\n        /* \"#utility.yul\":2458:2462   */\n      0x24\n        /* \"#utility.yul\":2455:2456   */\n      0x00\n        /* \"#utility.yul\":2448:2463   */\n      revert\n        /* \"#utility.yul\":2475:2655   */\n    tag_32:\n        /* \"#utility.yul\":2523:2600   */\n      0x4e487b7100000000000000000000000000000000000000000000000000000000\n        /* \"#utility.yul\":2520:2521   */\n      0x00\n        /* \"#utility.yul\":2513:2601   */\n      mstore\n        /* \"#utility.yul\":2620:2624   */\n      0x11\n        /* \"#utility.yul\":2617:2618   */\n      0x04\n        /* \"#utility.yul\":2610:2625   */\n      mstore\n        /* \"#utility.yul\":2644:2648   */\n      0x24\n        /* \"#utility.yul\":2641:2642   */\n      0x00\n        /* \"#utility.yul\":2634:2649   */\n      revert\n        /* \"#utility.yul\":2661:3071   */\n    tag_21:\n        /* \"#utility.yul\":2701:2708   */\n      0x00\n        /* \"#utility.yul\":2724:2744   */\n      tag_58\n        /* \"#utility.yul\":2742:2743   */\n      dup3\n        /* \"#utility.yul\":2724:2744   */\n      tag_27\n      jump\t// in\n    tag_58:\n        /* \"#utility.yul\":2719:2744   */\n      swap2\n      pop\n        /* \"#utility.yul\":2758:2778   */\n      tag_59\n        /* \"#utility.yul\":2776:2777   */\n      dup4\n        /* \"#utility.yul\":2758:2778   */\n      tag_27\n      jump\t// in\n    tag_59:\n        /* \"#utility.yul\":2753:2778   */\n      swap3\n      pop\n        /* \"#utility.yul\":2813:2814   */\n      dup3\n        /* \"#utility.yul\":2810:2811   */\n      dup3\n        /* \"#utility.yul\":2806:2815   */\n      mul\n        /* \"#utility.yul\":2835:2865   */\n      tag_60\n        /* \"#utility.yul\":2853:2864   */\n      dup2\n        /* \"#utility.yul\":2835:2865   */\n      tag_27\n      jump\t// in\n    tag_60:\n        /* \"#utility.yul\":2824:2865   */\n      swap2\n      pop\n        /* \"#utility.yul\":3014:3015   */\n      dup3\n        /* \"#utility.yul\":3005:3012   */\n      dup3\n        /* \"#utility.yul\":3001:3016   */\n      div\n        /* \"#utility.yul\":2998:2999   */\n      dup5\n        /* \"#utility.yul\":2995:3017   */\n      eq\n        /* \"#utility.yul\":2975:2976   */\n      dup4\n        /* \"#utility.yul\":2968:2977   */\n      iszero\n        /* \"#utility.yul\":2948:3031   */\n      or\n        /* \"#utility.yul\":2925:3064   */\n      tag_61\n      jumpi\n        /* \"#utility.yul\":3044:3062   */\n      tag_62\n      tag_32\n      jump\t// in\n    tag_62:\n        /* \"#utility.yul\":2925:3064   */\n    tag_61:\n        /* \"#utility.yul\":2709:3071   */\n      pop\n        /* \"#utility.yul\":2661:3071   */\n      swap3\n      swap2\n      pop\n      pop\n      jump\t// out\n\n    auxdata: 0xa2646970667358221220387fa1e21e47fa85cb45c8e183ef209b0d7e508e4efe27b46ebcf79b4b1081fb64736f6c63430008160033\n}\n",
				"bytecode": {
					"linkReferences": {},
					"object": "60806040526040518060800160405280600160ff168152602001600260ff168152602001600360ff168152602001600460ff168152505f906004610044929190610056565b50348015610050575f80fd5b506100c1565b828054828255905f5260205f20908101928215610095579160200282015b82811115610094578251829060ff16905591602001919060010190610074565b5b5090506100a291906100a6565b5090565b5b808211156100bd575f815f9055506001016100a7565b5090565b6102e5806100ce5f395ff3fe608060405234801561000f575f80fd5b5060043610610029575f3560e01c80635d6dd78a1461002d575b5f80fd5b61003561004b565b60405161004291906101c7565b60405180910390f35b60605f808054905067ffffffffffffffff81111561006c5761006b6101e7565b5b60405190808252806020026020018201604052801561009a5781602001602082028036833780820191505090505b5090505f5b5f805490508110156100ff5760025f82815481106100c0576100bf610214565b5b905f5260205f2001546100d3919061026e565b8282815181106100e6576100e5610214565b5b602002602001018181525050808060010191505061009f565b508091505090565b5f81519050919050565b5f82825260208201905092915050565b5f819050602082019050919050565b5f819050919050565b61014281610130565b82525050565b5f6101538383610139565b60208301905092915050565b5f602082019050919050565b5f61017582610107565b61017f8185610111565b935061018a83610121565b805f5b838110156101ba5781516101a18882610148565b97506101ac8361015f565b92505060018101905061018d565b5085935050505092915050565b5f6020820190508181035f8301526101df818461016b565b905092915050565b7f4e487b71000000000000000000000000000000000000000000000000000000005f52604160045260245ffd5b7f4e487b71000000000000000000000000000000000000000000000000000000005f52603260045260245ffd5b7f4e487b71000000000000000000000000000000000000000000000000000000005f52601160045260245ffd5b5f61027882610130565b915061028383610130565b925082820261029181610130565b915082820484148315176102a8576102a7610241565b5b509291505056fea2646970667358221220387fa1e21e47fa85cb45c8e183ef209b0d7e508e4efe27b46ebcf79b4b1081fb64736f6c63430008160033",
					"opcodes": "PUSH1 0x80 PUSH1 0x40 MSTORE PUSH1 0x40 MLOAD DUP1 PUSH1 0x80 ADD PUSH1 0x40 MSTORE DUP1 PUSH1 0x1 PUSH1 0xFF AND DUP2 MSTORE PUSH1 0x20 ADD PUSH1 0x2 PUSH1 0xFF AND DUP2 MSTORE PUSH1 0x20 ADD PUSH1 0x3 PUSH1 0xFF AND DUP2 MSTORE PUSH1 0x20 ADD PUSH1 0x4 PUSH1 0xFF AND DUP2 MSTORE POP PUSH0 SWAP1 PUSH1 0x4 PUSH2 0x44 SWAP3 SWAP2 SWAP1 PUSH2 0x56 JUMP JUMPDEST POP CALLVALUE DUP1 ISZERO PUSH2 0x50 JUMPI PUSH0 DUP1 REVERT JUMPDEST POP PUSH2 0xC1 JUMP JUMPDEST DUP3 DUP1 SLOAD DUP3 DUP3 SSTORE SWAP1 PUSH0 MSTORE PUSH1 0x20 PUSH0 KECCAK256 SWAP1 DUP2 ADD SWAP3 DUP3 ISZERO PUSH2 0x95 JUMPI SWAP2 PUSH1 0x20 MUL DUP3 ADD JUMPDEST DUP3 DUP2 GT ISZERO PUSH2 0x94 JUMPI DUP3 MLOAD DUP3 SWAP1 PUSH1 0xFF AND SWAP1 SSTORE SWAP2 PUSH1 0x20 ADD SWAP2 SWAP1 PUSH1 0x1 ADD SWAP1 PUSH2 0x74 JUMP JUMPDEST JUMPDEST POP SWAP1 POP PUSH2 0xA2 SWAP2 SWAP1 PUSH2 0xA6 JUMP JUMPDEST POP SWAP1 JUMP JUMPDEST JUMPDEST DUP1 DUP3 GT ISZERO PUSH2 0xBD JUMPI PUSH0 DUP2 PUSH0 SWAP1 SSTORE POP PUSH1 0x1 ADD PUSH2 0xA7 JUMP JUMPDEST POP SWAP1 JUMP JUMPDEST PUSH2 0x2E5 DUP1 PUSH2 0xCE PUSH0 CODECOPY PUSH0 RETURN INVALID PUSH1 0x80 PUSH1 0x40 MSTORE CALLVALUE DUP1 ISZERO PUSH2 0xF JUMPI PUSH0 DUP1 REVERT JUMPDEST POP PUSH1 0x4 CALLDATASIZE LT PUSH2 0x29 JUMPI PUSH0 CALLDATALOAD PUSH1 0xE0 SHR DUP1 PUSH4 0x5D6DD78A EQ PUSH2 0x2D JUMPI JUMPDEST PUSH0 DUP1 REVERT JUMPDEST PUSH2 0x35 PUSH2 0x4B JUMP JUMPDEST PUSH1 0x40 MLOAD PUSH2 0x42 SWAP2 SWAP1 PUSH2 0x1C7 JUMP JUMPDEST PUSH1 0x40 MLOAD DUP1 SWAP2 SUB SWAP1 RETURN JUMPDEST PUSH1 0x60 PUSH0 DUP1 DUP1 SLOAD SWAP1 POP PUSH8 0xFFFFFFFFFFFFFFFF DUP2 GT ISZERO PUSH2 0x6C JUMPI PUSH2 0x6B PUSH2 0x1E7 JUMP JUMPDEST JUMPDEST PUSH1 0x40 MLOAD SWAP1 DUP1 DUP3 MSTORE DUP1 PUSH1 0x20 MUL PUSH1 0x20 ADD DUP3 ADD PUSH1 0x40 MSTORE DUP1 ISZERO PUSH2 0x9A JUMPI DUP2 PUSH1 0x20 ADD PUSH1 0x20 DUP3 MUL DUP1 CALLDATASIZE DUP4 CALLDATACOPY DUP1 DUP3 ADD SWAP2 POP POP SWAP1 POP JUMPDEST POP SWAP1 POP PUSH0 JUMPDEST PUSH0 DUP1 SLOAD SWAP1 POP DUP2 LT ISZERO PUSH2 0xFF JUMPI PUSH1 0x2 PUSH0 DUP3 DUP2 SLOAD DUP2 LT PUSH2 0xC0 JUMPI PUSH2 0xBF PUSH2 0x214 JUMP JUMPDEST JUMPDEST SWAP1 PUSH0 MSTORE PUSH1 0x20 PUSH0 KECCAK256 ADD SLOAD PUSH2 0xD3 SWAP2 SWAP1 PUSH2 0x26E JUMP JUMPDEST DUP3 DUP3 DUP2 MLOAD DUP2 LT PUSH2 0xE6 JUMPI PUSH2 0xE5 PUSH2 0x214 JUMP JUMPDEST JUMPDEST PUSH1 0x20 MUL PUSH1 0x20 ADD ADD DUP2 DUP2 MSTORE POP POP DUP1 DUP1 PUSH1 0x1 ADD SWAP2 POP POP PUSH2 0x9F JUMP JUMPDEST POP DUP1 SWAP2 POP POP SWAP1 JUMP JUMPDEST PUSH0 DUP2 MLOAD SWAP1 POP SWAP2 SWAP1 POP JUMP JUMPDEST PUSH0 DUP3 DUP3 MSTORE PUSH1 0x20 DUP3 ADD SWAP1 POP SWAP3 SWAP2 POP POP JUMP JUMPDEST PUSH0 DUP2 SWAP1 POP PUSH1 0x20 DUP3 ADD SWAP1 POP SWAP2 SWAP1 POP JUMP JUMPDEST PUSH0 DUP2 SWAP1 POP SWAP2 SWAP1 POP JUMP JUMPDEST PUSH2 0x142 DUP2 PUSH2 0x130 JUMP JUMPDEST DUP3 MSTORE POP POP JUMP JUMPDEST PUSH0 PUSH2 0x153 DUP4 DUP4 PUSH2 0x139 JUMP JUMPDEST PUSH1 0x20 DUP4 ADD SWAP1 POP SWAP3 SWAP2 POP POP JUMP JUMPDEST PUSH0 PUSH1 0x20 DUP3 ADD SWAP1 POP SWAP2 SWAP1 POP JUMP JUMPDEST PUSH0 PUSH2 0x175 DUP3 PUSH2 0x107 JUMP JUMPDEST PUSH2 0x17F DUP2 DUP6 PUSH2 0x111 JUMP JUMPDEST SWAP4 POP PUSH2 0x18A DUP4 PUSH2 0x121 JUMP JUMPDEST DUP1 PUSH0 JUMPDEST DUP4 DUP2 LT ISZERO PUSH2 0x1BA JUMPI DUP2 MLOAD PUSH2 0x1A1 DUP9 DUP3 PUSH2 0x148 JUMP JUMPDEST SWAP8 POP PUSH2 0x1AC DUP4 PUSH2 0x15F JUMP JUMPDEST SWAP3 POP POP PUSH1 0x1 DUP2 ADD SWAP1 POP PUSH2 0x18D JUMP JUMPDEST POP DUP6 SWAP4 POP POP POP POP SWAP3 SWAP2 POP POP JUMP JUMPDEST PUSH0 PUSH1 0x20 DUP3 ADD SWAP1 POP DUP2 DUP2 SUB PUSH0 DUP4 ADD MSTORE PUSH2 0x1DF DUP2 DUP5 PUSH2 0x16B JUMP JUMPDEST SWAP1 POP SWAP3 SWAP2 POP POP JUMP JUMPDEST PUSH32 0x4E487B7100000000000000000000000000000000000000000000000000000000 PUSH0 MSTORE PUSH1 0x41 PUSH1 0x4 MSTORE PUSH1 0x24 PUSH0 REVERT JUMPDEST PUSH32 0x4E487B7100000000000000000000000000000000000000000000000000000000 PUSH0 MSTORE PUSH1 0x32 PUSH1 0x4 MSTORE PUSH1 0x24 PUSH0 REVERT JUMPDEST PUSH32 0x4E487B7100000000000000000000000000000000000000000000000000000000 PUSH0 MSTORE PUSH1 0x11 PUSH1 0x4 MSTORE PUSH1 0x24 PUSH0 REVERT JUMPDEST PUSH0 PUSH2 0x278 DUP3 PUSH2 0x130 JUMP JUMPDEST SWAP2 POP PUSH2 0x283 DUP4 PUSH2 0x130 JUMP JUMPDEST SWAP3 POP DUP3 DUP3 MUL PUSH2 0x291 DUP2 PUSH2 0x130 JUMP JUMPDEST SWAP2 POP DUP3 DUP3 DIV DUP5 EQ DUP4 ISZERO OR PUSH2 0x2A8 JUMPI PUSH2 0x2A7 PUSH2 0x241 JUMP JUMPDEST JUMPDEST POP SWAP3 SWAP2 POP POP JUMP INVALID LOG2 PUSH5 0x6970667358 0x22 SLT KECCAK256 CODESIZE PUSH32 0xA1E21E47FA85CB45C8E183EF209B0D7E508E4EFE27B46EBCF79B4B1081FB6473 PUSH16 0x6C634300081600330000000000000000 "
				},
				"gasEstimates": {
					"creation": {
						"codeDepositCost": "148200",
						"executionCost": "infinite",
						"totalCost": "infinite"
					},
					"external": {
						"forDemo()": "infinite"
					}
				},
				"methodIdentifiers": {
					"forDemo()": "5d6dd78a"
				}
			},
			"storageLayout": {
				"storage": [
					{
						"astId": 9,
						"contract": "contract/for遍历数组.sol:ForExample",
						"label": "unms",
						"offset": 0,
						"slot": "0",
						"type": "t_array(t_uint256)dyn_storage"
					}
				],
				"types": {
					"t_array(t_uint256)dyn_storage": {
						"base": "t_uint256",
						"encoding": "dynamic_array",
						"label": "uint256[]",
						"numberOfBytes": "32"
					},
					"t_uint256": {
						"encoding": "inplace",
						"label": "uint256",
						"numberOfBytes": "32"
					}
				}
			},
			"userdoc": {
				"kind": "user",
				"methods": {},
				"version": 1
			}
		}
	}
}