{
	"contract/Mapping常用方法.sol": {
		"MyMapping": {
			"abi": [
				{
					"inputs": [
						{
							"internalType": "string",
							"name": "_name",
							"type": "string"
						}
					],
					"name": "exapple1",
					"outputs": [
						{
							"internalType": "bool",
							"name": "",
							"type": "bool"
						}
					],
					"stateMutability": "nonpayable",
					"type": "function"
				}
			],
			"devdoc": {
				"kind": "dev",
				"methods": {},
				"version": 1
			},
			"evm": {
				"assembly": "    /* \"contract/Mapping\\xe5\\xb8\\xb8\\xe7\\x94\\xa8\\xe6\\x96\\xb9\\xe6\\xb3\\x95.sol\":57:376  contract MyMapping {... */\n  mstore(0x40, 0x80)\n  callvalue\n  dup1\n  iszero\n  tag_1\n  jumpi\n  0x00\n  dup1\n  revert\ntag_1:\n  pop\n  dataSize(sub_0)\n  dup1\n  dataOffset(sub_0)\n  0x00\n  codecopy\n  0x00\n  return\nstop\n\nsub_0: assembly {\n        /* \"contract/Mapping\\xe5\\xb8\\xb8\\xe7\\x94\\xa8\\xe6\\x96\\xb9\\xe6\\xb3\\x95.sol\":57:376  contract MyMapping {... */\n      mstore(0x40, 0x80)\n      callvalue\n      dup1\n      iszero\n      tag_1\n      jumpi\n      0x00\n      dup1\n      revert\n    tag_1:\n      pop\n      jumpi(tag_2, lt(calldatasize, 0x04))\n      shr(0xe0, calldataload(0x00))\n      dup1\n      0x346ec45f\n      eq\n      tag_3\n      jumpi\n    tag_2:\n      0x00\n      dup1\n      revert\n        /* \"contract/Mapping\\xe5\\xb8\\xb8\\xe7\\x94\\xa8\\xe6\\x96\\xb9\\xe6\\xb3\\x95.sol\":148:374  function exapple1(string memory _name) external returns (bool) {... */\n    tag_3:\n      tag_4\n      0x04\n      dup1\n      calldatasize\n      sub\n      dup2\n      add\n      swap1\n      tag_5\n      swap2\n      swap1\n      tag_6\n      jump\t// in\n    tag_5:\n      tag_7\n      jump\t// in\n    tag_4:\n      mload(0x40)\n      tag_8\n      swap2\n      swap1\n      tag_9\n      jump\t// in\n    tag_8:\n      mload(0x40)\n      dup1\n      swap2\n      sub\n      swap1\n      return\n    tag_7:\n        /* \"contract/Mapping\\xe5\\xb8\\xb8\\xe7\\x94\\xa8\\xe6\\x96\\xb9\\xe6\\xb3\\x95.sol\":205:209  bool */\n      0x00\n        /* \"contract/Mapping\\xe5\\xb8\\xb8\\xe7\\x94\\xa8\\xe6\\x96\\xb9\\xe6\\xb3\\x95.sol\":257:261  true */\n      0x01\n        /* \"contract/Mapping\\xe5\\xb8\\xb8\\xe7\\x94\\xa8\\xe6\\x96\\xb9\\xe6\\xb3\\x95.sol\":239:242  map */\n      0x00\n        /* \"contract/Mapping\\xe5\\xb8\\xb8\\xe7\\x94\\xa8\\xe6\\x96\\xb9\\xe6\\xb3\\x95.sol\":239:254  map[\"zhangsan\"] */\n      mload(0x40)\n      tag_11\n      swap1\n      tag_12\n      jump\t// in\n    tag_11:\n      swap1\n      dup2\n      mstore\n      0x20\n      add\n      mload(0x40)\n      dup1\n      swap2\n      sub\n      swap1\n      keccak256\n      0x00\n        /* \"contract/Mapping\\xe5\\xb8\\xb8\\xe7\\x94\\xa8\\xe6\\x96\\xb9\\xe6\\xb3\\x95.sol\":239:261  map[\"zhangsan\"] = true */\n      0x0100\n      exp\n      dup2\n      sload\n      dup2\n      0xff\n      mul\n      not\n      and\n      swap1\n      dup4\n      iszero\n      iszero\n      mul\n      or\n      swap1\n      sstore\n      pop\n        /* \"contract/Mapping\\xe5\\xb8\\xb8\\xe7\\x94\\xa8\\xe6\\x96\\xb9\\xe6\\xb3\\x95.sol\":285:289  true */\n      0x01\n        /* \"contract/Mapping\\xe5\\xb8\\xb8\\xe7\\x94\\xa8\\xe6\\x96\\xb9\\xe6\\xb3\\x95.sol\":271:274  map */\n      0x00\n        /* \"contract/Mapping\\xe5\\xb8\\xb8\\xe7\\x94\\xa8\\xe6\\x96\\xb9\\xe6\\xb3\\x95.sol\":271:282  map[\"lisi\"] */\n      mload(0x40)\n      tag_13\n      swap1\n      tag_14\n      jump\t// in\n    tag_13:\n      swap1\n      dup2\n      mstore\n      0x20\n      add\n      mload(0x40)\n      dup1\n      swap2\n      sub\n      swap1\n      keccak256\n      0x00\n        /* \"contract/Mapping\\xe5\\xb8\\xb8\\xe7\\x94\\xa8\\xe6\\x96\\xb9\\xe6\\xb3\\x95.sol\":271:289  map[\"lisi\"] = true */\n      0x0100\n      exp\n      dup2\n      sload\n      dup2\n      0xff\n      mul\n      not\n      and\n      swap1\n      dup4\n      iszero\n      iszero\n      mul\n      or\n      swap1\n      sstore\n      pop\n        /* \"contract/Mapping\\xe5\\xb8\\xb8\\xe7\\x94\\xa8\\xe6\\x96\\xb9\\xe6\\xb3\\x95.sol\":315:320  false */\n      0x00\n        /* \"contract/Mapping\\xe5\\xb8\\xb8\\xe7\\x94\\xa8\\xe6\\x96\\xb9\\xe6\\xb3\\x95.sol\":299:302  map */\n      dup1\n        /* \"contract/Mapping\\xe5\\xb8\\xb8\\xe7\\x94\\xa8\\xe6\\x96\\xb9\\xe6\\xb3\\x95.sol\":299:312  map[\"wangwu\"] */\n      mload(0x40)\n      tag_15\n      swap1\n      tag_16\n      jump\t// in\n    tag_15:\n      swap1\n      dup2\n      mstore\n      0x20\n      add\n      mload(0x40)\n      dup1\n      swap2\n      sub\n      swap1\n      keccak256\n      0x00\n        /* \"contract/Mapping\\xe5\\xb8\\xb8\\xe7\\x94\\xa8\\xe6\\x96\\xb9\\xe6\\xb3\\x95.sol\":299:320  map[\"wangwu\"] = false */\n      0x0100\n      exp\n      dup2\n      sload\n      dup2\n      0xff\n      mul\n      not\n      and\n      swap1\n      dup4\n      iszero\n      iszero\n      mul\n      or\n      swap1\n      sstore\n      pop\n        /* \"contract/Mapping\\xe5\\xb8\\xb8\\xe7\\x94\\xa8\\xe6\\x96\\xb9\\xe6\\xb3\\x95.sol\":330:336  bool b */\n      0x00\n        /* \"contract/Mapping\\xe5\\xb8\\xb8\\xe7\\x94\\xa8\\xe6\\x96\\xb9\\xe6\\xb3\\x95.sol\":339:342  map */\n      dup1\n        /* \"contract/Mapping\\xe5\\xb8\\xb8\\xe7\\x94\\xa8\\xe6\\x96\\xb9\\xe6\\xb3\\x95.sol\":343:348  _name */\n      dup4\n        /* \"contract/Mapping\\xe5\\xb8\\xb8\\xe7\\x94\\xa8\\xe6\\x96\\xb9\\xe6\\xb3\\x95.sol\":339:349  map[_name] */\n      mload(0x40)\n      tag_17\n      swap2\n      swap1\n      tag_18\n      jump\t// in\n    tag_17:\n      swap1\n      dup2\n      mstore\n      0x20\n      add\n      mload(0x40)\n      dup1\n      swap2\n      sub\n      swap1\n      keccak256\n      0x00\n      swap1\n      sload\n      swap1\n      0x0100\n      exp\n      swap1\n      div\n      0xff\n      and\n        /* \"contract/Mapping\\xe5\\xb8\\xb8\\xe7\\x94\\xa8\\xe6\\x96\\xb9\\xe6\\xb3\\x95.sol\":330:349  bool b = map[_name] */\n      swap1\n      pop\n        /* \"contract/Mapping\\xe5\\xb8\\xb8\\xe7\\x94\\xa8\\xe6\\x96\\xb9\\xe6\\xb3\\x95.sol\":366:367  b */\n      dup1\n        /* \"contract/Mapping\\xe5\\xb8\\xb8\\xe7\\x94\\xa8\\xe6\\x96\\xb9\\xe6\\xb3\\x95.sol\":359:367  return b */\n      swap2\n      pop\n      pop\n        /* \"contract/Mapping\\xe5\\xb8\\xb8\\xe7\\x94\\xa8\\xe6\\x96\\xb9\\xe6\\xb3\\x95.sol\":148:374  function exapple1(string memory _name) external returns (bool) {... */\n      swap2\n      swap1\n      pop\n      jump\t// out\n        /* \"#utility.yul\":7:82   */\n    tag_19:\n        /* \"#utility.yul\":40:46   */\n      0x00\n        /* \"#utility.yul\":73:75   */\n      0x40\n        /* \"#utility.yul\":67:76   */\n      mload\n        /* \"#utility.yul\":57:76   */\n      swap1\n      pop\n        /* \"#utility.yul\":7:82   */\n      swap1\n      jump\t// out\n        /* \"#utility.yul\":88:205   */\n    tag_20:\n        /* \"#utility.yul\":197:198   */\n      0x00\n        /* \"#utility.yul\":194:195   */\n      dup1\n        /* \"#utility.yul\":187:199   */\n      revert\n        /* \"#utility.yul\":211:328   */\n    tag_21:\n        /* \"#utility.yul\":320:321   */\n      0x00\n        /* \"#utility.yul\":317:318   */\n      dup1\n        /* \"#utility.yul\":310:322   */\n      revert\n        /* \"#utility.yul\":334:451   */\n    tag_22:\n        /* \"#utility.yul\":443:444   */\n      0x00\n        /* \"#utility.yul\":440:441   */\n      dup1\n        /* \"#utility.yul\":433:445   */\n      revert\n        /* \"#utility.yul\":457:574   */\n    tag_23:\n        /* \"#utility.yul\":566:567   */\n      0x00\n        /* \"#utility.yul\":563:564   */\n      dup1\n        /* \"#utility.yul\":556:568   */\n      revert\n        /* \"#utility.yul\":580:682   */\n    tag_24:\n        /* \"#utility.yul\":621:627   */\n      0x00\n        /* \"#utility.yul\":672:674   */\n      0x1f\n        /* \"#utility.yul\":668:675   */\n      not\n        /* \"#utility.yul\":663:665   */\n      0x1f\n        /* \"#utility.yul\":656:661   */\n      dup4\n        /* \"#utility.yul\":652:666   */\n      add\n        /* \"#utility.yul\":648:676   */\n      and\n        /* \"#utility.yul\":638:676   */\n      swap1\n      pop\n        /* \"#utility.yul\":580:682   */\n      swap2\n      swap1\n      pop\n      jump\t// out\n        /* \"#utility.yul\":688:868   */\n    tag_25:\n        /* \"#utility.yul\":736:813   */\n      0x4e487b7100000000000000000000000000000000000000000000000000000000\n        /* \"#utility.yul\":733:734   */\n      0x00\n        /* \"#utility.yul\":726:814   */\n      mstore\n        /* \"#utility.yul\":833:837   */\n      0x41\n        /* \"#utility.yul\":830:831   */\n      0x04\n        /* \"#utility.yul\":823:838   */\n      mstore\n        /* \"#utility.yul\":857:861   */\n      0x24\n        /* \"#utility.yul\":854:855   */\n      0x00\n        /* \"#utility.yul\":847:862   */\n      revert\n        /* \"#utility.yul\":874:1155   */\n    tag_26:\n        /* \"#utility.yul\":957:984   */\n      tag_53\n        /* \"#utility.yul\":979:983   */\n      dup3\n        /* \"#utility.yul\":957:984   */\n      tag_24\n      jump\t// in\n    tag_53:\n        /* \"#utility.yul\":949:955   */\n      dup2\n        /* \"#utility.yul\":945:985   */\n      add\n        /* \"#utility.yul\":1087:1093   */\n      dup2\n        /* \"#utility.yul\":1075:1085   */\n      dup2\n        /* \"#utility.yul\":1072:1094   */\n      lt\n        /* \"#utility.yul\":1051:1069   */\n      0xffffffffffffffff\n        /* \"#utility.yul\":1039:1049   */\n      dup3\n        /* \"#utility.yul\":1036:1070   */\n      gt\n        /* \"#utility.yul\":1033:1095   */\n      or\n        /* \"#utility.yul\":1030:1118   */\n      iszero\n      tag_54\n      jumpi\n        /* \"#utility.yul\":1098:1116   */\n      tag_55\n      tag_25\n      jump\t// in\n    tag_55:\n        /* \"#utility.yul\":1030:1118   */\n    tag_54:\n        /* \"#utility.yul\":1138:1148   */\n      dup1\n        /* \"#utility.yul\":1134:1136   */\n      0x40\n        /* \"#utility.yul\":1127:1149   */\n      mstore\n        /* \"#utility.yul\":917:1155   */\n      pop\n        /* \"#utility.yul\":874:1155   */\n      pop\n      pop\n      jump\t// out\n        /* \"#utility.yul\":1161:1290   */\n    tag_27:\n        /* \"#utility.yul\":1195:1201   */\n      0x00\n        /* \"#utility.yul\":1222:1242   */\n      tag_57\n      tag_19\n      jump\t// in\n    tag_57:\n        /* \"#utility.yul\":1212:1242   */\n      swap1\n      pop\n        /* \"#utility.yul\":1251:1284   */\n      tag_58\n        /* \"#utility.yul\":1279:1283   */\n      dup3\n        /* \"#utility.yul\":1271:1277   */\n      dup3\n        /* \"#utility.yul\":1251:1284   */\n      tag_26\n      jump\t// in\n    tag_58:\n        /* \"#utility.yul\":1161:1290   */\n      swap2\n      swap1\n      pop\n      jump\t// out\n        /* \"#utility.yul\":1296:1604   */\n    tag_28:\n        /* \"#utility.yul\":1358:1362   */\n      0x00\n        /* \"#utility.yul\":1448:1466   */\n      0xffffffffffffffff\n        /* \"#utility.yul\":1440:1446   */\n      dup3\n        /* \"#utility.yul\":1437:1467   */\n      gt\n        /* \"#utility.yul\":1434:1490   */\n      iszero\n      tag_60\n      jumpi\n        /* \"#utility.yul\":1470:1488   */\n      tag_61\n      tag_25\n      jump\t// in\n    tag_61:\n        /* \"#utility.yul\":1434:1490   */\n    tag_60:\n        /* \"#utility.yul\":1508:1537   */\n      tag_62\n        /* \"#utility.yul\":1530:1536   */\n      dup3\n        /* \"#utility.yul\":1508:1537   */\n      tag_24\n      jump\t// in\n    tag_62:\n        /* \"#utility.yul\":1500:1537   */\n      swap1\n      pop\n        /* \"#utility.yul\":1592:1596   */\n      0x20\n        /* \"#utility.yul\":1586:1590   */\n      dup2\n        /* \"#utility.yul\":1582:1597   */\n      add\n        /* \"#utility.yul\":1574:1597   */\n      swap1\n      pop\n        /* \"#utility.yul\":1296:1604   */\n      swap2\n      swap1\n      pop\n      jump\t// out\n        /* \"#utility.yul\":1610:1756   */\n    tag_29:\n        /* \"#utility.yul\":1707:1713   */\n      dup3\n        /* \"#utility.yul\":1702:1705   */\n      dup2\n        /* \"#utility.yul\":1697:1700   */\n      dup4\n        /* \"#utility.yul\":1684:1714   */\n      calldatacopy\n        /* \"#utility.yul\":1748:1749   */\n      0x00\n        /* \"#utility.yul\":1739:1745   */\n      dup4\n        /* \"#utility.yul\":1734:1737   */\n      dup4\n        /* \"#utility.yul\":1730:1746   */\n      add\n        /* \"#utility.yul\":1723:1750   */\n      mstore\n        /* \"#utility.yul\":1610:1756   */\n      pop\n      pop\n      pop\n      jump\t// out\n        /* \"#utility.yul\":1762:2187   */\n    tag_30:\n        /* \"#utility.yul\":1840:1845   */\n      0x00\n        /* \"#utility.yul\":1865:1931   */\n      tag_65\n        /* \"#utility.yul\":1881:1930   */\n      tag_66\n        /* \"#utility.yul\":1923:1929   */\n      dup5\n        /* \"#utility.yul\":1881:1930   */\n      tag_28\n      jump\t// in\n    tag_66:\n        /* \"#utility.yul\":1865:1931   */\n      tag_27\n      jump\t// in\n    tag_65:\n        /* \"#utility.yul\":1856:1931   */\n      swap1\n      pop\n        /* \"#utility.yul\":1954:1960   */\n      dup3\n        /* \"#utility.yul\":1947:1952   */\n      dup2\n        /* \"#utility.yul\":1940:1961   */\n      mstore\n        /* \"#utility.yul\":1992:1996   */\n      0x20\n        /* \"#utility.yul\":1985:1990   */\n      dup2\n        /* \"#utility.yul\":1981:1997   */\n      add\n        /* \"#utility.yul\":2030:2033   */\n      dup5\n        /* \"#utility.yul\":2021:2027   */\n      dup5\n        /* \"#utility.yul\":2016:2019   */\n      dup5\n        /* \"#utility.yul\":2012:2028   */\n      add\n        /* \"#utility.yul\":2009:2034   */\n      gt\n        /* \"#utility.yul\":2006:2118   */\n      iszero\n      tag_67\n      jumpi\n        /* \"#utility.yul\":2037:2116   */\n      tag_68\n      tag_23\n      jump\t// in\n    tag_68:\n        /* \"#utility.yul\":2006:2118   */\n    tag_67:\n        /* \"#utility.yul\":2127:2181   */\n      tag_69\n        /* \"#utility.yul\":2174:2180   */\n      dup5\n        /* \"#utility.yul\":2169:2172   */\n      dup3\n        /* \"#utility.yul\":2164:2167   */\n      dup6\n        /* \"#utility.yul\":2127:2181   */\n      tag_29\n      jump\t// in\n    tag_69:\n        /* \"#utility.yul\":1846:2187   */\n      pop\n        /* \"#utility.yul\":1762:2187   */\n      swap4\n      swap3\n      pop\n      pop\n      pop\n      jump\t// out\n        /* \"#utility.yul\":2207:2547   */\n    tag_31:\n        /* \"#utility.yul\":2263:2268   */\n      0x00\n        /* \"#utility.yul\":2312:2315   */\n      dup3\n        /* \"#utility.yul\":2305:2309   */\n      0x1f\n        /* \"#utility.yul\":2297:2303   */\n      dup4\n        /* \"#utility.yul\":2293:2310   */\n      add\n        /* \"#utility.yul\":2289:2316   */\n      slt\n        /* \"#utility.yul\":2279:2401   */\n      tag_71\n      jumpi\n        /* \"#utility.yul\":2320:2399   */\n      tag_72\n      tag_22\n      jump\t// in\n    tag_72:\n        /* \"#utility.yul\":2279:2401   */\n    tag_71:\n        /* \"#utility.yul\":2437:2443   */\n      dup2\n        /* \"#utility.yul\":2424:2444   */\n      calldataload\n        /* \"#utility.yul\":2462:2541   */\n      tag_73\n        /* \"#utility.yul\":2537:2540   */\n      dup5\n        /* \"#utility.yul\":2529:2535   */\n      dup3\n        /* \"#utility.yul\":2522:2526   */\n      0x20\n        /* \"#utility.yul\":2514:2520   */\n      dup7\n        /* \"#utility.yul\":2510:2527   */\n      add\n        /* \"#utility.yul\":2462:2541   */\n      tag_30\n      jump\t// in\n    tag_73:\n        /* \"#utility.yul\":2453:2541   */\n      swap2\n      pop\n        /* \"#utility.yul\":2269:2547   */\n      pop\n        /* \"#utility.yul\":2207:2547   */\n      swap3\n      swap2\n      pop\n      pop\n      jump\t// out\n        /* \"#utility.yul\":2553:3062   */\n    tag_6:\n        /* \"#utility.yul\":2622:2628   */\n      0x00\n        /* \"#utility.yul\":2671:2673   */\n      0x20\n        /* \"#utility.yul\":2659:2668   */\n      dup3\n        /* \"#utility.yul\":2650:2657   */\n      dup5\n        /* \"#utility.yul\":2646:2669   */\n      sub\n        /* \"#utility.yul\":2642:2674   */\n      slt\n        /* \"#utility.yul\":2639:2758   */\n      iszero\n      tag_75\n      jumpi\n        /* \"#utility.yul\":2677:2756   */\n      tag_76\n      tag_20\n      jump\t// in\n    tag_76:\n        /* \"#utility.yul\":2639:2758   */\n    tag_75:\n        /* \"#utility.yul\":2825:2826   */\n      0x00\n        /* \"#utility.yul\":2814:2823   */\n      dup3\n        /* \"#utility.yul\":2810:2827   */\n      add\n        /* \"#utility.yul\":2797:2828   */\n      calldataload\n        /* \"#utility.yul\":2855:2873   */\n      0xffffffffffffffff\n        /* \"#utility.yul\":2847:2853   */\n      dup2\n        /* \"#utility.yul\":2844:2874   */\n      gt\n        /* \"#utility.yul\":2841:2958   */\n      iszero\n      tag_77\n      jumpi\n        /* \"#utility.yul\":2877:2956   */\n      tag_78\n      tag_21\n      jump\t// in\n    tag_78:\n        /* \"#utility.yul\":2841:2958   */\n    tag_77:\n        /* \"#utility.yul\":2982:3045   */\n      tag_79\n        /* \"#utility.yul\":3037:3044   */\n      dup5\n        /* \"#utility.yul\":3028:3034   */\n      dup3\n        /* \"#utility.yul\":3017:3026   */\n      dup6\n        /* \"#utility.yul\":3013:3035   */\n      add\n        /* \"#utility.yul\":2982:3045   */\n      tag_31\n      jump\t// in\n    tag_79:\n        /* \"#utility.yul\":2972:3045   */\n      swap2\n      pop\n        /* \"#utility.yul\":2768:3055   */\n      pop\n        /* \"#utility.yul\":2553:3062   */\n      swap3\n      swap2\n      pop\n      pop\n      jump\t// out\n        /* \"#utility.yul\":3068:3158   */\n    tag_32:\n        /* \"#utility.yul\":3102:3109   */\n      0x00\n        /* \"#utility.yul\":3145:3150   */\n      dup2\n        /* \"#utility.yul\":3138:3151   */\n      iszero\n        /* \"#utility.yul\":3131:3152   */\n      iszero\n        /* \"#utility.yul\":3120:3152   */\n      swap1\n      pop\n        /* \"#utility.yul\":3068:3158   */\n      swap2\n      swap1\n      pop\n      jump\t// out\n        /* \"#utility.yul\":3164:3273   */\n    tag_33:\n        /* \"#utility.yul\":3245:3266   */\n      tag_82\n        /* \"#utility.yul\":3260:3265   */\n      dup2\n        /* \"#utility.yul\":3245:3266   */\n      tag_32\n      jump\t// in\n    tag_82:\n        /* \"#utility.yul\":3240:3243   */\n      dup3\n        /* \"#utility.yul\":3233:3267   */\n      mstore\n        /* \"#utility.yul\":3164:3273   */\n      pop\n      pop\n      jump\t// out\n        /* \"#utility.yul\":3279:3489   */\n    tag_9:\n        /* \"#utility.yul\":3366:3370   */\n      0x00\n        /* \"#utility.yul\":3404:3406   */\n      0x20\n        /* \"#utility.yul\":3393:3402   */\n      dup3\n        /* \"#utility.yul\":3389:3407   */\n      add\n        /* \"#utility.yul\":3381:3407   */\n      swap1\n      pop\n        /* \"#utility.yul\":3417:3482   */\n      tag_84\n        /* \"#utility.yul\":3479:3480   */\n      0x00\n        /* \"#utility.yul\":3468:3477   */\n      dup4\n        /* \"#utility.yul\":3464:3481   */\n      add\n        /* \"#utility.yul\":3455:3461   */\n      dup5\n        /* \"#utility.yul\":3417:3482   */\n      tag_33\n      jump\t// in\n    tag_84:\n        /* \"#utility.yul\":3279:3489   */\n      swap3\n      swap2\n      pop\n      pop\n      jump\t// out\n        /* \"#utility.yul\":3495:3643   */\n    tag_34:\n        /* \"#utility.yul\":3597:3608   */\n      0x00\n        /* \"#utility.yul\":3634:3637   */\n      dup2\n        /* \"#utility.yul\":3619:3637   */\n      swap1\n      pop\n        /* \"#utility.yul\":3495:3643   */\n      swap3\n      swap2\n      pop\n      pop\n      jump\t// out\n        /* \"#utility.yul\":3649:3807   */\n    tag_35:\n        /* \"#utility.yul\":3789:3799   */\n      0x7a68616e6773616e000000000000000000000000000000000000000000000000\n        /* \"#utility.yul\":3785:3786   */\n      0x00\n        /* \"#utility.yul\":3777:3783   */\n      dup3\n        /* \"#utility.yul\":3773:3787   */\n      add\n        /* \"#utility.yul\":3766:3800   */\n      mstore\n        /* \"#utility.yul\":3649:3807   */\n      pop\n      jump\t// out\n        /* \"#utility.yul\":3813:4213   */\n    tag_36:\n        /* \"#utility.yul\":3973:3976   */\n      0x00\n        /* \"#utility.yul\":3994:4078   */\n      tag_88\n        /* \"#utility.yul\":4076:4077   */\n      0x08\n        /* \"#utility.yul\":4071:4074   */\n      dup4\n        /* \"#utility.yul\":3994:4078   */\n      tag_34\n      jump\t// in\n    tag_88:\n        /* \"#utility.yul\":3987:4078   */\n      swap2\n      pop\n        /* \"#utility.yul\":4087:4180   */\n      tag_89\n        /* \"#utility.yul\":4176:4179   */\n      dup3\n        /* \"#utility.yul\":4087:4180   */\n      tag_35\n      jump\t// in\n    tag_89:\n        /* \"#utility.yul\":4205:4206   */\n      0x08\n        /* \"#utility.yul\":4200:4203   */\n      dup3\n        /* \"#utility.yul\":4196:4207   */\n      add\n        /* \"#utility.yul\":4189:4207   */\n      swap1\n      pop\n        /* \"#utility.yul\":3813:4213   */\n      swap2\n      swap1\n      pop\n      jump\t// out\n        /* \"#utility.yul\":4219:4600   */\n    tag_12:\n        /* \"#utility.yul\":4404:4407   */\n      0x00\n        /* \"#utility.yul\":4426:4574   */\n      tag_91\n        /* \"#utility.yul\":4570:4573   */\n      dup3\n        /* \"#utility.yul\":4426:4574   */\n      tag_36\n      jump\t// in\n    tag_91:\n        /* \"#utility.yul\":4419:4574   */\n      swap2\n      pop\n        /* \"#utility.yul\":4591:4594   */\n      dup2\n        /* \"#utility.yul\":4584:4594   */\n      swap1\n      pop\n        /* \"#utility.yul\":4219:4600   */\n      swap2\n      swap1\n      pop\n      jump\t// out\n        /* \"#utility.yul\":4606:4760   */\n    tag_37:\n        /* \"#utility.yul\":4746:4752   */\n      0x6c69736900000000000000000000000000000000000000000000000000000000\n        /* \"#utility.yul\":4742:4743   */\n      0x00\n        /* \"#utility.yul\":4734:4740   */\n      dup3\n        /* \"#utility.yul\":4730:4744   */\n      add\n        /* \"#utility.yul\":4723:4753   */\n      mstore\n        /* \"#utility.yul\":4606:4760   */\n      pop\n      jump\t// out\n        /* \"#utility.yul\":4766:5166   */\n    tag_38:\n        /* \"#utility.yul\":4926:4929   */\n      0x00\n        /* \"#utility.yul\":4947:5031   */\n      tag_94\n        /* \"#utility.yul\":5029:5030   */\n      0x04\n        /* \"#utility.yul\":5024:5027   */\n      dup4\n        /* \"#utility.yul\":4947:5031   */\n      tag_34\n      jump\t// in\n    tag_94:\n        /* \"#utility.yul\":4940:5031   */\n      swap2\n      pop\n        /* \"#utility.yul\":5040:5133   */\n      tag_95\n        /* \"#utility.yul\":5129:5132   */\n      dup3\n        /* \"#utility.yul\":5040:5133   */\n      tag_37\n      jump\t// in\n    tag_95:\n        /* \"#utility.yul\":5158:5159   */\n      0x04\n        /* \"#utility.yul\":5153:5156   */\n      dup3\n        /* \"#utility.yul\":5149:5160   */\n      add\n        /* \"#utility.yul\":5142:5160   */\n      swap1\n      pop\n        /* \"#utility.yul\":4766:5166   */\n      swap2\n      swap1\n      pop\n      jump\t// out\n        /* \"#utility.yul\":5172:5553   */\n    tag_14:\n        /* \"#utility.yul\":5357:5360   */\n      0x00\n        /* \"#utility.yul\":5379:5527   */\n      tag_97\n        /* \"#utility.yul\":5523:5526   */\n      dup3\n        /* \"#utility.yul\":5379:5527   */\n      tag_38\n      jump\t// in\n    tag_97:\n        /* \"#utility.yul\":5372:5527   */\n      swap2\n      pop\n        /* \"#utility.yul\":5544:5547   */\n      dup2\n        /* \"#utility.yul\":5537:5547   */\n      swap1\n      pop\n        /* \"#utility.yul\":5172:5553   */\n      swap2\n      swap1\n      pop\n      jump\t// out\n        /* \"#utility.yul\":5559:5715   */\n    tag_39:\n        /* \"#utility.yul\":5699:5707   */\n      0x77616e6777750000000000000000000000000000000000000000000000000000\n        /* \"#utility.yul\":5695:5696   */\n      0x00\n        /* \"#utility.yul\":5687:5693   */\n      dup3\n        /* \"#utility.yul\":5683:5697   */\n      add\n        /* \"#utility.yul\":5676:5708   */\n      mstore\n        /* \"#utility.yul\":5559:5715   */\n      pop\n      jump\t// out\n        /* \"#utility.yul\":5721:6121   */\n    tag_40:\n        /* \"#utility.yul\":5881:5884   */\n      0x00\n        /* \"#utility.yul\":5902:5986   */\n      tag_100\n        /* \"#utility.yul\":5984:5985   */\n      0x06\n        /* \"#utility.yul\":5979:5982   */\n      dup4\n        /* \"#utility.yul\":5902:5986   */\n      tag_34\n      jump\t// in\n    tag_100:\n        /* \"#utility.yul\":5895:5986   */\n      swap2\n      pop\n        /* \"#utility.yul\":5995:6088   */\n      tag_101\n        /* \"#utility.yul\":6084:6087   */\n      dup3\n        /* \"#utility.yul\":5995:6088   */\n      tag_39\n      jump\t// in\n    tag_101:\n        /* \"#utility.yul\":6113:6114   */\n      0x06\n        /* \"#utility.yul\":6108:6111   */\n      dup3\n        /* \"#utility.yul\":6104:6115   */\n      add\n        /* \"#utility.yul\":6097:6115   */\n      swap1\n      pop\n        /* \"#utility.yul\":5721:6121   */\n      swap2\n      swap1\n      pop\n      jump\t// out\n        /* \"#utility.yul\":6127:6508   */\n    tag_16:\n        /* \"#utility.yul\":6312:6315   */\n      0x00\n        /* \"#utility.yul\":6334:6482   */\n      tag_103\n        /* \"#utility.yul\":6478:6481   */\n      dup3\n        /* \"#utility.yul\":6334:6482   */\n      tag_40\n      jump\t// in\n    tag_103:\n        /* \"#utility.yul\":6327:6482   */\n      swap2\n      pop\n        /* \"#utility.yul\":6499:6502   */\n      dup2\n        /* \"#utility.yul\":6492:6502   */\n      swap1\n      pop\n        /* \"#utility.yul\":6127:6508   */\n      swap2\n      swap1\n      pop\n      jump\t// out\n        /* \"#utility.yul\":6514:6613   */\n    tag_41:\n        /* \"#utility.yul\":6566:6572   */\n      0x00\n        /* \"#utility.yul\":6600:6605   */\n      dup2\n        /* \"#utility.yul\":6594:6606   */\n      mload\n        /* \"#utility.yul\":6584:6606   */\n      swap1\n      pop\n        /* \"#utility.yul\":6514:6613   */\n      swap2\n      swap1\n      pop\n      jump\t// out\n        /* \"#utility.yul\":6619:6865   */\n    tag_42:\n        /* \"#utility.yul\":6700:6701   */\n      0x00\n        /* \"#utility.yul\":6710:6823   */\n    tag_106:\n        /* \"#utility.yul\":6724:6730   */\n      dup4\n        /* \"#utility.yul\":6721:6722   */\n      dup2\n        /* \"#utility.yul\":6718:6731   */\n      lt\n        /* \"#utility.yul\":6710:6823   */\n      iszero\n      tag_108\n      jumpi\n        /* \"#utility.yul\":6809:6810   */\n      dup1\n        /* \"#utility.yul\":6804:6807   */\n      dup3\n        /* \"#utility.yul\":6800:6811   */\n      add\n        /* \"#utility.yul\":6794:6812   */\n      mload\n        /* \"#utility.yul\":6790:6791   */\n      dup2\n        /* \"#utility.yul\":6785:6788   */\n      dup5\n        /* \"#utility.yul\":6781:6792   */\n      add\n        /* \"#utility.yul\":6774:6813   */\n      mstore\n        /* \"#utility.yul\":6746:6748   */\n      0x20\n        /* \"#utility.yul\":6743:6744   */\n      dup2\n        /* \"#utility.yul\":6739:6749   */\n      add\n        /* \"#utility.yul\":6734:6749   */\n      swap1\n      pop\n        /* \"#utility.yul\":6710:6823   */\n      jump(tag_106)\n    tag_108:\n        /* \"#utility.yul\":6857:6858   */\n      0x00\n        /* \"#utility.yul\":6848:6854   */\n      dup5\n        /* \"#utility.yul\":6843:6846   */\n      dup5\n        /* \"#utility.yul\":6839:6855   */\n      add\n        /* \"#utility.yul\":6832:6859   */\n      mstore\n        /* \"#utility.yul\":6681:6865   */\n      pop\n        /* \"#utility.yul\":6619:6865   */\n      pop\n      pop\n      pop\n      jump\t// out\n        /* \"#utility.yul\":6871:7261   */\n    tag_43:\n        /* \"#utility.yul\":6977:6980   */\n      0x00\n        /* \"#utility.yul\":7005:7044   */\n      tag_110\n        /* \"#utility.yul\":7038:7043   */\n      dup3\n        /* \"#utility.yul\":7005:7044   */\n      tag_41\n      jump\t// in\n    tag_110:\n        /* \"#utility.yul\":7060:7149   */\n      tag_111\n        /* \"#utility.yul\":7142:7148   */\n      dup2\n        /* \"#utility.yul\":7137:7140   */\n      dup6\n        /* \"#utility.yul\":7060:7149   */\n      tag_34\n      jump\t// in\n    tag_111:\n        /* \"#utility.yul\":7053:7149   */\n      swap4\n      pop\n        /* \"#utility.yul\":7158:7223   */\n      tag_112\n        /* \"#utility.yul\":7216:7222   */\n      dup2\n        /* \"#utility.yul\":7211:7214   */\n      dup6\n        /* \"#utility.yul\":7204:7208   */\n      0x20\n        /* \"#utility.yul\":7197:7202   */\n      dup7\n        /* \"#utility.yul\":7193:7209   */\n      add\n        /* \"#utility.yul\":7158:7223   */\n      tag_42\n      jump\t// in\n    tag_112:\n        /* \"#utility.yul\":7248:7254   */\n      dup1\n        /* \"#utility.yul\":7243:7246   */\n      dup5\n        /* \"#utility.yul\":7239:7255   */\n      add\n        /* \"#utility.yul\":7232:7255   */\n      swap2\n      pop\n        /* \"#utility.yul\":6981:7261   */\n      pop\n        /* \"#utility.yul\":6871:7261   */\n      swap3\n      swap2\n      pop\n      pop\n      jump\t// out\n        /* \"#utility.yul\":7267:7542   */\n    tag_18:\n        /* \"#utility.yul\":7399:7402   */\n      0x00\n        /* \"#utility.yul\":7421:7516   */\n      tag_114\n        /* \"#utility.yul\":7512:7515   */\n      dup3\n        /* \"#utility.yul\":7503:7509   */\n      dup5\n        /* \"#utility.yul\":7421:7516   */\n      tag_43\n      jump\t// in\n    tag_114:\n        /* \"#utility.yul\":7414:7516   */\n      swap2\n      pop\n        /* \"#utility.yul\":7533:7536   */\n      dup2\n        /* \"#utility.yul\":7526:7536   */\n      swap1\n      pop\n        /* \"#utility.yul\":7267:7542   */\n      swap3\n      swap2\n      pop\n      pop\n      jump\t// out\n\n    auxdata: 0xa2646970667358221220535daa6d927b7d23860f63bd8290aaa17e693415ce97a8af6c2ac5f617608d5a64736f6c63430008160033\n}\n",
				"bytecode": {
					"linkReferences": {},
					"object": "608060405234801561000f575f80fd5b506104c58061001d5f395ff3fe608060405234801561000f575f80fd5b5060043610610029575f3560e01c8063346ec45f1461002d575b5f80fd5b61004760048036038101906100429190610279565b61005d565b60405161005491906102da565b60405180910390f35b5f60015f60405161006d90610347565b90815260200160405180910390205f6101000a81548160ff02191690831515021790555060015f6040516100a0906103a5565b90815260200160405180910390205f6101000a81548160ff0219169083151502179055505f806040516100d290610403565b90815260200160405180910390205f6101000a81548160ff0219169083151502179055505f80836040516101069190610479565b90815260200160405180910390205f9054906101000a900460ff16905080915050919050565b5f604051905090565b5f80fd5b5f80fd5b5f80fd5b5f80fd5b5f601f19601f8301169050919050565b7f4e487b71000000000000000000000000000000000000000000000000000000005f52604160045260245ffd5b61018b82610145565b810181811067ffffffffffffffff821117156101aa576101a9610155565b5b80604052505050565b5f6101bc61012c565b90506101c88282610182565b919050565b5f67ffffffffffffffff8211156101e7576101e6610155565b5b6101f082610145565b9050602081019050919050565b828183375f83830152505050565b5f61021d610218846101cd565b6101b3565b90508281526020810184848401111561023957610238610141565b5b6102448482856101fd565b509392505050565b5f82601f8301126102605761025f61013d565b5b813561027084826020860161020b565b91505092915050565b5f6020828403121561028e5761028d610135565b5b5f82013567ffffffffffffffff8111156102ab576102aa610139565b5b6102b78482850161024c565b91505092915050565b5f8115159050919050565b6102d4816102c0565b82525050565b5f6020820190506102ed5f8301846102cb565b92915050565b5f81905092915050565b7f7a68616e6773616e0000000000000000000000000000000000000000000000005f82015250565b5f6103316008836102f3565b915061033c826102fd565b600882019050919050565b5f61035182610325565b9150819050919050565b7f6c697369000000000000000000000000000000000000000000000000000000005f82015250565b5f61038f6004836102f3565b915061039a8261035b565b600482019050919050565b5f6103af82610383565b9150819050919050565b7f77616e67777500000000000000000000000000000000000000000000000000005f82015250565b5f6103ed6006836102f3565b91506103f8826103b9565b600682019050919050565b5f61040d826103e1565b9150819050919050565b5f81519050919050565b5f5b8381101561043e578082015181840152602081019050610423565b5f8484015250505050565b5f61045382610417565b61045d81856102f3565b935061046d818560208601610421565b80840191505092915050565b5f6104848284610449565b91508190509291505056fea2646970667358221220535daa6d927b7d23860f63bd8290aaa17e693415ce97a8af6c2ac5f617608d5a64736f6c63430008160033",
					"opcodes": "PUSH1 0x80 PUSH1 0x40 MSTORE CALLVALUE DUP1 ISZERO PUSH2 0xF JUMPI PUSH0 DUP1 REVERT JUMPDEST POP PUSH2 0x4C5 DUP1 PUSH2 0x1D PUSH0 CODECOPY PUSH0 RETURN INVALID PUSH1 0x80 PUSH1 0x40 MSTORE CALLVALUE DUP1 ISZERO PUSH2 0xF JUMPI PUSH0 DUP1 REVERT JUMPDEST POP PUSH1 0x4 CALLDATASIZE LT PUSH2 0x29 JUMPI PUSH0 CALLDATALOAD PUSH1 0xE0 SHR DUP1 PUSH4 0x346EC45F EQ PUSH2 0x2D JUMPI JUMPDEST PUSH0 DUP1 REVERT JUMPDEST PUSH2 0x47 PUSH1 0x4 DUP1 CALLDATASIZE SUB DUP2 ADD SWAP1 PUSH2 0x42 SWAP2 SWAP1 PUSH2 0x279 JUMP JUMPDEST PUSH2 0x5D JUMP JUMPDEST PUSH1 0x40 MLOAD PUSH2 0x54 SWAP2 SWAP1 PUSH2 0x2DA JUMP JUMPDEST PUSH1 0x40 MLOAD DUP1 SWAP2 SUB SWAP1 RETURN JUMPDEST PUSH0 PUSH1 0x1 PUSH0 PUSH1 0x40 MLOAD PUSH2 0x6D SWAP1 PUSH2 0x347 JUMP JUMPDEST SWAP1 DUP2 MSTORE PUSH1 0x20 ADD PUSH1 0x40 MLOAD DUP1 SWAP2 SUB SWAP1 KECCAK256 PUSH0 PUSH2 0x100 EXP DUP2 SLOAD DUP2 PUSH1 0xFF MUL NOT AND SWAP1 DUP4 ISZERO ISZERO MUL OR SWAP1 SSTORE POP PUSH1 0x1 PUSH0 PUSH1 0x40 MLOAD PUSH2 0xA0 SWAP1 PUSH2 0x3A5 JUMP JUMPDEST SWAP1 DUP2 MSTORE PUSH1 0x20 ADD PUSH1 0x40 MLOAD DUP1 SWAP2 SUB SWAP1 KECCAK256 PUSH0 PUSH2 0x100 EXP DUP2 SLOAD DUP2 PUSH1 0xFF MUL NOT AND SWAP1 DUP4 ISZERO ISZERO MUL OR SWAP1 SSTORE POP PUSH0 DUP1 PUSH1 0x40 MLOAD PUSH2 0xD2 SWAP1 PUSH2 0x403 JUMP JUMPDEST SWAP1 DUP2 MSTORE PUSH1 0x20 ADD PUSH1 0x40 MLOAD DUP1 SWAP2 SUB SWAP1 KECCAK256 PUSH0 PUSH2 0x100 EXP DUP2 SLOAD DUP2 PUSH1 0xFF MUL NOT AND SWAP1 DUP4 ISZERO ISZERO MUL OR SWAP1 SSTORE POP PUSH0 DUP1 DUP4 PUSH1 0x40 MLOAD PUSH2 0x106 SWAP2 SWAP1 PUSH2 0x479 JUMP JUMPDEST SWAP1 DUP2 MSTORE PUSH1 0x20 ADD PUSH1 0x40 MLOAD DUP1 SWAP2 SUB SWAP1 KECCAK256 PUSH0 SWAP1 SLOAD SWAP1 PUSH2 0x100 EXP SWAP1 DIV PUSH1 0xFF AND SWAP1 POP DUP1 SWAP2 POP POP SWAP2 SWAP1 POP JUMP JUMPDEST PUSH0 PUSH1 0x40 MLOAD SWAP1 POP SWAP1 JUMP JUMPDEST PUSH0 DUP1 REVERT JUMPDEST PUSH0 DUP1 REVERT JUMPDEST PUSH0 DUP1 REVERT JUMPDEST PUSH0 DUP1 REVERT JUMPDEST PUSH0 PUSH1 0x1F NOT PUSH1 0x1F DUP4 ADD AND SWAP1 POP SWAP2 SWAP1 POP JUMP JUMPDEST PUSH32 0x4E487B7100000000000000000000000000000000000000000000000000000000 PUSH0 MSTORE PUSH1 0x41 PUSH1 0x4 MSTORE PUSH1 0x24 PUSH0 REVERT JUMPDEST PUSH2 0x18B DUP3 PUSH2 0x145 JUMP JUMPDEST DUP2 ADD DUP2 DUP2 LT PUSH8 0xFFFFFFFFFFFFFFFF DUP3 GT OR ISZERO PUSH2 0x1AA JUMPI PUSH2 0x1A9 PUSH2 0x155 JUMP JUMPDEST JUMPDEST DUP1 PUSH1 0x40 MSTORE POP POP POP JUMP JUMPDEST PUSH0 PUSH2 0x1BC PUSH2 0x12C JUMP JUMPDEST SWAP1 POP PUSH2 0x1C8 DUP3 DUP3 PUSH2 0x182 JUMP JUMPDEST SWAP2 SWAP1 POP JUMP JUMPDEST PUSH0 PUSH8 0xFFFFFFFFFFFFFFFF DUP3 GT ISZERO PUSH2 0x1E7 JUMPI PUSH2 0x1E6 PUSH2 0x155 JUMP JUMPDEST JUMPDEST PUSH2 0x1F0 DUP3 PUSH2 0x145 JUMP JUMPDEST SWAP1 POP PUSH1 0x20 DUP2 ADD SWAP1 POP SWAP2 SWAP1 POP JUMP JUMPDEST DUP3 DUP2 DUP4 CALLDATACOPY PUSH0 DUP4 DUP4 ADD MSTORE POP POP POP JUMP JUMPDEST PUSH0 PUSH2 0x21D PUSH2 0x218 DUP5 PUSH2 0x1CD JUMP JUMPDEST PUSH2 0x1B3 JUMP JUMPDEST SWAP1 POP DUP3 DUP2 MSTORE PUSH1 0x20 DUP2 ADD DUP5 DUP5 DUP5 ADD GT ISZERO PUSH2 0x239 JUMPI PUSH2 0x238 PUSH2 0x141 JUMP JUMPDEST JUMPDEST PUSH2 0x244 DUP5 DUP3 DUP6 PUSH2 0x1FD JUMP JUMPDEST POP SWAP4 SWAP3 POP POP POP JUMP JUMPDEST PUSH0 DUP3 PUSH1 0x1F DUP4 ADD SLT PUSH2 0x260 JUMPI PUSH2 0x25F PUSH2 0x13D JUMP JUMPDEST JUMPDEST DUP2 CALLDATALOAD PUSH2 0x270 DUP5 DUP3 PUSH1 0x20 DUP7 ADD PUSH2 0x20B JUMP JUMPDEST SWAP2 POP POP SWAP3 SWAP2 POP POP JUMP JUMPDEST PUSH0 PUSH1 0x20 DUP3 DUP5 SUB SLT ISZERO PUSH2 0x28E JUMPI PUSH2 0x28D PUSH2 0x135 JUMP JUMPDEST JUMPDEST PUSH0 DUP3 ADD CALLDATALOAD PUSH8 0xFFFFFFFFFFFFFFFF DUP2 GT ISZERO PUSH2 0x2AB JUMPI PUSH2 0x2AA PUSH2 0x139 JUMP JUMPDEST JUMPDEST PUSH2 0x2B7 DUP5 DUP3 DUP6 ADD PUSH2 0x24C JUMP JUMPDEST SWAP2 POP POP SWAP3 SWAP2 POP POP JUMP JUMPDEST PUSH0 DUP2 ISZERO ISZERO SWAP1 POP SWAP2 SWAP1 POP JUMP JUMPDEST PUSH2 0x2D4 DUP2 PUSH2 0x2C0 JUMP JUMPDEST DUP3 MSTORE POP POP JUMP JUMPDEST PUSH0 PUSH1 0x20 DUP3 ADD SWAP1 POP PUSH2 0x2ED PUSH0 DUP4 ADD DUP5 PUSH2 0x2CB JUMP JUMPDEST SWAP3 SWAP2 POP POP JUMP JUMPDEST PUSH0 DUP2 SWAP1 POP SWAP3 SWAP2 POP POP JUMP JUMPDEST PUSH32 0x7A68616E6773616E000000000000000000000000000000000000000000000000 PUSH0 DUP3 ADD MSTORE POP JUMP JUMPDEST PUSH0 PUSH2 0x331 PUSH1 0x8 DUP4 PUSH2 0x2F3 JUMP JUMPDEST SWAP2 POP PUSH2 0x33C DUP3 PUSH2 0x2FD JUMP JUMPDEST PUSH1 0x8 DUP3 ADD SWAP1 POP SWAP2 SWAP1 POP JUMP JUMPDEST PUSH0 PUSH2 0x351 DUP3 PUSH2 0x325 JUMP JUMPDEST SWAP2 POP DUP2 SWAP1 POP SWAP2 SWAP1 POP JUMP JUMPDEST PUSH32 0x6C69736900000000000000000000000000000000000000000000000000000000 PUSH0 DUP3 ADD MSTORE POP JUMP JUMPDEST PUSH0 PUSH2 0x38F PUSH1 0x4 DUP4 PUSH2 0x2F3 JUMP JUMPDEST SWAP2 POP PUSH2 0x39A DUP3 PUSH2 0x35B JUMP JUMPDEST PUSH1 0x4 DUP3 ADD SWAP1 POP SWAP2 SWAP1 POP JUMP JUMPDEST PUSH0 PUSH2 0x3AF DUP3 PUSH2 0x383 JUMP JUMPDEST SWAP2 POP DUP2 SWAP1 POP SWAP2 SWAP1 POP JUMP JUMPDEST PUSH32 0x77616E6777750000000000000000000000000000000000000000000000000000 PUSH0 DUP3 ADD MSTORE POP JUMP JUMPDEST PUSH0 PUSH2 0x3ED PUSH1 0x6 DUP4 PUSH2 0x2F3 JUMP JUMPDEST SWAP2 POP PUSH2 0x3F8 DUP3 PUSH2 0x3B9 JUMP JUMPDEST PUSH1 0x6 DUP3 ADD SWAP1 POP SWAP2 SWAP1 POP JUMP JUMPDEST PUSH0 PUSH2 0x40D DUP3 PUSH2 0x3E1 JUMP JUMPDEST SWAP2 POP DUP2 SWAP1 POP SWAP2 SWAP1 POP JUMP JUMPDEST PUSH0 DUP2 MLOAD SWAP1 POP SWAP2 SWAP1 POP JUMP JUMPDEST PUSH0 JUMPDEST DUP4 DUP2 LT ISZERO PUSH2 0x43E JUMPI DUP1 DUP3 ADD MLOAD DUP2 DUP5 ADD MSTORE PUSH1 0x20 DUP2 ADD SWAP1 POP PUSH2 0x423 JUMP JUMPDEST PUSH0 DUP5 DUP5 ADD MSTORE POP POP POP POP JUMP JUMPDEST PUSH0 PUSH2 0x453 DUP3 PUSH2 0x417 JUMP JUMPDEST PUSH2 0x45D DUP2 DUP6 PUSH2 0x2F3 JUMP JUMPDEST SWAP4 POP PUSH2 0x46D DUP2 DUP6 PUSH1 0x20 DUP7 ADD PUSH2 0x421 JUMP JUMPDEST DUP1 DUP5 ADD SWAP2 POP POP SWAP3 SWAP2 POP POP JUMP JUMPDEST PUSH0 PUSH2 0x484 DUP3 DUP5 PUSH2 0x449 JUMP JUMPDEST SWAP2 POP DUP2 SWAP1 POP SWAP3 SWAP2 POP POP JUMP INVALID LOG2 PUSH5 0x6970667358 0x22 SLT KECCAK256 MSTORE8 0x5D 0xAA PUSH14 0x927B7D23860F63BD8290AAA17E69 CALLVALUE ISZERO 0xCE SWAP8 0xA8 0xAF PUSH13 0x2AC5F617608D5A64736F6C6343 STOP ADDMOD AND STOP CALLER "
				},
				"gasEstimates": {
					"creation": {
						"codeDepositCost": "244200",
						"executionCost": "285",
						"totalCost": "244485"
					},
					"external": {
						"exapple1(string)": "infinite"
					}
				},
				"methodIdentifiers": {
					"exapple1(string)": "346ec45f"
				}
			},
			"storageLayout": {
				"storage": [
					{
						"astId": 5,
						"contract": "contract/Mapping常用方法.sol:MyMapping",
						"label": "map",
						"offset": 0,
						"slot": "0",
						"type": "t_mapping(t_string_memory_ptr,t_bool)"
					}
				],
				"types": {
					"t_bool": {
						"encoding": "inplace",
						"label": "bool",
						"numberOfBytes": "1"
					},
					"t_mapping(t_string_memory_ptr,t_bool)": {
						"encoding": "mapping",
						"key": "t_string_memory_ptr",
						"label": "mapping(string => bool)",
						"numberOfBytes": "32",
						"value": "t_bool"
					},
					"t_string_memory_ptr": {
						"encoding": "bytes",
						"label": "string",
						"numberOfBytes": "32"
					}
				}
			},
			"userdoc": {
				"kind": "user",
				"methods": {},
				"version": 1
			}
		}
	}
}