{
	"contract/自毁合约.sol": {
		"SelfDestructExample": {
			"abi": [
				{
					"inputs": [],
					"stateMutability": "nonpayable",
					"type": "constructor"
				},
				{
					"inputs": [],
					"name": "destroy",
					"outputs": [],
					"stateMutability": "nonpayable",
					"type": "function"
				},
				{
					"inputs": [],
					"name": "owner",
					"outputs": [
						{
							"internalType": "address payable",
							"name": "",
							"type": "address"
						}
					],
					"stateMutability": "view",
					"type": "function"
				}
			],
			"devdoc": {
				"kind": "dev",
				"methods": {},
				"version": 1
			},
			"evm": {
				"assembly": "    /* \"contract/\\xe8\\x87\\xaa\\xe6\\xaf\\x81\\xe5\\x90\\x88\\xe7\\xba\\xa6.sol\":60:475  contract SelfDestructExample {... */\n  mstore(0x40, 0x80)\n    /* \"contract/\\xe8\\x87\\xaa\\xe6\\xaf\\x81\\xe5\\x90\\x88\\xe7\\xba\\xa6.sol\":133:240  constructor() {... */\n  callvalue\n  dup1\n  iszero\n  tag_1\n  jumpi\n  0x00\n  dup1\n  revert\ntag_1:\n  pop\n    /* \"contract/\\xe8\\x87\\xaa\\xe6\\xaf\\x81\\xe5\\x90\\x88\\xe7\\xba\\xa6.sol\":221:231  msg.sender */\n  caller\n    /* \"contract/\\xe8\\x87\\xaa\\xe6\\xaf\\x81\\xe5\\x90\\x88\\xe7\\xba\\xa6.sol\":205:210  owner */\n  0x00\n  dup1\n    /* \"contract/\\xe8\\x87\\xaa\\xe6\\xaf\\x81\\xe5\\x90\\x88\\xe7\\xba\\xa6.sol\":205:232  owner = payable(msg.sender) */\n  0x0100\n  exp\n  dup2\n  sload\n  dup2\n  0xffffffffffffffffffffffffffffffffffffffff\n  mul\n  not\n  and\n  swap1\n  dup4\n  0xffffffffffffffffffffffffffffffffffffffff\n  and\n  mul\n  or\n  swap1\n  sstore\n  pop\n    /* \"contract/\\xe8\\x87\\xaa\\xe6\\xaf\\x81\\xe5\\x90\\x88\\xe7\\xba\\xa6.sol\":60:475  contract SelfDestructExample {... */\n  dataSize(sub_0)\n  dup1\n  dataOffset(sub_0)\n  0x00\n  codecopy\n  0x00\n  return\nstop\n\nsub_0: assembly {\n        /* \"contract/\\xe8\\x87\\xaa\\xe6\\xaf\\x81\\xe5\\x90\\x88\\xe7\\xba\\xa6.sol\":60:475  contract SelfDestructExample {... */\n      mstore(0x40, 0x80)\n      callvalue\n      dup1\n      iszero\n      tag_1\n      jumpi\n      0x00\n      dup1\n      revert\n    tag_1:\n      pop\n      jumpi(tag_2, lt(calldatasize, 0x04))\n      shr(0xe0, calldataload(0x00))\n      dup1\n      0x83197ef0\n      eq\n      tag_3\n      jumpi\n      dup1\n      0x8da5cb5b\n      eq\n      tag_4\n      jumpi\n    tag_2:\n      0x00\n      dup1\n      revert\n        /* \"contract/\\xe8\\x87\\xaa\\xe6\\xaf\\x81\\xe5\\x90\\x88\\xe7\\xba\\xa6.sol\":322:470  function destroy() external {... */\n    tag_3:\n      tag_5\n      tag_6\n      jump\t// in\n    tag_5:\n      stop\n        /* \"contract/\\xe8\\x87\\xaa\\xe6\\xaf\\x81\\xe5\\x90\\x88\\xe7\\xba\\xa6.sol\":96:124  address payable public owner */\n    tag_4:\n      tag_7\n      tag_8\n      jump\t// in\n    tag_7:\n      mload(0x40)\n      tag_9\n      swap2\n      swap1\n      tag_10\n      jump\t// in\n    tag_9:\n      mload(0x40)\n      dup1\n      swap2\n      sub\n      swap1\n      return\n        /* \"contract/\\xe8\\x87\\xaa\\xe6\\xaf\\x81\\xe5\\x90\\x88\\xe7\\xba\\xa6.sol\":322:470  function destroy() external {... */\n    tag_6:\n        /* \"contract/\\xe8\\x87\\xaa\\xe6\\xaf\\x81\\xe5\\x90\\x88\\xe7\\xba\\xa6.sol\":383:388  owner */\n      0x00\n      dup1\n      sload\n      swap1\n      0x0100\n      exp\n      swap1\n      div\n      0xffffffffffffffffffffffffffffffffffffffff\n      and\n        /* \"contract/\\xe8\\x87\\xaa\\xe6\\xaf\\x81\\xe5\\x90\\x88\\xe7\\xba\\xa6.sol\":369:388  msg.sender == owner */\n      0xffffffffffffffffffffffffffffffffffffffff\n      and\n        /* \"contract/\\xe8\\x87\\xaa\\xe6\\xaf\\x81\\xe5\\x90\\x88\\xe7\\xba\\xa6.sol\":369:379  msg.sender */\n      caller\n        /* \"contract/\\xe8\\x87\\xaa\\xe6\\xaf\\x81\\xe5\\x90\\x88\\xe7\\xba\\xa6.sol\":369:388  msg.sender == owner */\n      0xffffffffffffffffffffffffffffffffffffffff\n      and\n      eq\n        /* \"contract/\\xe8\\x87\\xaa\\xe6\\xaf\\x81\\xe5\\x90\\x88\\xe7\\xba\\xa6.sol\":361:432  require(msg.sender == owner, \"Only the owner can destroy the contract\") */\n      tag_12\n      jumpi\n      mload(0x40)\n      0x08c379a000000000000000000000000000000000000000000000000000000000\n      dup2\n      mstore\n      0x04\n      add\n      tag_13\n      swap1\n      tag_14\n      jump\t// in\n    tag_13:\n      mload(0x40)\n      dup1\n      swap2\n      sub\n      swap1\n      revert\n    tag_12:\n        /* \"contract/\\xe8\\x87\\xaa\\xe6\\xaf\\x81\\xe5\\x90\\x88\\xe7\\xba\\xa6.sol\":456:461  owner */\n      0x00\n      dup1\n      sload\n      swap1\n      0x0100\n      exp\n      swap1\n      div\n      0xffffffffffffffffffffffffffffffffffffffff\n      and\n        /* \"contract/\\xe8\\x87\\xaa\\xe6\\xaf\\x81\\xe5\\x90\\x88\\xe7\\xba\\xa6.sol\":443:462  selfdestruct(owner) */\n      0xffffffffffffffffffffffffffffffffffffffff\n      and\n      selfdestruct\n        /* \"contract/\\xe8\\x87\\xaa\\xe6\\xaf\\x81\\xe5\\x90\\x88\\xe7\\xba\\xa6.sol\":96:124  address payable public owner */\n    tag_8:\n      0x00\n      dup1\n      sload\n      swap1\n      0x0100\n      exp\n      swap1\n      div\n      0xffffffffffffffffffffffffffffffffffffffff\n      and\n      dup2\n      jump\t// out\n        /* \"#utility.yul\":7:133   */\n    tag_15:\n        /* \"#utility.yul\":44:51   */\n      0x00\n        /* \"#utility.yul\":84:126   */\n      0xffffffffffffffffffffffffffffffffffffffff\n        /* \"#utility.yul\":77:82   */\n      dup3\n        /* \"#utility.yul\":73:127   */\n      and\n        /* \"#utility.yul\":62:127   */\n      swap1\n      pop\n        /* \"#utility.yul\":7:133   */\n      swap2\n      swap1\n      pop\n      jump\t// out\n        /* \"#utility.yul\":139:243   */\n    tag_16:\n        /* \"#utility.yul\":184:191   */\n      0x00\n        /* \"#utility.yul\":213:237   */\n      tag_24\n        /* \"#utility.yul\":231:236   */\n      dup3\n        /* \"#utility.yul\":213:237   */\n      tag_15\n      jump\t// in\n    tag_24:\n        /* \"#utility.yul\":202:237   */\n      swap1\n      pop\n        /* \"#utility.yul\":139:243   */\n      swap2\n      swap1\n      pop\n      jump\t// out\n        /* \"#utility.yul\":249:391   */\n    tag_17:\n        /* \"#utility.yul\":352:384   */\n      tag_26\n        /* \"#utility.yul\":378:383   */\n      dup2\n        /* \"#utility.yul\":352:384   */\n      tag_16\n      jump\t// in\n    tag_26:\n        /* \"#utility.yul\":347:350   */\n      dup3\n        /* \"#utility.yul\":340:385   */\n      mstore\n        /* \"#utility.yul\":249:391   */\n      pop\n      pop\n      jump\t// out\n        /* \"#utility.yul\":397:651   */\n    tag_10:\n        /* \"#utility.yul\":506:510   */\n      0x00\n        /* \"#utility.yul\":544:546   */\n      0x20\n        /* \"#utility.yul\":533:542   */\n      dup3\n        /* \"#utility.yul\":529:547   */\n      add\n        /* \"#utility.yul\":521:547   */\n      swap1\n      pop\n        /* \"#utility.yul\":557:644   */\n      tag_28\n        /* \"#utility.yul\":641:642   */\n      0x00\n        /* \"#utility.yul\":630:639   */\n      dup4\n        /* \"#utility.yul\":626:643   */\n      add\n        /* \"#utility.yul\":617:623   */\n      dup5\n        /* \"#utility.yul\":557:644   */\n      tag_17\n      jump\t// in\n    tag_28:\n        /* \"#utility.yul\":397:651   */\n      swap3\n      swap2\n      pop\n      pop\n      jump\t// out\n        /* \"#utility.yul\":657:826   */\n    tag_18:\n        /* \"#utility.yul\":741:752   */\n      0x00\n        /* \"#utility.yul\":775:781   */\n      dup3\n        /* \"#utility.yul\":770:773   */\n      dup3\n        /* \"#utility.yul\":763:782   */\n      mstore\n        /* \"#utility.yul\":815:819   */\n      0x20\n        /* \"#utility.yul\":810:813   */\n      dup3\n        /* \"#utility.yul\":806:820   */\n      add\n        /* \"#utility.yul\":791:820   */\n      swap1\n      pop\n        /* \"#utility.yul\":657:826   */\n      swap3\n      swap2\n      pop\n      pop\n      jump\t// out\n        /* \"#utility.yul\":832:1058   */\n    tag_19:\n        /* \"#utility.yul\":972:1006   */\n      0x4f6e6c7920746865206f776e65722063616e2064657374726f79207468652063\n        /* \"#utility.yul\":968:969   */\n      0x00\n        /* \"#utility.yul\":960:966   */\n      dup3\n        /* \"#utility.yul\":956:970   */\n      add\n        /* \"#utility.yul\":949:1007   */\n      mstore\n        /* \"#utility.yul\":1041:1050   */\n      0x6f6e747261637400000000000000000000000000000000000000000000000000\n        /* \"#utility.yul\":1036:1038   */\n      0x20\n        /* \"#utility.yul\":1028:1034   */\n      dup3\n        /* \"#utility.yul\":1024:1039   */\n      add\n        /* \"#utility.yul\":1017:1051   */\n      mstore\n        /* \"#utility.yul\":832:1058   */\n      pop\n      jump\t// out\n        /* \"#utility.yul\":1064:1430   */\n    tag_20:\n        /* \"#utility.yul\":1206:1209   */\n      0x00\n        /* \"#utility.yul\":1227:1294   */\n      tag_32\n        /* \"#utility.yul\":1291:1293   */\n      0x27\n        /* \"#utility.yul\":1286:1289   */\n      dup4\n        /* \"#utility.yul\":1227:1294   */\n      tag_18\n      jump\t// in\n    tag_32:\n        /* \"#utility.yul\":1220:1294   */\n      swap2\n      pop\n        /* \"#utility.yul\":1303:1396   */\n      tag_33\n        /* \"#utility.yul\":1392:1395   */\n      dup3\n        /* \"#utility.yul\":1303:1396   */\n      tag_19\n      jump\t// in\n    tag_33:\n        /* \"#utility.yul\":1421:1423   */\n      0x40\n        /* \"#utility.yul\":1416:1419   */\n      dup3\n        /* \"#utility.yul\":1412:1424   */\n      add\n        /* \"#utility.yul\":1405:1424   */\n      swap1\n      pop\n        /* \"#utility.yul\":1064:1430   */\n      swap2\n      swap1\n      pop\n      jump\t// out\n        /* \"#utility.yul\":1436:1855   */\n    tag_14:\n        /* \"#utility.yul\":1602:1606   */\n      0x00\n        /* \"#utility.yul\":1640:1642   */\n      0x20\n        /* \"#utility.yul\":1629:1638   */\n      dup3\n        /* \"#utility.yul\":1625:1643   */\n      add\n        /* \"#utility.yul\":1617:1643   */\n      swap1\n      pop\n        /* \"#utility.yul\":1689:1698   */\n      dup2\n        /* \"#utility.yul\":1683:1687   */\n      dup2\n        /* \"#utility.yul\":1679:1699   */\n      sub\n        /* \"#utility.yul\":1675:1676   */\n      0x00\n        /* \"#utility.yul\":1664:1673   */\n      dup4\n        /* \"#utility.yul\":1660:1677   */\n      add\n        /* \"#utility.yul\":1653:1700   */\n      mstore\n        /* \"#utility.yul\":1717:1848   */\n      tag_35\n        /* \"#utility.yul\":1843:1847   */\n      dup2\n        /* \"#utility.yul\":1717:1848   */\n      tag_20\n      jump\t// in\n    tag_35:\n        /* \"#utility.yul\":1709:1848   */\n      swap1\n      pop\n        /* \"#utility.yul\":1436:1855   */\n      swap2\n      swap1\n      pop\n      jump\t// out\n\n    auxdata: 0xa26469706673582212208d03d73b2483de8a94932b3ef643539db7ce86aea288b27863188d93605c563c64736f6c63430008160033\n}\n",
				"bytecode": {
					"linkReferences": {},
					"object": "608060405234801561000f575f80fd5b50335f806101000a81548173ffffffffffffffffffffffffffffffffffffffff021916908373ffffffffffffffffffffffffffffffffffffffff1602179055506102748061005c5f395ff3fe608060405234801561000f575f80fd5b5060043610610034575f3560e01c806383197ef0146100385780638da5cb5b14610042575b5f80fd5b610040610060565b005b61004a610125565b6040516100579190610187565b60405180910390f35b5f8054906101000a900473ffffffffffffffffffffffffffffffffffffffff1673ffffffffffffffffffffffffffffffffffffffff163373ffffffffffffffffffffffffffffffffffffffff16146100ed576040517f08c379a00000000000000000000000000000000000000000000000000000000081526004016100e490610220565b60405180910390fd5b5f8054906101000a900473ffffffffffffffffffffffffffffffffffffffff1673ffffffffffffffffffffffffffffffffffffffff16ff5b5f8054906101000a900473ffffffffffffffffffffffffffffffffffffffff1681565b5f73ffffffffffffffffffffffffffffffffffffffff82169050919050565b5f61017182610148565b9050919050565b61018181610167565b82525050565b5f60208201905061019a5f830184610178565b92915050565b5f82825260208201905092915050565b7f4f6e6c7920746865206f776e65722063616e2064657374726f792074686520635f8201527f6f6e747261637400000000000000000000000000000000000000000000000000602082015250565b5f61020a6027836101a0565b9150610215826101b0565b604082019050919050565b5f6020820190508181035f830152610237816101fe565b905091905056fea26469706673582212208d03d73b2483de8a94932b3ef643539db7ce86aea288b27863188d93605c563c64736f6c63430008160033",
					"opcodes": "PUSH1 0x80 PUSH1 0x40 MSTORE CALLVALUE DUP1 ISZERO PUSH2 0xF JUMPI PUSH0 DUP1 REVERT JUMPDEST POP CALLER PUSH0 DUP1 PUSH2 0x100 EXP DUP2 SLOAD DUP2 PUSH20 0xFFFFFFFFFFFFFFFFFFFFFFFFFFFFFFFFFFFFFFFF MUL NOT AND SWAP1 DUP4 PUSH20 0xFFFFFFFFFFFFFFFFFFFFFFFFFFFFFFFFFFFFFFFF AND MUL OR SWAP1 SSTORE POP PUSH2 0x274 DUP1 PUSH2 0x5C PUSH0 CODECOPY PUSH0 RETURN INVALID PUSH1 0x80 PUSH1 0x40 MSTORE CALLVALUE DUP1 ISZERO PUSH2 0xF JUMPI PUSH0 DUP1 REVERT JUMPDEST POP PUSH1 0x4 CALLDATASIZE LT PUSH2 0x34 JUMPI PUSH0 CALLDATALOAD PUSH1 0xE0 SHR DUP1 PUSH4 0x83197EF0 EQ PUSH2 0x38 JUMPI DUP1 PUSH4 0x8DA5CB5B EQ PUSH2 0x42 JUMPI JUMPDEST PUSH0 DUP1 REVERT JUMPDEST PUSH2 0x40 PUSH2 0x60 JUMP JUMPDEST STOP JUMPDEST PUSH2 0x4A PUSH2 0x125 JUMP JUMPDEST PUSH1 0x40 MLOAD PUSH2 0x57 SWAP2 SWAP1 PUSH2 0x187 JUMP JUMPDEST PUSH1 0x40 MLOAD DUP1 SWAP2 SUB SWAP1 RETURN JUMPDEST PUSH0 DUP1 SLOAD SWAP1 PUSH2 0x100 EXP SWAP1 DIV PUSH20 0xFFFFFFFFFFFFFFFFFFFFFFFFFFFFFFFFFFFFFFFF AND PUSH20 0xFFFFFFFFFFFFFFFFFFFFFFFFFFFFFFFFFFFFFFFF AND CALLER PUSH20 0xFFFFFFFFFFFFFFFFFFFFFFFFFFFFFFFFFFFFFFFF AND EQ PUSH2 0xED JUMPI PUSH1 0x40 MLOAD PUSH32 0x8C379A000000000000000000000000000000000000000000000000000000000 DUP2 MSTORE PUSH1 0x4 ADD PUSH2 0xE4 SWAP1 PUSH2 0x220 JUMP JUMPDEST PUSH1 0x40 MLOAD DUP1 SWAP2 SUB SWAP1 REVERT JUMPDEST PUSH0 DUP1 SLOAD SWAP1 PUSH2 0x100 EXP SWAP1 DIV PUSH20 0xFFFFFFFFFFFFFFFFFFFFFFFFFFFFFFFFFFFFFFFF AND PUSH20 0xFFFFFFFFFFFFFFFFFFFFFFFFFFFFFFFFFFFFFFFF AND SELFDESTRUCT JUMPDEST PUSH0 DUP1 SLOAD SWAP1 PUSH2 0x100 EXP SWAP1 DIV PUSH20 0xFFFFFFFFFFFFFFFFFFFFFFFFFFFFFFFFFFFFFFFF AND DUP2 JUMP JUMPDEST PUSH0 PUSH20 0xFFFFFFFFFFFFFFFFFFFFFFFFFFFFFFFFFFFFFFFF DUP3 AND SWAP1 POP SWAP2 SWAP1 POP JUMP JUMPDEST PUSH0 PUSH2 0x171 DUP3 PUSH2 0x148 JUMP JUMPDEST SWAP1 POP SWAP2 SWAP1 POP JUMP JUMPDEST PUSH2 0x181 DUP2 PUSH2 0x167 JUMP JUMPDEST DUP3 MSTORE POP POP JUMP JUMPDEST PUSH0 PUSH1 0x20 DUP3 ADD SWAP1 POP PUSH2 0x19A PUSH0 DUP4 ADD DUP5 PUSH2 0x178 JUMP JUMPDEST SWAP3 SWAP2 POP POP JUMP JUMPDEST PUSH0 DUP3 DUP3 MSTORE PUSH1 0x20 DUP3 ADD SWAP1 POP SWAP3 SWAP2 POP POP JUMP JUMPDEST PUSH32 0x4F6E6C7920746865206F776E65722063616E2064657374726F79207468652063 PUSH0 DUP3 ADD MSTORE PUSH32 0x6F6E747261637400000000000000000000000000000000000000000000000000 PUSH1 0x20 DUP3 ADD MSTORE POP JUMP JUMPDEST PUSH0 PUSH2 0x20A PUSH1 0x27 DUP4 PUSH2 0x1A0 JUMP JUMPDEST SWAP2 POP PUSH2 0x215 DUP3 PUSH2 0x1B0 JUMP JUMPDEST PUSH1 0x40 DUP3 ADD SWAP1 POP SWAP2 SWAP1 POP JUMP JUMPDEST PUSH0 PUSH1 0x20 DUP3 ADD SWAP1 POP DUP2 DUP2 SUB PUSH0 DUP4 ADD MSTORE PUSH2 0x237 DUP2 PUSH2 0x1FE JUMP JUMPDEST SWAP1 POP SWAP2 SWAP1 POP JUMP INVALID LOG2 PUSH5 0x6970667358 0x22 SLT KECCAK256 DUP14 SUB 0xD7 EXTCODESIZE 0x24 DUP4 0xDE DUP11 SWAP5 SWAP4 0x2B RETURNDATACOPY 0xF6 NUMBER MSTORE8 SWAP14 0xB7 0xCE DUP7 0xAE LOG2 DUP9 0xB2 PUSH25 0x63188D93605C563C64736F6C63430008160033000000000000 "
				},
				"gasEstimates": {
					"creation": {
						"codeDepositCost": "125600",
						"executionCost": "24434",
						"totalCost": "150034"
					},
					"external": {
						"destroy()": "32019",
						"owner()": "2505"
					}
				},
				"methodIdentifiers": {
					"destroy()": "83197ef0",
					"owner()": "8da5cb5b"
				}
			},
			"storageLayout": {
				"storage": [
					{
						"astId": 3,
						"contract": "contract/自毁合约.sol:SelfDestructExample",
						"label": "owner",
						"offset": 0,
						"slot": "0",
						"type": "t_address_payable"
					}
				],
				"types": {
					"t_address_payable": {
						"encoding": "inplace",
						"label": "address payable",
						"numberOfBytes": "20"
					}
				}
			},
			"userdoc": {
				"kind": "user",
				"methods": {},
				"version": 1
			}
		}
	}
}