{
	"contract/for遍历映射.sol": {
		"MappingTraversal": {
			"abi": [
				{
					"inputs": [
						{
							"internalType": "uint256",
							"name": "_id",
							"type": "uint256"
						},
						{
							"internalType": "string",
							"name": "_name",
							"type": "string"
						},
						{
							"internalType": "uint256",
							"name": "_age",
							"type": "uint256"
						}
					],
					"name": "addPerson",
					"outputs": [],
					"stateMutability": "nonpayable",
					"type": "function"
				},
				{
					"inputs": [],
					"name": "getAllPersons",
					"outputs": [
						{
							"internalType": "string[]",
							"name": "",
							"type": "string[]"
						}
					],
					"stateMutability": "view",
					"type": "function"
				},
				{
					"inputs": [
						{
							"internalType": "uint256",
							"name": "",
							"type": "uint256"
						}
					],
					"name": "keys",
					"outputs": [
						{
							"internalType": "uint256",
							"name": "",
							"type": "uint256"
						}
					],
					"stateMutability": "view",
					"type": "function"
				},
				{
					"inputs": [
						{
							"internalType": "uint256",
							"name": "",
							"type": "uint256"
						}
					],
					"name": "nameToAge",
					"outputs": [
						{
							"internalType": "string",
							"name": "",
							"type": "string"
						}
					],
					"stateMutability": "view",
					"type": "function"
				}
			],
			"devdoc": {
				"kind": "dev",
				"methods": {},
				"version": 1
			},
			"evm": {
				"assembly": "    /* \"contract/for\\xe9\\x81\\x8d\\xe5\\x8e\\x86\\xe6\\x98\\xa0\\xe5\\xb0\\x84.sol\":60:699  contract MappingTraversal {... */\n  mstore(0x40, 0x80)\n  callvalue\n  dup1\n  iszero\n  tag_1\n  jumpi\n  0x00\n  dup1\n  revert\ntag_1:\n  pop\n  dataSize(sub_0)\n  dup1\n  dataOffset(sub_0)\n  0x00\n  codecopy\n  0x00\n  return\nstop\n\nsub_0: assembly {\n        /* \"contract/for\\xe9\\x81\\x8d\\xe5\\x8e\\x86\\xe6\\x98\\xa0\\xe5\\xb0\\x84.sol\":60:699  contract MappingTraversal {... */\n      mstore(0x40, 0x80)\n      callvalue\n      dup1\n      iszero\n      tag_1\n      jumpi\n      0x00\n      dup1\n      revert\n    tag_1:\n      pop\n      jumpi(tag_2, lt(calldatasize, 0x04))\n      shr(0xe0, calldataload(0x00))\n      dup1\n      0x0cb6aaf1\n      eq\n      tag_3\n      jumpi\n      dup1\n      0x3df9b366\n      eq\n      tag_4\n      jumpi\n      dup1\n      0x7fa4ba87\n      eq\n      tag_5\n      jumpi\n      dup1\n      0xa08f6bdd\n      eq\n      tag_6\n      jumpi\n    tag_2:\n      0x00\n      dup1\n      revert\n        /* \"contract/for\\xe9\\x81\\x8d\\xe5\\x8e\\x86\\xe6\\x98\\xa0\\xe5\\xb0\\x84.sol\":140:158  uint[] public keys */\n    tag_3:\n      tag_7\n      0x04\n      dup1\n      calldatasize\n      sub\n      dup2\n      add\n      swap1\n      tag_8\n      swap2\n      swap1\n      tag_9\n      jump\t// in\n    tag_8:\n      tag_10\n      jump\t// in\n    tag_7:\n      mload(0x40)\n      tag_11\n      swap2\n      swap1\n      tag_12\n      jump\t// in\n    tag_11:\n      mload(0x40)\n      dup1\n      swap2\n      sub\n      swap1\n      return\n        /* \"contract/for\\xe9\\x81\\x8d\\xe5\\x8e\\x86\\xe6\\x98\\xa0\\xe5\\xb0\\x84.sol\":212:383  function addPerson(uint _id, string memory _name, uint _age) public {... */\n    tag_4:\n      tag_13\n      0x04\n      dup1\n      calldatasize\n      sub\n      dup2\n      add\n      swap1\n      tag_14\n      swap2\n      swap1\n      tag_15\n      jump\t// in\n    tag_14:\n      tag_16\n      jump\t// in\n    tag_13:\n      stop\n        /* \"contract/for\\xe9\\x81\\x8d\\xe5\\x8e\\x86\\xe6\\x98\\xa0\\xe5\\xb0\\x84.sol\":434:696  function getAllPersons() public view returns (string[] memory) {... */\n    tag_5:\n      tag_17\n      tag_18\n      jump\t// in\n    tag_17:\n      mload(0x40)\n      tag_19\n      swap2\n      swap1\n      tag_20\n      jump\t// in\n    tag_19:\n      mload(0x40)\n      dup1\n      swap2\n      sub\n      swap1\n      return\n        /* \"contract/for\\xe9\\x81\\x8d\\xe5\\x8e\\x86\\xe6\\x98\\xa0\\xe5\\xb0\\x84.sol\":93:133  mapping(uint => string) public nameToAge */\n    tag_6:\n      tag_21\n      0x04\n      dup1\n      calldatasize\n      sub\n      dup2\n      add\n      swap1\n      tag_22\n      swap2\n      swap1\n      tag_9\n      jump\t// in\n    tag_22:\n      tag_23\n      jump\t// in\n    tag_21:\n      mload(0x40)\n      tag_24\n      swap2\n      swap1\n      tag_25\n      jump\t// in\n    tag_24:\n      mload(0x40)\n      dup1\n      swap2\n      sub\n      swap1\n      return\n        /* \"contract/for\\xe9\\x81\\x8d\\xe5\\x8e\\x86\\xe6\\x98\\xa0\\xe5\\xb0\\x84.sol\":140:158  uint[] public keys */\n    tag_10:\n      0x01\n      dup2\n      dup2\n      sload\n      dup2\n      lt\n      tag_26\n      jumpi\n      0x00\n      dup1\n      revert\n    tag_26:\n      swap1\n      0x00\n      mstore\n      keccak256(0x00, 0x20)\n      add\n      0x00\n      swap2\n      pop\n      swap1\n      pop\n      sload\n      dup2\n      jump\t// out\n        /* \"contract/for\\xe9\\x81\\x8d\\xe5\\x8e\\x86\\xe6\\x98\\xa0\\xe5\\xb0\\x84.sol\":212:383  function addPerson(uint _id, string memory _name, uint _age) public {... */\n    tag_16:\n        /* \"contract/for\\xe9\\x81\\x8d\\xe5\\x8e\\x86\\xe6\\x98\\xa0\\xe5\\xb0\\x84.sol\":332:337  _name */\n      dup2\n        /* \"contract/for\\xe9\\x81\\x8d\\xe5\\x8e\\x86\\xe6\\x98\\xa0\\xe5\\xb0\\x84.sol\":344:348  _age */\n      dup2\n        /* \"contract/for\\xe9\\x81\\x8d\\xe5\\x8e\\x86\\xe6\\x98\\xa0\\xe5\\xb0\\x84.sol\":315:349  abi.encodePacked(_name, \" \", _age) */\n      add(0x20, mload(0x40))\n      tag_29\n      swap3\n      swap2\n      swap1\n      tag_30\n      jump\t// in\n    tag_29:\n      mload(0x40)\n      0x20\n      dup2\n      dup4\n      sub\n      sub\n      dup2\n      mstore\n      swap1\n      0x40\n      mstore\n        /* \"contract/for\\xe9\\x81\\x8d\\xe5\\x8e\\x86\\xe6\\x98\\xa0\\xe5\\xb0\\x84.sol\":291:300  nameToAge */\n      0x00\n        /* \"contract/for\\xe9\\x81\\x8d\\xe5\\x8e\\x86\\xe6\\x98\\xa0\\xe5\\xb0\\x84.sol\":291:305  nameToAge[_id] */\n      dup1\n        /* \"contract/for\\xe9\\x81\\x8d\\xe5\\x8e\\x86\\xe6\\x98\\xa0\\xe5\\xb0\\x84.sol\":301:304  _id */\n      dup6\n        /* \"contract/for\\xe9\\x81\\x8d\\xe5\\x8e\\x86\\xe6\\x98\\xa0\\xe5\\xb0\\x84.sol\":291:305  nameToAge[_id] */\n      dup2\n      mstore\n      0x20\n      add\n      swap1\n      dup2\n      mstore\n      0x20\n      add\n      0x00\n      keccak256\n        /* \"contract/for\\xe9\\x81\\x8d\\xe5\\x8e\\x86\\xe6\\x98\\xa0\\xe5\\xb0\\x84.sol\":291:350  nameToAge[_id] = string(abi.encodePacked(_name, \" \", _age)) */\n      swap1\n      dup2\n      tag_31\n      swap2\n      swap1\n      tag_32\n      jump\t// in\n    tag_31:\n      pop\n        /* \"contract/for\\xe9\\x81\\x8d\\xe5\\x8e\\x86\\xe6\\x98\\xa0\\xe5\\xb0\\x84.sol\":361:365  keys */\n      0x01\n        /* \"contract/for\\xe9\\x81\\x8d\\xe5\\x8e\\x86\\xe6\\x98\\xa0\\xe5\\xb0\\x84.sol\":371:374  _id */\n      dup4\n        /* \"contract/for\\xe9\\x81\\x8d\\xe5\\x8e\\x86\\xe6\\x98\\xa0\\xe5\\xb0\\x84.sol\":361:375  keys.push(_id) */\n      swap1\n      dup1\n      0x01\n      dup2\n      sload\n      add\n      dup1\n      dup3\n      sstore\n      dup1\n      swap2\n      pop\n      pop\n      0x01\n      swap1\n      sub\n      swap1\n      0x00\n      mstore\n      keccak256(0x00, 0x20)\n      add\n      0x00\n      swap1\n      swap2\n      swap1\n      swap2\n      swap1\n      swap2\n      pop\n      sstore\n        /* \"contract/for\\xe9\\x81\\x8d\\xe5\\x8e\\x86\\xe6\\x98\\xa0\\xe5\\xb0\\x84.sol\":212:383  function addPerson(uint _id, string memory _name, uint _age) public {... */\n      pop\n      pop\n      pop\n      jump\t// out\n        /* \"contract/for\\xe9\\x81\\x8d\\xe5\\x8e\\x86\\xe6\\x98\\xa0\\xe5\\xb0\\x84.sol\":434:696  function getAllPersons() public view returns (string[] memory) {... */\n    tag_18:\n        /* \"contract/for\\xe9\\x81\\x8d\\xe5\\x8e\\x86\\xe6\\x98\\xa0\\xe5\\xb0\\x84.sol\":480:495  string[] memory */\n      0x60\n        /* \"contract/for\\xe9\\x81\\x8d\\xe5\\x8e\\x86\\xe6\\x98\\xa0\\xe5\\xb0\\x84.sol\":508:530  string[] memory result */\n      0x00\n        /* \"contract/for\\xe9\\x81\\x8d\\xe5\\x8e\\x86\\xe6\\x98\\xa0\\xe5\\xb0\\x84.sol\":546:550  keys */\n      0x01\n        /* \"contract/for\\xe9\\x81\\x8d\\xe5\\x8e\\x86\\xe6\\x98\\xa0\\xe5\\xb0\\x84.sol\":546:557  keys.length */\n      dup1\n      sload\n      swap1\n      pop\n        /* \"contract/for\\xe9\\x81\\x8d\\xe5\\x8e\\x86\\xe6\\x98\\xa0\\xe5\\xb0\\x84.sol\":533:558  new string[](keys.length) */\n      0xffffffffffffffff\n      dup2\n      gt\n      iszero\n      tag_35\n      jumpi\n      tag_36\n      tag_37\n      jump\t// in\n    tag_36:\n    tag_35:\n      mload(0x40)\n      swap1\n      dup1\n      dup3\n      mstore\n      dup1\n      0x20\n      mul\n      0x20\n      add\n      dup3\n      add\n      0x40\n      mstore\n      dup1\n      iszero\n      tag_38\n      jumpi\n      dup2\n      0x20\n      add\n    tag_39:\n      0x60\n      dup2\n      mstore\n      0x20\n      add\n      swap1\n      0x01\n      swap1\n      sub\n      swap1\n      dup2\n      tag_39\n      jumpi\n      swap1\n      pop\n    tag_38:\n      pop\n        /* \"contract/for\\xe9\\x81\\x8d\\xe5\\x8e\\x86\\xe6\\x98\\xa0\\xe5\\xb0\\x84.sol\":508:558  string[] memory result = new string[](keys.length) */\n      swap1\n      pop\n        /* \"contract/for\\xe9\\x81\\x8d\\xe5\\x8e\\x86\\xe6\\x98\\xa0\\xe5\\xb0\\x84.sol\":574:580  uint i */\n      0x00\n        /* \"contract/for\\xe9\\x81\\x8d\\xe5\\x8e\\x86\\xe6\\x98\\xa0\\xe5\\xb0\\x84.sol\":569:665  for (uint i = 0; i < keys.length; i++) {... */\n    tag_40:\n        /* \"contract/for\\xe9\\x81\\x8d\\xe5\\x8e\\x86\\xe6\\x98\\xa0\\xe5\\xb0\\x84.sol\":590:594  keys */\n      0x01\n        /* \"contract/for\\xe9\\x81\\x8d\\xe5\\x8e\\x86\\xe6\\x98\\xa0\\xe5\\xb0\\x84.sol\":590:601  keys.length */\n      dup1\n      sload\n      swap1\n      pop\n        /* \"contract/for\\xe9\\x81\\x8d\\xe5\\x8e\\x86\\xe6\\x98\\xa0\\xe5\\xb0\\x84.sol\":586:587  i */\n      dup2\n        /* \"contract/for\\xe9\\x81\\x8d\\xe5\\x8e\\x86\\xe6\\x98\\xa0\\xe5\\xb0\\x84.sol\":586:601  i < keys.length */\n      lt\n        /* \"contract/for\\xe9\\x81\\x8d\\xe5\\x8e\\x86\\xe6\\x98\\xa0\\xe5\\xb0\\x84.sol\":569:665  for (uint i = 0; i < keys.length; i++) {... */\n      iszero\n      tag_41\n      jumpi\n        /* \"contract/for\\xe9\\x81\\x8d\\xe5\\x8e\\x86\\xe6\\x98\\xa0\\xe5\\xb0\\x84.sol\":635:644  nameToAge */\n      0x00\n        /* \"contract/for\\xe9\\x81\\x8d\\xe5\\x8e\\x86\\xe6\\x98\\xa0\\xe5\\xb0\\x84.sol\":635:653  nameToAge[keys[i]] */\n      dup1\n        /* \"contract/for\\xe9\\x81\\x8d\\xe5\\x8e\\x86\\xe6\\x98\\xa0\\xe5\\xb0\\x84.sol\":645:649  keys */\n      0x01\n        /* \"contract/for\\xe9\\x81\\x8d\\xe5\\x8e\\x86\\xe6\\x98\\xa0\\xe5\\xb0\\x84.sol\":650:651  i */\n      dup4\n        /* \"contract/for\\xe9\\x81\\x8d\\xe5\\x8e\\x86\\xe6\\x98\\xa0\\xe5\\xb0\\x84.sol\":645:652  keys[i] */\n      dup2\n      sload\n      dup2\n      lt\n      tag_43\n      jumpi\n      tag_44\n      tag_45\n      jump\t// in\n    tag_44:\n    tag_43:\n      swap1\n      0x00\n      mstore\n      keccak256(0x00, 0x20)\n      add\n      sload\n        /* \"contract/for\\xe9\\x81\\x8d\\xe5\\x8e\\x86\\xe6\\x98\\xa0\\xe5\\xb0\\x84.sol\":635:653  nameToAge[keys[i]] */\n      dup2\n      mstore\n      0x20\n      add\n      swap1\n      dup2\n      mstore\n      0x20\n      add\n      0x00\n      keccak256\n        /* \"contract/for\\xe9\\x81\\x8d\\xe5\\x8e\\x86\\xe6\\x98\\xa0\\xe5\\xb0\\x84.sol\":623:653  result[i] = nameToAge[keys[i]] */\n      dup1\n      sload\n      tag_47\n      swap1\n      tag_48\n      jump\t// in\n    tag_47:\n      dup1\n      0x1f\n      add\n      0x20\n      dup1\n      swap2\n      div\n      mul\n      0x20\n      add\n      mload(0x40)\n      swap1\n      dup2\n      add\n      0x40\n      mstore\n      dup1\n      swap3\n      swap2\n      swap1\n      dup2\n      dup2\n      mstore\n      0x20\n      add\n      dup3\n      dup1\n      sload\n      tag_49\n      swap1\n      tag_48\n      jump\t// in\n    tag_49:\n      dup1\n      iszero\n      tag_50\n      jumpi\n      dup1\n      0x1f\n      lt\n      tag_51\n      jumpi\n      0x0100\n      dup1\n      dup4\n      sload\n      div\n      mul\n      dup4\n      mstore\n      swap2\n      0x20\n      add\n      swap2\n      jump(tag_50)\n    tag_51:\n      dup3\n      add\n      swap2\n      swap1\n      0x00\n      mstore\n      keccak256(0x00, 0x20)\n      swap1\n    tag_52:\n      dup2\n      sload\n      dup2\n      mstore\n      swap1\n      0x01\n      add\n      swap1\n      0x20\n      add\n      dup1\n      dup4\n      gt\n      tag_52\n      jumpi\n      dup3\n      swap1\n      sub\n      0x1f\n      and\n      dup3\n      add\n      swap2\n    tag_50:\n      pop\n      pop\n      pop\n      pop\n      pop\n        /* \"contract/for\\xe9\\x81\\x8d\\xe5\\x8e\\x86\\xe6\\x98\\xa0\\xe5\\xb0\\x84.sol\":623:629  result */\n      dup3\n        /* \"contract/for\\xe9\\x81\\x8d\\xe5\\x8e\\x86\\xe6\\x98\\xa0\\xe5\\xb0\\x84.sol\":630:631  i */\n      dup3\n        /* \"contract/for\\xe9\\x81\\x8d\\xe5\\x8e\\x86\\xe6\\x98\\xa0\\xe5\\xb0\\x84.sol\":623:632  result[i] */\n      dup2\n      mload\n      dup2\n      lt\n      tag_53\n      jumpi\n      tag_54\n      tag_45\n      jump\t// in\n    tag_54:\n    tag_53:\n      0x20\n      mul\n      0x20\n      add\n      add\n        /* \"contract/for\\xe9\\x81\\x8d\\xe5\\x8e\\x86\\xe6\\x98\\xa0\\xe5\\xb0\\x84.sol\":623:653  result[i] = nameToAge[keys[i]] */\n      dup2\n      swap1\n      mstore\n      pop\n        /* \"contract/for\\xe9\\x81\\x8d\\xe5\\x8e\\x86\\xe6\\x98\\xa0\\xe5\\xb0\\x84.sol\":603:606  i++ */\n      dup1\n      dup1\n      0x01\n      add\n      swap2\n      pop\n      pop\n        /* \"contract/for\\xe9\\x81\\x8d\\xe5\\x8e\\x86\\xe6\\x98\\xa0\\xe5\\xb0\\x84.sol\":569:665  for (uint i = 0; i < keys.length; i++) {... */\n      jump(tag_40)\n    tag_41:\n      pop\n        /* \"contract/for\\xe9\\x81\\x8d\\xe5\\x8e\\x86\\xe6\\x98\\xa0\\xe5\\xb0\\x84.sol\":682:688  result */\n      dup1\n        /* \"contract/for\\xe9\\x81\\x8d\\xe5\\x8e\\x86\\xe6\\x98\\xa0\\xe5\\xb0\\x84.sol\":675:688  return result */\n      swap2\n      pop\n      pop\n        /* \"contract/for\\xe9\\x81\\x8d\\xe5\\x8e\\x86\\xe6\\x98\\xa0\\xe5\\xb0\\x84.sol\":434:696  function getAllPersons() public view returns (string[] memory) {... */\n      swap1\n      jump\t// out\n        /* \"contract/for\\xe9\\x81\\x8d\\xe5\\x8e\\x86\\xe6\\x98\\xa0\\xe5\\xb0\\x84.sol\":93:133  mapping(uint => string) public nameToAge */\n    tag_23:\n      mstore(0x20, 0x00)\n      dup1\n      0x00\n      mstore\n      keccak256(0x00, 0x40)\n      0x00\n      swap2\n      pop\n      swap1\n      pop\n      dup1\n      sload\n      tag_55\n      swap1\n      tag_48\n      jump\t// in\n    tag_55:\n      dup1\n      0x1f\n      add\n      0x20\n      dup1\n      swap2\n      div\n      mul\n      0x20\n      add\n      mload(0x40)\n      swap1\n      dup2\n      add\n      0x40\n      mstore\n      dup1\n      swap3\n      swap2\n      swap1\n      dup2\n      dup2\n      mstore\n      0x20\n      add\n      dup3\n      dup1\n      sload\n      tag_56\n      swap1\n      tag_48\n      jump\t// in\n    tag_56:\n      dup1\n      iszero\n      tag_57\n      jumpi\n      dup1\n      0x1f\n      lt\n      tag_58\n      jumpi\n      0x0100\n      dup1\n      dup4\n      sload\n      div\n      mul\n      dup4\n      mstore\n      swap2\n      0x20\n      add\n      swap2\n      jump(tag_57)\n    tag_58:\n      dup3\n      add\n      swap2\n      swap1\n      0x00\n      mstore\n      keccak256(0x00, 0x20)\n      swap1\n    tag_59:\n      dup2\n      sload\n      dup2\n      mstore\n      swap1\n      0x01\n      add\n      swap1\n      0x20\n      add\n      dup1\n      dup4\n      gt\n      tag_59\n      jumpi\n      dup3\n      swap1\n      sub\n      0x1f\n      and\n      dup3\n      add\n      swap2\n    tag_57:\n      pop\n      pop\n      pop\n      pop\n      pop\n      dup2\n      jump\t// out\n        /* \"#utility.yul\":7:82   */\n    tag_60:\n        /* \"#utility.yul\":40:46   */\n      0x00\n        /* \"#utility.yul\":73:75   */\n      0x40\n        /* \"#utility.yul\":67:76   */\n      mload\n        /* \"#utility.yul\":57:76   */\n      swap1\n      pop\n        /* \"#utility.yul\":7:82   */\n      swap1\n      jump\t// out\n        /* \"#utility.yul\":88:205   */\n    tag_61:\n        /* \"#utility.yul\":197:198   */\n      0x00\n        /* \"#utility.yul\":194:195   */\n      dup1\n        /* \"#utility.yul\":187:199   */\n      revert\n        /* \"#utility.yul\":211:328   */\n    tag_62:\n        /* \"#utility.yul\":320:321   */\n      0x00\n        /* \"#utility.yul\":317:318   */\n      dup1\n        /* \"#utility.yul\":310:322   */\n      revert\n        /* \"#utility.yul\":334:411   */\n    tag_63:\n        /* \"#utility.yul\":371:378   */\n      0x00\n        /* \"#utility.yul\":400:405   */\n      dup2\n        /* \"#utility.yul\":389:405   */\n      swap1\n      pop\n        /* \"#utility.yul\":334:411   */\n      swap2\n      swap1\n      pop\n      jump\t// out\n        /* \"#utility.yul\":417:539   */\n    tag_64:\n        /* \"#utility.yul\":490:514   */\n      tag_116\n        /* \"#utility.yul\":508:513   */\n      dup2\n        /* \"#utility.yul\":490:514   */\n      tag_63\n      jump\t// in\n    tag_116:\n        /* \"#utility.yul\":483:488   */\n      dup2\n        /* \"#utility.yul\":480:515   */\n      eq\n        /* \"#utility.yul\":470:533   */\n      tag_117\n      jumpi\n        /* \"#utility.yul\":529:530   */\n      0x00\n        /* \"#utility.yul\":526:527   */\n      dup1\n        /* \"#utility.yul\":519:531   */\n      revert\n        /* \"#utility.yul\":470:533   */\n    tag_117:\n        /* \"#utility.yul\":417:539   */\n      pop\n      jump\t// out\n        /* \"#utility.yul\":545:684   */\n    tag_65:\n        /* \"#utility.yul\":591:596   */\n      0x00\n        /* \"#utility.yul\":629:635   */\n      dup2\n        /* \"#utility.yul\":616:636   */\n      calldataload\n        /* \"#utility.yul\":607:636   */\n      swap1\n      pop\n        /* \"#utility.yul\":645:678   */\n      tag_119\n        /* \"#utility.yul\":672:677   */\n      dup2\n        /* \"#utility.yul\":645:678   */\n      tag_64\n      jump\t// in\n    tag_119:\n        /* \"#utility.yul\":545:684   */\n      swap3\n      swap2\n      pop\n      pop\n      jump\t// out\n        /* \"#utility.yul\":690:1019   */\n    tag_9:\n        /* \"#utility.yul\":749:755   */\n      0x00\n        /* \"#utility.yul\":798:800   */\n      0x20\n        /* \"#utility.yul\":786:795   */\n      dup3\n        /* \"#utility.yul\":777:784   */\n      dup5\n        /* \"#utility.yul\":773:796   */\n      sub\n        /* \"#utility.yul\":769:801   */\n      slt\n        /* \"#utility.yul\":766:885   */\n      iszero\n      tag_121\n      jumpi\n        /* \"#utility.yul\":804:883   */\n      tag_122\n      tag_61\n      jump\t// in\n    tag_122:\n        /* \"#utility.yul\":766:885   */\n    tag_121:\n        /* \"#utility.yul\":924:925   */\n      0x00\n        /* \"#utility.yul\":949:1002   */\n      tag_123\n        /* \"#utility.yul\":994:1001   */\n      dup5\n        /* \"#utility.yul\":985:991   */\n      dup3\n        /* \"#utility.yul\":974:983   */\n      dup6\n        /* \"#utility.yul\":970:992   */\n      add\n        /* \"#utility.yul\":949:1002   */\n      tag_65\n      jump\t// in\n    tag_123:\n        /* \"#utility.yul\":939:1002   */\n      swap2\n      pop\n        /* \"#utility.yul\":895:1012   */\n      pop\n        /* \"#utility.yul\":690:1019   */\n      swap3\n      swap2\n      pop\n      pop\n      jump\t// out\n        /* \"#utility.yul\":1025:1143   */\n    tag_66:\n        /* \"#utility.yul\":1112:1136   */\n      tag_125\n        /* \"#utility.yul\":1130:1135   */\n      dup2\n        /* \"#utility.yul\":1112:1136   */\n      tag_63\n      jump\t// in\n    tag_125:\n        /* \"#utility.yul\":1107:1110   */\n      dup3\n        /* \"#utility.yul\":1100:1137   */\n      mstore\n        /* \"#utility.yul\":1025:1143   */\n      pop\n      pop\n      jump\t// out\n        /* \"#utility.yul\":1149:1371   */\n    tag_12:\n        /* \"#utility.yul\":1242:1246   */\n      0x00\n        /* \"#utility.yul\":1280:1282   */\n      0x20\n        /* \"#utility.yul\":1269:1278   */\n      dup3\n        /* \"#utility.yul\":1265:1283   */\n      add\n        /* \"#utility.yul\":1257:1283   */\n      swap1\n      pop\n        /* \"#utility.yul\":1293:1364   */\n      tag_127\n        /* \"#utility.yul\":1361:1362   */\n      0x00\n        /* \"#utility.yul\":1350:1359   */\n      dup4\n        /* \"#utility.yul\":1346:1363   */\n      add\n        /* \"#utility.yul\":1337:1343   */\n      dup5\n        /* \"#utility.yul\":1293:1364   */\n      tag_66\n      jump\t// in\n    tag_127:\n        /* \"#utility.yul\":1149:1371   */\n      swap3\n      swap2\n      pop\n      pop\n      jump\t// out\n        /* \"#utility.yul\":1377:1494   */\n    tag_67:\n        /* \"#utility.yul\":1486:1487   */\n      0x00\n        /* \"#utility.yul\":1483:1484   */\n      dup1\n        /* \"#utility.yul\":1476:1488   */\n      revert\n        /* \"#utility.yul\":1500:1617   */\n    tag_68:\n        /* \"#utility.yul\":1609:1610   */\n      0x00\n        /* \"#utility.yul\":1606:1607   */\n      dup1\n        /* \"#utility.yul\":1599:1611   */\n      revert\n        /* \"#utility.yul\":1623:1725   */\n    tag_69:\n        /* \"#utility.yul\":1664:1670   */\n      0x00\n        /* \"#utility.yul\":1715:1717   */\n      0x1f\n        /* \"#utility.yul\":1711:1718   */\n      not\n        /* \"#utility.yul\":1706:1708   */\n      0x1f\n        /* \"#utility.yul\":1699:1704   */\n      dup4\n        /* \"#utility.yul\":1695:1709   */\n      add\n        /* \"#utility.yul\":1691:1719   */\n      and\n        /* \"#utility.yul\":1681:1719   */\n      swap1\n      pop\n        /* \"#utility.yul\":1623:1725   */\n      swap2\n      swap1\n      pop\n      jump\t// out\n        /* \"#utility.yul\":1731:1911   */\n    tag_37:\n        /* \"#utility.yul\":1779:1856   */\n      0x4e487b7100000000000000000000000000000000000000000000000000000000\n        /* \"#utility.yul\":1776:1777   */\n      0x00\n        /* \"#utility.yul\":1769:1857   */\n      mstore\n        /* \"#utility.yul\":1876:1880   */\n      0x41\n        /* \"#utility.yul\":1873:1874   */\n      0x04\n        /* \"#utility.yul\":1866:1881   */\n      mstore\n        /* \"#utility.yul\":1900:1904   */\n      0x24\n        /* \"#utility.yul\":1897:1898   */\n      0x00\n        /* \"#utility.yul\":1890:1905   */\n      revert\n        /* \"#utility.yul\":1917:2198   */\n    tag_70:\n        /* \"#utility.yul\":2000:2027   */\n      tag_133\n        /* \"#utility.yul\":2022:2026   */\n      dup3\n        /* \"#utility.yul\":2000:2027   */\n      tag_69\n      jump\t// in\n    tag_133:\n        /* \"#utility.yul\":1992:1998   */\n      dup2\n        /* \"#utility.yul\":1988:2028   */\n      add\n        /* \"#utility.yul\":2130:2136   */\n      dup2\n        /* \"#utility.yul\":2118:2128   */\n      dup2\n        /* \"#utility.yul\":2115:2137   */\n      lt\n        /* \"#utility.yul\":2094:2112   */\n      0xffffffffffffffff\n        /* \"#utility.yul\":2082:2092   */\n      dup3\n        /* \"#utility.yul\":2079:2113   */\n      gt\n        /* \"#utility.yul\":2076:2138   */\n      or\n        /* \"#utility.yul\":2073:2161   */\n      iszero\n      tag_134\n      jumpi\n        /* \"#utility.yul\":2141:2159   */\n      tag_135\n      tag_37\n      jump\t// in\n    tag_135:\n        /* \"#utility.yul\":2073:2161   */\n    tag_134:\n        /* \"#utility.yul\":2181:2191   */\n      dup1\n        /* \"#utility.yul\":2177:2179   */\n      0x40\n        /* \"#utility.yul\":2170:2192   */\n      mstore\n        /* \"#utility.yul\":1960:2198   */\n      pop\n        /* \"#utility.yul\":1917:2198   */\n      pop\n      pop\n      jump\t// out\n        /* \"#utility.yul\":2204:2333   */\n    tag_71:\n        /* \"#utility.yul\":2238:2244   */\n      0x00\n        /* \"#utility.yul\":2265:2285   */\n      tag_137\n      tag_60\n      jump\t// in\n    tag_137:\n        /* \"#utility.yul\":2255:2285   */\n      swap1\n      pop\n        /* \"#utility.yul\":2294:2327   */\n      tag_138\n        /* \"#utility.yul\":2322:2326   */\n      dup3\n        /* \"#utility.yul\":2314:2320   */\n      dup3\n        /* \"#utility.yul\":2294:2327   */\n      tag_70\n      jump\t// in\n    tag_138:\n        /* \"#utility.yul\":2204:2333   */\n      swap2\n      swap1\n      pop\n      jump\t// out\n        /* \"#utility.yul\":2339:2647   */\n    tag_72:\n        /* \"#utility.yul\":2401:2405   */\n      0x00\n        /* \"#utility.yul\":2491:2509   */\n      0xffffffffffffffff\n        /* \"#utility.yul\":2483:2489   */\n      dup3\n        /* \"#utility.yul\":2480:2510   */\n      gt\n        /* \"#utility.yul\":2477:2533   */\n      iszero\n      tag_140\n      jumpi\n        /* \"#utility.yul\":2513:2531   */\n      tag_141\n      tag_37\n      jump\t// in\n    tag_141:\n        /* \"#utility.yul\":2477:2533   */\n    tag_140:\n        /* \"#utility.yul\":2551:2580   */\n      tag_142\n        /* \"#utility.yul\":2573:2579   */\n      dup3\n        /* \"#utility.yul\":2551:2580   */\n      tag_69\n      jump\t// in\n    tag_142:\n        /* \"#utility.yul\":2543:2580   */\n      swap1\n      pop\n        /* \"#utility.yul\":2635:2639   */\n      0x20\n        /* \"#utility.yul\":2629:2633   */\n      dup2\n        /* \"#utility.yul\":2625:2640   */\n      add\n        /* \"#utility.yul\":2617:2640   */\n      swap1\n      pop\n        /* \"#utility.yul\":2339:2647   */\n      swap2\n      swap1\n      pop\n      jump\t// out\n        /* \"#utility.yul\":2653:2799   */\n    tag_73:\n        /* \"#utility.yul\":2750:2756   */\n      dup3\n        /* \"#utility.yul\":2745:2748   */\n      dup2\n        /* \"#utility.yul\":2740:2743   */\n      dup4\n        /* \"#utility.yul\":2727:2757   */\n      calldatacopy\n        /* \"#utility.yul\":2791:2792   */\n      0x00\n        /* \"#utility.yul\":2782:2788   */\n      dup4\n        /* \"#utility.yul\":2777:2780   */\n      dup4\n        /* \"#utility.yul\":2773:2789   */\n      add\n        /* \"#utility.yul\":2766:2793   */\n      mstore\n        /* \"#utility.yul\":2653:2799   */\n      pop\n      pop\n      pop\n      jump\t// out\n        /* \"#utility.yul\":2805:3230   */\n    tag_74:\n        /* \"#utility.yul\":2883:2888   */\n      0x00\n        /* \"#utility.yul\":2908:2974   */\n      tag_145\n        /* \"#utility.yul\":2924:2973   */\n      tag_146\n        /* \"#utility.yul\":2966:2972   */\n      dup5\n        /* \"#utility.yul\":2924:2973   */\n      tag_72\n      jump\t// in\n    tag_146:\n        /* \"#utility.yul\":2908:2974   */\n      tag_71\n      jump\t// in\n    tag_145:\n        /* \"#utility.yul\":2899:2974   */\n      swap1\n      pop\n        /* \"#utility.yul\":2997:3003   */\n      dup3\n        /* \"#utility.yul\":2990:2995   */\n      dup2\n        /* \"#utility.yul\":2983:3004   */\n      mstore\n        /* \"#utility.yul\":3035:3039   */\n      0x20\n        /* \"#utility.yul\":3028:3033   */\n      dup2\n        /* \"#utility.yul\":3024:3040   */\n      add\n        /* \"#utility.yul\":3073:3076   */\n      dup5\n        /* \"#utility.yul\":3064:3070   */\n      dup5\n        /* \"#utility.yul\":3059:3062   */\n      dup5\n        /* \"#utility.yul\":3055:3071   */\n      add\n        /* \"#utility.yul\":3052:3077   */\n      gt\n        /* \"#utility.yul\":3049:3161   */\n      iszero\n      tag_147\n      jumpi\n        /* \"#utility.yul\":3080:3159   */\n      tag_148\n      tag_68\n      jump\t// in\n    tag_148:\n        /* \"#utility.yul\":3049:3161   */\n    tag_147:\n        /* \"#utility.yul\":3170:3224   */\n      tag_149\n        /* \"#utility.yul\":3217:3223   */\n      dup5\n        /* \"#utility.yul\":3212:3215   */\n      dup3\n        /* \"#utility.yul\":3207:3210   */\n      dup6\n        /* \"#utility.yul\":3170:3224   */\n      tag_73\n      jump\t// in\n    tag_149:\n        /* \"#utility.yul\":2889:3230   */\n      pop\n        /* \"#utility.yul\":2805:3230   */\n      swap4\n      swap3\n      pop\n      pop\n      pop\n      jump\t// out\n        /* \"#utility.yul\":3250:3590   */\n    tag_75:\n        /* \"#utility.yul\":3306:3311   */\n      0x00\n        /* \"#utility.yul\":3355:3358   */\n      dup3\n        /* \"#utility.yul\":3348:3352   */\n      0x1f\n        /* \"#utility.yul\":3340:3346   */\n      dup4\n        /* \"#utility.yul\":3336:3353   */\n      add\n        /* \"#utility.yul\":3332:3359   */\n      slt\n        /* \"#utility.yul\":3322:3444   */\n      tag_151\n      jumpi\n        /* \"#utility.yul\":3363:3442   */\n      tag_152\n      tag_67\n      jump\t// in\n    tag_152:\n        /* \"#utility.yul\":3322:3444   */\n    tag_151:\n        /* \"#utility.yul\":3480:3486   */\n      dup2\n        /* \"#utility.yul\":3467:3487   */\n      calldataload\n        /* \"#utility.yul\":3505:3584   */\n      tag_153\n        /* \"#utility.yul\":3580:3583   */\n      dup5\n        /* \"#utility.yul\":3572:3578   */\n      dup3\n        /* \"#utility.yul\":3565:3569   */\n      0x20\n        /* \"#utility.yul\":3557:3563   */\n      dup7\n        /* \"#utility.yul\":3553:3570   */\n      add\n        /* \"#utility.yul\":3505:3584   */\n      tag_74\n      jump\t// in\n    tag_153:\n        /* \"#utility.yul\":3496:3584   */\n      swap2\n      pop\n        /* \"#utility.yul\":3312:3590   */\n      pop\n        /* \"#utility.yul\":3250:3590   */\n      swap3\n      swap2\n      pop\n      pop\n      jump\t// out\n        /* \"#utility.yul\":3596:4395   */\n    tag_15:\n        /* \"#utility.yul\":3683:3689   */\n      0x00\n        /* \"#utility.yul\":3691:3697   */\n      dup1\n        /* \"#utility.yul\":3699:3705   */\n      0x00\n        /* \"#utility.yul\":3748:3750   */\n      0x60\n        /* \"#utility.yul\":3736:3745   */\n      dup5\n        /* \"#utility.yul\":3727:3734   */\n      dup7\n        /* \"#utility.yul\":3723:3746   */\n      sub\n        /* \"#utility.yul\":3719:3751   */\n      slt\n        /* \"#utility.yul\":3716:3835   */\n      iszero\n      tag_155\n      jumpi\n        /* \"#utility.yul\":3754:3833   */\n      tag_156\n      tag_61\n      jump\t// in\n    tag_156:\n        /* \"#utility.yul\":3716:3835   */\n    tag_155:\n        /* \"#utility.yul\":3874:3875   */\n      0x00\n        /* \"#utility.yul\":3899:3952   */\n      tag_157\n        /* \"#utility.yul\":3944:3951   */\n      dup7\n        /* \"#utility.yul\":3935:3941   */\n      dup3\n        /* \"#utility.yul\":3924:3933   */\n      dup8\n        /* \"#utility.yul\":3920:3942   */\n      add\n        /* \"#utility.yul\":3899:3952   */\n      tag_65\n      jump\t// in\n    tag_157:\n        /* \"#utility.yul\":3889:3952   */\n      swap4\n      pop\n        /* \"#utility.yul\":3845:3962   */\n      pop\n        /* \"#utility.yul\":4029:4031   */\n      0x20\n        /* \"#utility.yul\":4018:4027   */\n      dup5\n        /* \"#utility.yul\":4014:4032   */\n      add\n        /* \"#utility.yul\":4001:4033   */\n      calldataload\n        /* \"#utility.yul\":4060:4078   */\n      0xffffffffffffffff\n        /* \"#utility.yul\":4052:4058   */\n      dup2\n        /* \"#utility.yul\":4049:4079   */\n      gt\n        /* \"#utility.yul\":4046:4163   */\n      iszero\n      tag_158\n      jumpi\n        /* \"#utility.yul\":4082:4161   */\n      tag_159\n      tag_62\n      jump\t// in\n    tag_159:\n        /* \"#utility.yul\":4046:4163   */\n    tag_158:\n        /* \"#utility.yul\":4187:4250   */\n      tag_160\n        /* \"#utility.yul\":4242:4249   */\n      dup7\n        /* \"#utility.yul\":4233:4239   */\n      dup3\n        /* \"#utility.yul\":4222:4231   */\n      dup8\n        /* \"#utility.yul\":4218:4240   */\n      add\n        /* \"#utility.yul\":4187:4250   */\n      tag_75\n      jump\t// in\n    tag_160:\n        /* \"#utility.yul\":4177:4250   */\n      swap3\n      pop\n        /* \"#utility.yul\":3972:4260   */\n      pop\n        /* \"#utility.yul\":4299:4301   */\n      0x40\n        /* \"#utility.yul\":4325:4378   */\n      tag_161\n        /* \"#utility.yul\":4370:4377   */\n      dup7\n        /* \"#utility.yul\":4361:4367   */\n      dup3\n        /* \"#utility.yul\":4350:4359   */\n      dup8\n        /* \"#utility.yul\":4346:4368   */\n      add\n        /* \"#utility.yul\":4325:4378   */\n      tag_65\n      jump\t// in\n    tag_161:\n        /* \"#utility.yul\":4315:4378   */\n      swap2\n      pop\n        /* \"#utility.yul\":4270:4388   */\n      pop\n        /* \"#utility.yul\":3596:4395   */\n      swap3\n      pop\n      swap3\n      pop\n      swap3\n      jump\t// out\n        /* \"#utility.yul\":4401:4525   */\n    tag_76:\n        /* \"#utility.yul\":4478:4484   */\n      0x00\n        /* \"#utility.yul\":4512:4517   */\n      dup2\n        /* \"#utility.yul\":4506:4518   */\n      mload\n        /* \"#utility.yul\":4496:4518   */\n      swap1\n      pop\n        /* \"#utility.yul\":4401:4525   */\n      swap2\n      swap1\n      pop\n      jump\t// out\n        /* \"#utility.yul\":4531:4725   */\n    tag_77:\n        /* \"#utility.yul\":4640:4651   */\n      0x00\n        /* \"#utility.yul\":4674:4680   */\n      dup3\n        /* \"#utility.yul\":4669:4672   */\n      dup3\n        /* \"#utility.yul\":4662:4681   */\n      mstore\n        /* \"#utility.yul\":4714:4718   */\n      0x20\n        /* \"#utility.yul\":4709:4712   */\n      dup3\n        /* \"#utility.yul\":4705:4719   */\n      add\n        /* \"#utility.yul\":4690:4719   */\n      swap1\n      pop\n        /* \"#utility.yul\":4531:4725   */\n      swap3\n      swap2\n      pop\n      pop\n      jump\t// out\n        /* \"#utility.yul\":4731:4873   */\n    tag_78:\n        /* \"#utility.yul\":4808:4812   */\n      0x00\n        /* \"#utility.yul\":4831:4834   */\n      dup2\n        /* \"#utility.yul\":4823:4834   */\n      swap1\n      pop\n        /* \"#utility.yul\":4861:4865   */\n      0x20\n        /* \"#utility.yul\":4856:4859   */\n      dup3\n        /* \"#utility.yul\":4852:4866   */\n      add\n        /* \"#utility.yul\":4844:4866   */\n      swap1\n      pop\n        /* \"#utility.yul\":4731:4873   */\n      swap2\n      swap1\n      pop\n      jump\t// out\n        /* \"#utility.yul\":4879:4978   */\n    tag_79:\n        /* \"#utility.yul\":4931:4937   */\n      0x00\n        /* \"#utility.yul\":4965:4970   */\n      dup2\n        /* \"#utility.yul\":4959:4971   */\n      mload\n        /* \"#utility.yul\":4949:4971   */\n      swap1\n      pop\n        /* \"#utility.yul\":4879:4978   */\n      swap2\n      swap1\n      pop\n      jump\t// out\n        /* \"#utility.yul\":4984:5143   */\n    tag_80:\n        /* \"#utility.yul\":5058:5069   */\n      0x00\n        /* \"#utility.yul\":5092:5098   */\n      dup3\n        /* \"#utility.yul\":5087:5090   */\n      dup3\n        /* \"#utility.yul\":5080:5099   */\n      mstore\n        /* \"#utility.yul\":5132:5136   */\n      0x20\n        /* \"#utility.yul\":5127:5130   */\n      dup3\n        /* \"#utility.yul\":5123:5137   */\n      add\n        /* \"#utility.yul\":5108:5137   */\n      swap1\n      pop\n        /* \"#utility.yul\":4984:5143   */\n      swap3\n      swap2\n      pop\n      pop\n      jump\t// out\n        /* \"#utility.yul\":5149:5395   */\n    tag_81:\n        /* \"#utility.yul\":5230:5231   */\n      0x00\n        /* \"#utility.yul\":5240:5353   */\n    tag_168:\n        /* \"#utility.yul\":5254:5260   */\n      dup4\n        /* \"#utility.yul\":5251:5252   */\n      dup2\n        /* \"#utility.yul\":5248:5261   */\n      lt\n        /* \"#utility.yul\":5240:5353   */\n      iszero\n      tag_170\n      jumpi\n        /* \"#utility.yul\":5339:5340   */\n      dup1\n        /* \"#utility.yul\":5334:5337   */\n      dup3\n        /* \"#utility.yul\":5330:5341   */\n      add\n        /* \"#utility.yul\":5324:5342   */\n      mload\n        /* \"#utility.yul\":5320:5321   */\n      dup2\n        /* \"#utility.yul\":5315:5318   */\n      dup5\n        /* \"#utility.yul\":5311:5322   */\n      add\n        /* \"#utility.yul\":5304:5343   */\n      mstore\n        /* \"#utility.yul\":5276:5278   */\n      0x20\n        /* \"#utility.yul\":5273:5274   */\n      dup2\n        /* \"#utility.yul\":5269:5279   */\n      add\n        /* \"#utility.yul\":5264:5279   */\n      swap1\n      pop\n        /* \"#utility.yul\":5240:5353   */\n      jump(tag_168)\n    tag_170:\n        /* \"#utility.yul\":5387:5388   */\n      0x00\n        /* \"#utility.yul\":5378:5384   */\n      dup5\n        /* \"#utility.yul\":5373:5376   */\n      dup5\n        /* \"#utility.yul\":5369:5385   */\n      add\n        /* \"#utility.yul\":5362:5389   */\n      mstore\n        /* \"#utility.yul\":5211:5395   */\n      pop\n        /* \"#utility.yul\":5149:5395   */\n      pop\n      pop\n      pop\n      jump\t// out\n        /* \"#utility.yul\":5401:5758   */\n    tag_82:\n        /* \"#utility.yul\":5479:5482   */\n      0x00\n        /* \"#utility.yul\":5507:5546   */\n      tag_172\n        /* \"#utility.yul\":5540:5545   */\n      dup3\n        /* \"#utility.yul\":5507:5546   */\n      tag_79\n      jump\t// in\n    tag_172:\n        /* \"#utility.yul\":5562:5623   */\n      tag_173\n        /* \"#utility.yul\":5616:5622   */\n      dup2\n        /* \"#utility.yul\":5611:5614   */\n      dup6\n        /* \"#utility.yul\":5562:5623   */\n      tag_80\n      jump\t// in\n    tag_173:\n        /* \"#utility.yul\":5555:5623   */\n      swap4\n      pop\n        /* \"#utility.yul\":5632:5697   */\n      tag_174\n        /* \"#utility.yul\":5690:5696   */\n      dup2\n        /* \"#utility.yul\":5685:5688   */\n      dup6\n        /* \"#utility.yul\":5678:5682   */\n      0x20\n        /* \"#utility.yul\":5671:5676   */\n      dup7\n        /* \"#utility.yul\":5667:5683   */\n      add\n        /* \"#utility.yul\":5632:5697   */\n      tag_81\n      jump\t// in\n    tag_174:\n        /* \"#utility.yul\":5722:5751   */\n      tag_175\n        /* \"#utility.yul\":5744:5750   */\n      dup2\n        /* \"#utility.yul\":5722:5751   */\n      tag_69\n      jump\t// in\n    tag_175:\n        /* \"#utility.yul\":5717:5720   */\n      dup5\n        /* \"#utility.yul\":5713:5752   */\n      add\n        /* \"#utility.yul\":5706:5752   */\n      swap2\n      pop\n        /* \"#utility.yul\":5483:5758   */\n      pop\n        /* \"#utility.yul\":5401:5758   */\n      swap3\n      swap2\n      pop\n      pop\n      jump\t// out\n        /* \"#utility.yul\":5764:5960   */\n    tag_83:\n        /* \"#utility.yul\":5853:5863   */\n      0x00\n        /* \"#utility.yul\":5888:5954   */\n      tag_177\n        /* \"#utility.yul\":5950:5953   */\n      dup4\n        /* \"#utility.yul\":5942:5948   */\n      dup4\n        /* \"#utility.yul\":5888:5954   */\n      tag_82\n      jump\t// in\n    tag_177:\n        /* \"#utility.yul\":5874:5954   */\n      swap1\n      pop\n        /* \"#utility.yul\":5764:5960   */\n      swap3\n      swap2\n      pop\n      pop\n      jump\t// out\n        /* \"#utility.yul\":5966:6089   */\n    tag_84:\n        /* \"#utility.yul\":6046:6050   */\n      0x00\n        /* \"#utility.yul\":6078:6082   */\n      0x20\n        /* \"#utility.yul\":6073:6076   */\n      dup3\n        /* \"#utility.yul\":6069:6083   */\n      add\n        /* \"#utility.yul\":6061:6083   */\n      swap1\n      pop\n        /* \"#utility.yul\":5966:6089   */\n      swap2\n      swap1\n      pop\n      jump\t// out\n        /* \"#utility.yul\":6123:7114   */\n    tag_85:\n        /* \"#utility.yul\":6262:6265   */\n      0x00\n        /* \"#utility.yul\":6291:6355   */\n      tag_180\n        /* \"#utility.yul\":6349:6354   */\n      dup3\n        /* \"#utility.yul\":6291:6355   */\n      tag_76\n      jump\t// in\n    tag_180:\n        /* \"#utility.yul\":6371:6467   */\n      tag_181\n        /* \"#utility.yul\":6460:6466   */\n      dup2\n        /* \"#utility.yul\":6455:6458   */\n      dup6\n        /* \"#utility.yul\":6371:6467   */\n      tag_77\n      jump\t// in\n    tag_181:\n        /* \"#utility.yul\":6364:6467   */\n      swap4\n      pop\n        /* \"#utility.yul\":6493:6496   */\n      dup4\n        /* \"#utility.yul\":6538:6542   */\n      0x20\n        /* \"#utility.yul\":6530:6536   */\n      dup3\n        /* \"#utility.yul\":6526:6543   */\n      mul\n        /* \"#utility.yul\":6521:6524   */\n      dup6\n        /* \"#utility.yul\":6517:6544   */\n      add\n        /* \"#utility.yul\":6568:6634   */\n      tag_182\n        /* \"#utility.yul\":6628:6633   */\n      dup6\n        /* \"#utility.yul\":6568:6634   */\n      tag_78\n      jump\t// in\n    tag_182:\n        /* \"#utility.yul\":6657:6664   */\n      dup1\n        /* \"#utility.yul\":6688:6689   */\n      0x00\n        /* \"#utility.yul\":6673:7069   */\n    tag_183:\n        /* \"#utility.yul\":6698:6704   */\n      dup6\n        /* \"#utility.yul\":6695:6696   */\n      dup2\n        /* \"#utility.yul\":6692:6705   */\n      lt\n        /* \"#utility.yul\":6673:7069   */\n      iszero\n      tag_185\n      jumpi\n        /* \"#utility.yul\":6769:6778   */\n      dup5\n        /* \"#utility.yul\":6763:6767   */\n      dup5\n        /* \"#utility.yul\":6759:6779   */\n      sub\n        /* \"#utility.yul\":6754:6757   */\n      dup10\n        /* \"#utility.yul\":6747:6780   */\n      mstore\n        /* \"#utility.yul\":6820:6826   */\n      dup2\n        /* \"#utility.yul\":6814:6827   */\n      mload\n        /* \"#utility.yul\":6848:6932   */\n      tag_186\n        /* \"#utility.yul\":6927:6931   */\n      dup6\n        /* \"#utility.yul\":6912:6925   */\n      dup3\n        /* \"#utility.yul\":6848:6932   */\n      tag_83\n      jump\t// in\n    tag_186:\n        /* \"#utility.yul\":6840:6932   */\n      swap5\n      pop\n        /* \"#utility.yul\":6955:7025   */\n      tag_187\n        /* \"#utility.yul\":7018:7024   */\n      dup4\n        /* \"#utility.yul\":6955:7025   */\n      tag_84\n      jump\t// in\n    tag_187:\n        /* \"#utility.yul\":6945:7025   */\n      swap3\n      pop\n        /* \"#utility.yul\":7054:7058   */\n      0x20\n        /* \"#utility.yul\":7049:7052   */\n      dup11\n        /* \"#utility.yul\":7045:7059   */\n      add\n        /* \"#utility.yul\":7038:7059   */\n      swap10\n      pop\n        /* \"#utility.yul\":6733:7069   */\n      pop\n        /* \"#utility.yul\":6720:6721   */\n      0x01\n        /* \"#utility.yul\":6717:6718   */\n      dup2\n        /* \"#utility.yul\":6713:6722   */\n      add\n        /* \"#utility.yul\":6708:6722   */\n      swap1\n      pop\n        /* \"#utility.yul\":6673:7069   */\n      jump(tag_183)\n    tag_185:\n        /* \"#utility.yul\":6677:6691   */\n      pop\n        /* \"#utility.yul\":7085:7089   */\n      dup3\n        /* \"#utility.yul\":7078:7089   */\n      swap8\n      pop\n        /* \"#utility.yul\":7105:7108   */\n      dup8\n        /* \"#utility.yul\":7098:7108   */\n      swap6\n      pop\n        /* \"#utility.yul\":6267:7114   */\n      pop\n      pop\n      pop\n      pop\n      pop\n        /* \"#utility.yul\":6123:7114   */\n      swap3\n      swap2\n      pop\n      pop\n      jump\t// out\n        /* \"#utility.yul\":7120:7533   */\n    tag_20:\n        /* \"#utility.yul\":7283:7287   */\n      0x00\n        /* \"#utility.yul\":7321:7323   */\n      0x20\n        /* \"#utility.yul\":7310:7319   */\n      dup3\n        /* \"#utility.yul\":7306:7324   */\n      add\n        /* \"#utility.yul\":7298:7324   */\n      swap1\n      pop\n        /* \"#utility.yul\":7370:7379   */\n      dup2\n        /* \"#utility.yul\":7364:7368   */\n      dup2\n        /* \"#utility.yul\":7360:7380   */\n      sub\n        /* \"#utility.yul\":7356:7357   */\n      0x00\n        /* \"#utility.yul\":7345:7354   */\n      dup4\n        /* \"#utility.yul\":7341:7358   */\n      add\n        /* \"#utility.yul\":7334:7381   */\n      mstore\n        /* \"#utility.yul\":7398:7526   */\n      tag_189\n        /* \"#utility.yul\":7521:7525   */\n      dup2\n        /* \"#utility.yul\":7512:7518   */\n      dup5\n        /* \"#utility.yul\":7398:7526   */\n      tag_85\n      jump\t// in\n    tag_189:\n        /* \"#utility.yul\":7390:7526   */\n      swap1\n      pop\n        /* \"#utility.yul\":7120:7533   */\n      swap3\n      swap2\n      pop\n      pop\n      jump\t// out\n        /* \"#utility.yul\":7539:7708   */\n    tag_86:\n        /* \"#utility.yul\":7623:7634   */\n      0x00\n        /* \"#utility.yul\":7657:7663   */\n      dup3\n        /* \"#utility.yul\":7652:7655   */\n      dup3\n        /* \"#utility.yul\":7645:7664   */\n      mstore\n        /* \"#utility.yul\":7697:7701   */\n      0x20\n        /* \"#utility.yul\":7692:7695   */\n      dup3\n        /* \"#utility.yul\":7688:7702   */\n      add\n        /* \"#utility.yul\":7673:7702   */\n      swap1\n      pop\n        /* \"#utility.yul\":7539:7708   */\n      swap3\n      swap2\n      pop\n      pop\n      jump\t// out\n        /* \"#utility.yul\":7714:8091   */\n    tag_87:\n        /* \"#utility.yul\":7802:7805   */\n      0x00\n        /* \"#utility.yul\":7830:7869   */\n      tag_192\n        /* \"#utility.yul\":7863:7868   */\n      dup3\n        /* \"#utility.yul\":7830:7869   */\n      tag_79\n      jump\t// in\n    tag_192:\n        /* \"#utility.yul\":7885:7956   */\n      tag_193\n        /* \"#utility.yul\":7949:7955   */\n      dup2\n        /* \"#utility.yul\":7944:7947   */\n      dup6\n        /* \"#utility.yul\":7885:7956   */\n      tag_86\n      jump\t// in\n    tag_193:\n        /* \"#utility.yul\":7878:7956   */\n      swap4\n      pop\n        /* \"#utility.yul\":7965:8030   */\n      tag_194\n        /* \"#utility.yul\":8023:8029   */\n      dup2\n        /* \"#utility.yul\":8018:8021   */\n      dup6\n        /* \"#utility.yul\":8011:8015   */\n      0x20\n        /* \"#utility.yul\":8004:8009   */\n      dup7\n        /* \"#utility.yul\":8000:8016   */\n      add\n        /* \"#utility.yul\":7965:8030   */\n      tag_81\n      jump\t// in\n    tag_194:\n        /* \"#utility.yul\":8055:8084   */\n      tag_195\n        /* \"#utility.yul\":8077:8083   */\n      dup2\n        /* \"#utility.yul\":8055:8084   */\n      tag_69\n      jump\t// in\n    tag_195:\n        /* \"#utility.yul\":8050:8053   */\n      dup5\n        /* \"#utility.yul\":8046:8085   */\n      add\n        /* \"#utility.yul\":8039:8085   */\n      swap2\n      pop\n        /* \"#utility.yul\":7806:8091   */\n      pop\n        /* \"#utility.yul\":7714:8091   */\n      swap3\n      swap2\n      pop\n      pop\n      jump\t// out\n        /* \"#utility.yul\":8097:8410   */\n    tag_25:\n        /* \"#utility.yul\":8210:8214   */\n      0x00\n        /* \"#utility.yul\":8248:8250   */\n      0x20\n        /* \"#utility.yul\":8237:8246   */\n      dup3\n        /* \"#utility.yul\":8233:8251   */\n      add\n        /* \"#utility.yul\":8225:8251   */\n      swap1\n      pop\n        /* \"#utility.yul\":8297:8306   */\n      dup2\n        /* \"#utility.yul\":8291:8295   */\n      dup2\n        /* \"#utility.yul\":8287:8307   */\n      sub\n        /* \"#utility.yul\":8283:8284   */\n      0x00\n        /* \"#utility.yul\":8272:8281   */\n      dup4\n        /* \"#utility.yul\":8268:8285   */\n      add\n        /* \"#utility.yul\":8261:8308   */\n      mstore\n        /* \"#utility.yul\":8325:8403   */\n      tag_197\n        /* \"#utility.yul\":8398:8402   */\n      dup2\n        /* \"#utility.yul\":8389:8395   */\n      dup5\n        /* \"#utility.yul\":8325:8403   */\n      tag_87\n      jump\t// in\n    tag_197:\n        /* \"#utility.yul\":8317:8403   */\n      swap1\n      pop\n        /* \"#utility.yul\":8097:8410   */\n      swap3\n      swap2\n      pop\n      pop\n      jump\t// out\n        /* \"#utility.yul\":8416:8564   */\n    tag_88:\n        /* \"#utility.yul\":8518:8529   */\n      0x00\n        /* \"#utility.yul\":8555:8558   */\n      dup2\n        /* \"#utility.yul\":8540:8558   */\n      swap1\n      pop\n        /* \"#utility.yul\":8416:8564   */\n      swap3\n      swap2\n      pop\n      pop\n      jump\t// out\n        /* \"#utility.yul\":8570:8960   */\n    tag_89:\n        /* \"#utility.yul\":8676:8679   */\n      0x00\n        /* \"#utility.yul\":8704:8743   */\n      tag_200\n        /* \"#utility.yul\":8737:8742   */\n      dup3\n        /* \"#utility.yul\":8704:8743   */\n      tag_79\n      jump\t// in\n    tag_200:\n        /* \"#utility.yul\":8759:8848   */\n      tag_201\n        /* \"#utility.yul\":8841:8847   */\n      dup2\n        /* \"#utility.yul\":8836:8839   */\n      dup6\n        /* \"#utility.yul\":8759:8848   */\n      tag_88\n      jump\t// in\n    tag_201:\n        /* \"#utility.yul\":8752:8848   */\n      swap4\n      pop\n        /* \"#utility.yul\":8857:8922   */\n      tag_202\n        /* \"#utility.yul\":8915:8921   */\n      dup2\n        /* \"#utility.yul\":8910:8913   */\n      dup6\n        /* \"#utility.yul\":8903:8907   */\n      0x20\n        /* \"#utility.yul\":8896:8901   */\n      dup7\n        /* \"#utility.yul\":8892:8908   */\n      add\n        /* \"#utility.yul\":8857:8922   */\n      tag_81\n      jump\t// in\n    tag_202:\n        /* \"#utility.yul\":8947:8953   */\n      dup1\n        /* \"#utility.yul\":8942:8945   */\n      dup5\n        /* \"#utility.yul\":8938:8954   */\n      add\n        /* \"#utility.yul\":8931:8954   */\n      swap2\n      pop\n        /* \"#utility.yul\":8680:8960   */\n      pop\n        /* \"#utility.yul\":8570:8960   */\n      swap3\n      swap2\n      pop\n      pop\n      jump\t// out\n        /* \"#utility.yul\":8966:9117   */\n    tag_90:\n        /* \"#utility.yul\":9106:9109   */\n      0x2000000000000000000000000000000000000000000000000000000000000000\n        /* \"#utility.yul\":9102:9103   */\n      0x00\n        /* \"#utility.yul\":9094:9100   */\n      dup3\n        /* \"#utility.yul\":9090:9104   */\n      add\n        /* \"#utility.yul\":9083:9110   */\n      mstore\n        /* \"#utility.yul\":8966:9117   */\n      pop\n      jump\t// out\n        /* \"#utility.yul\":9123:9523   */\n    tag_91:\n        /* \"#utility.yul\":9283:9286   */\n      0x00\n        /* \"#utility.yul\":9304:9388   */\n      tag_205\n        /* \"#utility.yul\":9386:9387   */\n      0x01\n        /* \"#utility.yul\":9381:9384   */\n      dup4\n        /* \"#utility.yul\":9304:9388   */\n      tag_88\n      jump\t// in\n    tag_205:\n        /* \"#utility.yul\":9297:9388   */\n      swap2\n      pop\n        /* \"#utility.yul\":9397:9490   */\n      tag_206\n        /* \"#utility.yul\":9486:9489   */\n      dup3\n        /* \"#utility.yul\":9397:9490   */\n      tag_90\n      jump\t// in\n    tag_206:\n        /* \"#utility.yul\":9515:9516   */\n      0x01\n        /* \"#utility.yul\":9510:9513   */\n      dup3\n        /* \"#utility.yul\":9506:9517   */\n      add\n        /* \"#utility.yul\":9499:9517   */\n      swap1\n      pop\n        /* \"#utility.yul\":9123:9523   */\n      swap2\n      swap1\n      pop\n      jump\t// out\n        /* \"#utility.yul\":9529:9608   */\n    tag_92:\n        /* \"#utility.yul\":9568:9575   */\n      0x00\n        /* \"#utility.yul\":9597:9602   */\n      dup2\n        /* \"#utility.yul\":9586:9602   */\n      swap1\n      pop\n        /* \"#utility.yul\":9529:9608   */\n      swap2\n      swap1\n      pop\n      jump\t// out\n        /* \"#utility.yul\":9614:9771   */\n    tag_93:\n        /* \"#utility.yul\":9719:9764   */\n      tag_209\n        /* \"#utility.yul\":9739:9763   */\n      tag_210\n        /* \"#utility.yul\":9757:9762   */\n      dup3\n        /* \"#utility.yul\":9739:9763   */\n      tag_63\n      jump\t// in\n    tag_210:\n        /* \"#utility.yul\":9719:9764   */\n      tag_92\n      jump\t// in\n    tag_209:\n        /* \"#utility.yul\":9714:9717   */\n      dup3\n        /* \"#utility.yul\":9707:9765   */\n      mstore\n        /* \"#utility.yul\":9614:9771   */\n      pop\n      pop\n      jump\t// out\n        /* \"#utility.yul\":9777:10459   */\n    tag_30:\n        /* \"#utility.yul\":10038:10041   */\n      0x00\n        /* \"#utility.yul\":10060:10155   */\n      tag_212\n        /* \"#utility.yul\":10151:10154   */\n      dup3\n        /* \"#utility.yul\":10142:10148   */\n      dup6\n        /* \"#utility.yul\":10060:10155   */\n      tag_89\n      jump\t// in\n    tag_212:\n        /* \"#utility.yul\":10053:10155   */\n      swap2\n      pop\n        /* \"#utility.yul\":10172:10320   */\n      tag_213\n        /* \"#utility.yul\":10316:10319   */\n      dup3\n        /* \"#utility.yul\":10172:10320   */\n      tag_91\n      jump\t// in\n    tag_213:\n        /* \"#utility.yul\":10165:10320   */\n      swap2\n      pop\n        /* \"#utility.yul\":10330:10405   */\n      tag_214\n        /* \"#utility.yul\":10401:10404   */\n      dup3\n        /* \"#utility.yul\":10392:10398   */\n      dup5\n        /* \"#utility.yul\":10330:10405   */\n      tag_93\n      jump\t// in\n    tag_214:\n        /* \"#utility.yul\":10430:10432   */\n      0x20\n        /* \"#utility.yul\":10425:10428   */\n      dup3\n        /* \"#utility.yul\":10421:10433   */\n      add\n        /* \"#utility.yul\":10414:10433   */\n      swap2\n      pop\n        /* \"#utility.yul\":10450:10453   */\n      dup2\n        /* \"#utility.yul\":10443:10453   */\n      swap1\n      pop\n        /* \"#utility.yul\":9777:10459   */\n      swap4\n      swap3\n      pop\n      pop\n      pop\n      jump\t// out\n        /* \"#utility.yul\":10465:10645   */\n    tag_94:\n        /* \"#utility.yul\":10513:10590   */\n      0x4e487b7100000000000000000000000000000000000000000000000000000000\n        /* \"#utility.yul\":10510:10511   */\n      0x00\n        /* \"#utility.yul\":10503:10591   */\n      mstore\n        /* \"#utility.yul\":10610:10614   */\n      0x22\n        /* \"#utility.yul\":10607:10608   */\n      0x04\n        /* \"#utility.yul\":10600:10615   */\n      mstore\n        /* \"#utility.yul\":10634:10638   */\n      0x24\n        /* \"#utility.yul\":10631:10632   */\n      0x00\n        /* \"#utility.yul\":10624:10639   */\n      revert\n        /* \"#utility.yul\":10651:10971   */\n    tag_48:\n        /* \"#utility.yul\":10695:10701   */\n      0x00\n        /* \"#utility.yul\":10732:10733   */\n      0x02\n        /* \"#utility.yul\":10726:10730   */\n      dup3\n        /* \"#utility.yul\":10722:10734   */\n      div\n        /* \"#utility.yul\":10712:10734   */\n      swap1\n      pop\n        /* \"#utility.yul\":10779:10780   */\n      0x01\n        /* \"#utility.yul\":10773:10777   */\n      dup3\n        /* \"#utility.yul\":10769:10781   */\n      and\n        /* \"#utility.yul\":10800:10818   */\n      dup1\n        /* \"#utility.yul\":10790:10871   */\n      tag_217\n      jumpi\n        /* \"#utility.yul\":10856:10860   */\n      0x7f\n        /* \"#utility.yul\":10848:10854   */\n      dup3\n        /* \"#utility.yul\":10844:10861   */\n      and\n        /* \"#utility.yul\":10834:10861   */\n      swap2\n      pop\n        /* \"#utility.yul\":10790:10871   */\n    tag_217:\n        /* \"#utility.yul\":10918:10920   */\n      0x20\n        /* \"#utility.yul\":10910:10916   */\n      dup3\n        /* \"#utility.yul\":10907:10921   */\n      lt\n        /* \"#utility.yul\":10887:10905   */\n      dup2\n        /* \"#utility.yul\":10884:10922   */\n      sub\n        /* \"#utility.yul\":10881:10965   */\n      tag_218\n      jumpi\n        /* \"#utility.yul\":10937:10955   */\n      tag_219\n      tag_94\n      jump\t// in\n    tag_219:\n        /* \"#utility.yul\":10881:10965   */\n    tag_218:\n        /* \"#utility.yul\":10702:10971   */\n      pop\n        /* \"#utility.yul\":10651:10971   */\n      swap2\n      swap1\n      pop\n      jump\t// out\n        /* \"#utility.yul\":10977:11118   */\n    tag_95:\n        /* \"#utility.yul\":11026:11030   */\n      0x00\n        /* \"#utility.yul\":11049:11052   */\n      dup2\n        /* \"#utility.yul\":11041:11052   */\n      swap1\n      pop\n        /* \"#utility.yul\":11072:11075   */\n      dup2\n        /* \"#utility.yul\":11069:11070   */\n      0x00\n        /* \"#utility.yul\":11062:11076   */\n      mstore\n        /* \"#utility.yul\":11106:11110   */\n      0x20\n        /* \"#utility.yul\":11103:11104   */\n      0x00\n        /* \"#utility.yul\":11093:11111   */\n      keccak256\n        /* \"#utility.yul\":11085:11111   */\n      swap1\n      pop\n        /* \"#utility.yul\":10977:11118   */\n      swap2\n      swap1\n      pop\n      jump\t// out\n        /* \"#utility.yul\":11124:11217   */\n    tag_96:\n        /* \"#utility.yul\":11161:11167   */\n      0x00\n        /* \"#utility.yul\":11208:11210   */\n      0x20\n        /* \"#utility.yul\":11203:11205   */\n      0x1f\n        /* \"#utility.yul\":11196:11201   */\n      dup4\n        /* \"#utility.yul\":11192:11206   */\n      add\n        /* \"#utility.yul\":11188:11211   */\n      div\n        /* \"#utility.yul\":11178:11211   */\n      swap1\n      pop\n        /* \"#utility.yul\":11124:11217   */\n      swap2\n      swap1\n      pop\n      jump\t// out\n        /* \"#utility.yul\":11223:11330   */\n    tag_97:\n        /* \"#utility.yul\":11267:11275   */\n      0x00\n        /* \"#utility.yul\":11317:11322   */\n      dup3\n        /* \"#utility.yul\":11311:11315   */\n      dup3\n        /* \"#utility.yul\":11307:11323   */\n      shl\n        /* \"#utility.yul\":11286:11323   */\n      swap1\n      pop\n        /* \"#utility.yul\":11223:11330   */\n      swap3\n      swap2\n      pop\n      pop\n      jump\t// out\n        /* \"#utility.yul\":11336:11729   */\n    tag_98:\n        /* \"#utility.yul\":11405:11411   */\n      0x00\n        /* \"#utility.yul\":11455:11456   */\n      0x08\n        /* \"#utility.yul\":11443:11453   */\n      dup4\n        /* \"#utility.yul\":11439:11457   */\n      mul\n        /* \"#utility.yul\":11478:11575   */\n      tag_224\n        /* \"#utility.yul\":11508:11574   */\n      0xffffffffffffffffffffffffffffffffffffffffffffffffffffffffffffffff\n        /* \"#utility.yul\":11497:11506   */\n      dup3\n        /* \"#utility.yul\":11478:11575   */\n      tag_97\n      jump\t// in\n    tag_224:\n        /* \"#utility.yul\":11596:11635   */\n      tag_225\n        /* \"#utility.yul\":11626:11634   */\n      dup7\n        /* \"#utility.yul\":11615:11624   */\n      dup4\n        /* \"#utility.yul\":11596:11635   */\n      tag_97\n      jump\t// in\n    tag_225:\n        /* \"#utility.yul\":11584:11635   */\n      swap6\n      pop\n        /* \"#utility.yul\":11668:11672   */\n      dup1\n        /* \"#utility.yul\":11664:11673   */\n      not\n        /* \"#utility.yul\":11657:11662   */\n      dup5\n        /* \"#utility.yul\":11653:11674   */\n      and\n        /* \"#utility.yul\":11644:11674   */\n      swap4\n      pop\n        /* \"#utility.yul\":11717:11721   */\n      dup1\n        /* \"#utility.yul\":11707:11715   */\n      dup7\n        /* \"#utility.yul\":11703:11722   */\n      and\n        /* \"#utility.yul\":11696:11701   */\n      dup5\n        /* \"#utility.yul\":11693:11723   */\n      or\n        /* \"#utility.yul\":11683:11723   */\n      swap3\n      pop\n        /* \"#utility.yul\":11412:11729   */\n      pop\n      pop\n        /* \"#utility.yul\":11336:11729   */\n      swap4\n      swap3\n      pop\n      pop\n      pop\n      jump\t// out\n        /* \"#utility.yul\":11735:11795   */\n    tag_99:\n        /* \"#utility.yul\":11763:11766   */\n      0x00\n        /* \"#utility.yul\":11784:11789   */\n      dup2\n        /* \"#utility.yul\":11777:11789   */\n      swap1\n      pop\n        /* \"#utility.yul\":11735:11795   */\n      swap2\n      swap1\n      pop\n      jump\t// out\n        /* \"#utility.yul\":11801:11943   */\n    tag_100:\n        /* \"#utility.yul\":11851:11860   */\n      0x00\n        /* \"#utility.yul\":11884:11937   */\n      tag_228\n        /* \"#utility.yul\":11902:11936   */\n      tag_229\n        /* \"#utility.yul\":11911:11935   */\n      tag_230\n        /* \"#utility.yul\":11929:11934   */\n      dup5\n        /* \"#utility.yul\":11911:11935   */\n      tag_63\n      jump\t// in\n    tag_230:\n        /* \"#utility.yul\":11902:11936   */\n      tag_99\n      jump\t// in\n    tag_229:\n        /* \"#utility.yul\":11884:11937   */\n      tag_63\n      jump\t// in\n    tag_228:\n        /* \"#utility.yul\":11871:11937   */\n      swap1\n      pop\n        /* \"#utility.yul\":11801:11943   */\n      swap2\n      swap1\n      pop\n      jump\t// out\n        /* \"#utility.yul\":11949:12024   */\n    tag_101:\n        /* \"#utility.yul\":11992:11995   */\n      0x00\n        /* \"#utility.yul\":12013:12018   */\n      dup2\n        /* \"#utility.yul\":12006:12018   */\n      swap1\n      pop\n        /* \"#utility.yul\":11949:12024   */\n      swap2\n      swap1\n      pop\n      jump\t// out\n        /* \"#utility.yul\":12030:12299   */\n    tag_102:\n        /* \"#utility.yul\":12140:12179   */\n      tag_233\n        /* \"#utility.yul\":12171:12178   */\n      dup4\n        /* \"#utility.yul\":12140:12179   */\n      tag_100\n      jump\t// in\n    tag_233:\n        /* \"#utility.yul\":12201:12292   */\n      tag_234\n        /* \"#utility.yul\":12250:12291   */\n      tag_235\n        /* \"#utility.yul\":12274:12290   */\n      dup3\n        /* \"#utility.yul\":12250:12291   */\n      tag_101\n      jump\t// in\n    tag_235:\n        /* \"#utility.yul\":12242:12248   */\n      dup5\n        /* \"#utility.yul\":12235:12239   */\n      dup5\n        /* \"#utility.yul\":12229:12240   */\n      sload\n        /* \"#utility.yul\":12201:12292   */\n      tag_98\n      jump\t// in\n    tag_234:\n        /* \"#utility.yul\":12195:12199   */\n      dup3\n        /* \"#utility.yul\":12188:12293   */\n      sstore\n        /* \"#utility.yul\":12106:12299   */\n      pop\n        /* \"#utility.yul\":12030:12299   */\n      pop\n      pop\n      pop\n      jump\t// out\n        /* \"#utility.yul\":12305:12378   */\n    tag_103:\n        /* \"#utility.yul\":12350:12353   */\n      0x00\n        /* \"#utility.yul\":12305:12378   */\n      swap1\n      jump\t// out\n        /* \"#utility.yul\":12384:12573   */\n    tag_104:\n        /* \"#utility.yul\":12461:12493   */\n      tag_238\n      tag_103\n      jump\t// in\n    tag_238:\n        /* \"#utility.yul\":12502:12567   */\n      tag_239\n        /* \"#utility.yul\":12560:12566   */\n      dup2\n        /* \"#utility.yul\":12552:12558   */\n      dup5\n        /* \"#utility.yul\":12546:12550   */\n      dup5\n        /* \"#utility.yul\":12502:12567   */\n      tag_102\n      jump\t// in\n    tag_239:\n        /* \"#utility.yul\":12437:12573   */\n      pop\n        /* \"#utility.yul\":12384:12573   */\n      pop\n      pop\n      jump\t// out\n        /* \"#utility.yul\":12579:12765   */\n    tag_105:\n        /* \"#utility.yul\":12639:12759   */\n    tag_241:\n        /* \"#utility.yul\":12656:12659   */\n      dup2\n        /* \"#utility.yul\":12649:12654   */\n      dup2\n        /* \"#utility.yul\":12646:12660   */\n      lt\n        /* \"#utility.yul\":12639:12759   */\n      iszero\n      tag_243\n      jumpi\n        /* \"#utility.yul\":12710:12749   */\n      tag_244\n        /* \"#utility.yul\":12747:12748   */\n      0x00\n        /* \"#utility.yul\":12740:12745   */\n      dup3\n        /* \"#utility.yul\":12710:12749   */\n      tag_104\n      jump\t// in\n    tag_244:\n        /* \"#utility.yul\":12683:12684   */\n      0x01\n        /* \"#utility.yul\":12676:12681   */\n      dup2\n        /* \"#utility.yul\":12672:12685   */\n      add\n        /* \"#utility.yul\":12663:12685   */\n      swap1\n      pop\n        /* \"#utility.yul\":12639:12759   */\n      jump(tag_241)\n    tag_243:\n        /* \"#utility.yul\":12579:12765   */\n      pop\n      pop\n      jump\t// out\n        /* \"#utility.yul\":12771:13314   */\n    tag_106:\n        /* \"#utility.yul\":12872:12874   */\n      0x1f\n        /* \"#utility.yul\":12867:12870   */\n      dup3\n        /* \"#utility.yul\":12864:12875   */\n      gt\n        /* \"#utility.yul\":12861:13307   */\n      iszero\n      tag_246\n      jumpi\n        /* \"#utility.yul\":12906:12944   */\n      tag_247\n        /* \"#utility.yul\":12938:12943   */\n      dup2\n        /* \"#utility.yul\":12906:12944   */\n      tag_95\n      jump\t// in\n    tag_247:\n        /* \"#utility.yul\":12990:13019   */\n      tag_248\n        /* \"#utility.yul\":13008:13018   */\n      dup5\n        /* \"#utility.yul\":12990:13019   */\n      tag_96\n      jump\t// in\n    tag_248:\n        /* \"#utility.yul\":12980:12988   */\n      dup2\n        /* \"#utility.yul\":12976:13020   */\n      add\n        /* \"#utility.yul\":13173:13175   */\n      0x20\n        /* \"#utility.yul\":13161:13171   */\n      dup6\n        /* \"#utility.yul\":13158:13176   */\n      lt\n        /* \"#utility.yul\":13155:13204   */\n      iszero\n      tag_249\n      jumpi\n        /* \"#utility.yul\":13194:13202   */\n      dup2\n        /* \"#utility.yul\":13179:13202   */\n      swap1\n      pop\n        /* \"#utility.yul\":13155:13204   */\n    tag_249:\n        /* \"#utility.yul\":13217:13297   */\n      tag_250\n        /* \"#utility.yul\":13273:13295   */\n      tag_251\n        /* \"#utility.yul\":13291:13294   */\n      dup6\n        /* \"#utility.yul\":13273:13295   */\n      tag_96\n      jump\t// in\n    tag_251:\n        /* \"#utility.yul\":13263:13271   */\n      dup4\n        /* \"#utility.yul\":13259:13296   */\n      add\n        /* \"#utility.yul\":13246:13257   */\n      dup3\n        /* \"#utility.yul\":13217:13297   */\n      tag_105\n      jump\t// in\n    tag_250:\n        /* \"#utility.yul\":12876:13307   */\n      pop\n      pop\n        /* \"#utility.yul\":12861:13307   */\n    tag_246:\n        /* \"#utility.yul\":12771:13314   */\n      pop\n      pop\n      pop\n      jump\t// out\n        /* \"#utility.yul\":13320:13437   */\n    tag_107:\n        /* \"#utility.yul\":13374:13382   */\n      0x00\n        /* \"#utility.yul\":13424:13429   */\n      dup3\n        /* \"#utility.yul\":13418:13422   */\n      dup3\n        /* \"#utility.yul\":13414:13430   */\n      shr\n        /* \"#utility.yul\":13393:13430   */\n      swap1\n      pop\n        /* \"#utility.yul\":13320:13437   */\n      swap3\n      swap2\n      pop\n      pop\n      jump\t// out\n        /* \"#utility.yul\":13443:13612   */\n    tag_108:\n        /* \"#utility.yul\":13487:13493   */\n      0x00\n        /* \"#utility.yul\":13520:13571   */\n      tag_254\n        /* \"#utility.yul\":13568:13569   */\n      0x00\n        /* \"#utility.yul\":13564:13570   */\n      not\n        /* \"#utility.yul\":13556:13561   */\n      dup5\n        /* \"#utility.yul\":13553:13554   */\n      0x08\n        /* \"#utility.yul\":13549:13562   */\n      mul\n        /* \"#utility.yul\":13520:13571   */\n      tag_107\n      jump\t// in\n    tag_254:\n        /* \"#utility.yul\":13516:13572   */\n      not\n        /* \"#utility.yul\":13601:13605   */\n      dup1\n        /* \"#utility.yul\":13595:13599   */\n      dup4\n        /* \"#utility.yul\":13591:13606   */\n      and\n        /* \"#utility.yul\":13581:13606   */\n      swap2\n      pop\n        /* \"#utility.yul\":13494:13612   */\n      pop\n        /* \"#utility.yul\":13443:13612   */\n      swap3\n      swap2\n      pop\n      pop\n      jump\t// out\n        /* \"#utility.yul\":13617:13912   */\n    tag_109:\n        /* \"#utility.yul\":13693:13697   */\n      0x00\n        /* \"#utility.yul\":13839:13868   */\n      tag_256\n        /* \"#utility.yul\":13864:13867   */\n      dup4\n        /* \"#utility.yul\":13858:13862   */\n      dup4\n        /* \"#utility.yul\":13839:13868   */\n      tag_108\n      jump\t// in\n    tag_256:\n        /* \"#utility.yul\":13831:13868   */\n      swap2\n      pop\n        /* \"#utility.yul\":13901:13904   */\n      dup3\n        /* \"#utility.yul\":13898:13899   */\n      0x02\n        /* \"#utility.yul\":13894:13905   */\n      mul\n        /* \"#utility.yul\":13888:13892   */\n      dup3\n        /* \"#utility.yul\":13885:13906   */\n      or\n        /* \"#utility.yul\":13877:13906   */\n      swap1\n      pop\n        /* \"#utility.yul\":13617:13912   */\n      swap3\n      swap2\n      pop\n      pop\n      jump\t// out\n        /* \"#utility.yul\":13917:15312   */\n    tag_32:\n        /* \"#utility.yul\":14034:14071   */\n      tag_258\n        /* \"#utility.yul\":14067:14070   */\n      dup3\n        /* \"#utility.yul\":14034:14071   */\n      tag_79\n      jump\t// in\n    tag_258:\n        /* \"#utility.yul\":14136:14154   */\n      0xffffffffffffffff\n        /* \"#utility.yul\":14128:14134   */\n      dup2\n        /* \"#utility.yul\":14125:14155   */\n      gt\n        /* \"#utility.yul\":14122:14178   */\n      iszero\n      tag_259\n      jumpi\n        /* \"#utility.yul\":14158:14176   */\n      tag_260\n      tag_37\n      jump\t// in\n    tag_260:\n        /* \"#utility.yul\":14122:14178   */\n    tag_259:\n        /* \"#utility.yul\":14202:14240   */\n      tag_261\n        /* \"#utility.yul\":14234:14238   */\n      dup3\n        /* \"#utility.yul\":14228:14239   */\n      sload\n        /* \"#utility.yul\":14202:14240   */\n      tag_48\n      jump\t// in\n    tag_261:\n        /* \"#utility.yul\":14287:14354   */\n      tag_262\n        /* \"#utility.yul\":14347:14353   */\n      dup3\n        /* \"#utility.yul\":14339:14345   */\n      dup3\n        /* \"#utility.yul\":14333:14337   */\n      dup6\n        /* \"#utility.yul\":14287:14354   */\n      tag_106\n      jump\t// in\n    tag_262:\n        /* \"#utility.yul\":14381:14382   */\n      0x00\n        /* \"#utility.yul\":14405:14409   */\n      0x20\n        /* \"#utility.yul\":14392:14409   */\n      swap1\n      pop\n        /* \"#utility.yul\":14437:14439   */\n      0x1f\n        /* \"#utility.yul\":14429:14435   */\n      dup4\n        /* \"#utility.yul\":14426:14440   */\n      gt\n        /* \"#utility.yul\":14454:14455   */\n      0x01\n        /* \"#utility.yul\":14449:15067   */\n      dup2\n      eq\n      tag_264\n      jumpi\n        /* \"#utility.yul\":15111:15112   */\n      0x00\n        /* \"#utility.yul\":15128:15134   */\n      dup5\n        /* \"#utility.yul\":15125:15202   */\n      iszero\n      tag_265\n      jumpi\n        /* \"#utility.yul\":15177:15186   */\n      dup3\n        /* \"#utility.yul\":15172:15175   */\n      dup8\n        /* \"#utility.yul\":15168:15187   */\n      add\n        /* \"#utility.yul\":15162:15188   */\n      mload\n        /* \"#utility.yul\":15153:15188   */\n      swap1\n      pop\n        /* \"#utility.yul\":15125:15202   */\n    tag_265:\n        /* \"#utility.yul\":15228:15295   */\n      tag_266\n        /* \"#utility.yul\":15288:15294   */\n      dup6\n        /* \"#utility.yul\":15281:15286   */\n      dup3\n        /* \"#utility.yul\":15228:15295   */\n      tag_109\n      jump\t// in\n    tag_266:\n        /* \"#utility.yul\":15222:15226   */\n      dup7\n        /* \"#utility.yul\":15215:15296   */\n      sstore\n        /* \"#utility.yul\":15084:15306   */\n      pop\n        /* \"#utility.yul\":14419:15306   */\n      jump(tag_263)\n        /* \"#utility.yul\":14449:15067   */\n    tag_264:\n        /* \"#utility.yul\":14501:14505   */\n      0x1f\n        /* \"#utility.yul\":14497:14506   */\n      not\n        /* \"#utility.yul\":14489:14495   */\n      dup5\n        /* \"#utility.yul\":14485:14507   */\n      and\n        /* \"#utility.yul\":14535:14572   */\n      tag_267\n        /* \"#utility.yul\":14567:14571   */\n      dup7\n        /* \"#utility.yul\":14535:14572   */\n      tag_95\n      jump\t// in\n    tag_267:\n        /* \"#utility.yul\":14594:14595   */\n      0x00\n        /* \"#utility.yul\":14608:14816   */\n    tag_268:\n        /* \"#utility.yul\":14622:14629   */\n      dup3\n        /* \"#utility.yul\":14619:14620   */\n      dup2\n        /* \"#utility.yul\":14616:14630   */\n      lt\n        /* \"#utility.yul\":14608:14816   */\n      iszero\n      tag_270\n      jumpi\n        /* \"#utility.yul\":14701:14710   */\n      dup5\n        /* \"#utility.yul\":14696:14699   */\n      dup10\n        /* \"#utility.yul\":14692:14711   */\n      add\n        /* \"#utility.yul\":14686:14712   */\n      mload\n        /* \"#utility.yul\":14678:14684   */\n      dup3\n        /* \"#utility.yul\":14671:14713   */\n      sstore\n        /* \"#utility.yul\":14752:14753   */\n      0x01\n        /* \"#utility.yul\":14744:14750   */\n      dup3\n        /* \"#utility.yul\":14740:14754   */\n      add\n        /* \"#utility.yul\":14730:14754   */\n      swap2\n      pop\n        /* \"#utility.yul\":14799:14801   */\n      0x20\n        /* \"#utility.yul\":14788:14797   */\n      dup6\n        /* \"#utility.yul\":14784:14802   */\n      add\n        /* \"#utility.yul\":14771:14802   */\n      swap5\n      pop\n        /* \"#utility.yul\":14645:14649   */\n      0x20\n        /* \"#utility.yul\":14642:14643   */\n      dup2\n        /* \"#utility.yul\":14638:14650   */\n      add\n        /* \"#utility.yul\":14633:14650   */\n      swap1\n      pop\n        /* \"#utility.yul\":14608:14816   */\n      jump(tag_268)\n    tag_270:\n        /* \"#utility.yul\":14844:14850   */\n      dup7\n        /* \"#utility.yul\":14835:14842   */\n      dup4\n        /* \"#utility.yul\":14832:14851   */\n      lt\n        /* \"#utility.yul\":14829:15008   */\n      iszero\n      tag_271\n      jumpi\n        /* \"#utility.yul\":14902:14911   */\n      dup5\n        /* \"#utility.yul\":14897:14900   */\n      dup10\n        /* \"#utility.yul\":14893:14912   */\n      add\n        /* \"#utility.yul\":14887:14913   */\n      mload\n        /* \"#utility.yul\":14945:14993   */\n      tag_272\n        /* \"#utility.yul\":14987:14991   */\n      0x1f\n        /* \"#utility.yul\":14979:14985   */\n      dup10\n        /* \"#utility.yul\":14975:14992   */\n      and\n        /* \"#utility.yul\":14964:14973   */\n      dup3\n        /* \"#utility.yul\":14945:14993   */\n      tag_108\n      jump\t// in\n    tag_272:\n        /* \"#utility.yul\":14937:14943   */\n      dup4\n        /* \"#utility.yul\":14930:14994   */\n      sstore\n        /* \"#utility.yul\":14852:15008   */\n      pop\n        /* \"#utility.yul\":14829:15008   */\n    tag_271:\n        /* \"#utility.yul\":15054:15055   */\n      0x01\n        /* \"#utility.yul\":15050:15051   */\n      0x02\n        /* \"#utility.yul\":15042:15048   */\n      dup9\n        /* \"#utility.yul\":15038:15052   */\n      mul\n        /* \"#utility.yul\":15034:15056   */\n      add\n        /* \"#utility.yul\":15028:15032   */\n      dup9\n        /* \"#utility.yul\":15021:15057   */\n      sstore\n        /* \"#utility.yul\":14456:15067   */\n      pop\n      pop\n      pop\n        /* \"#utility.yul\":14419:15306   */\n    tag_263:\n      pop\n        /* \"#utility.yul\":14009:15312   */\n      pop\n      pop\n      pop\n        /* \"#utility.yul\":13917:15312   */\n      pop\n      pop\n      jump\t// out\n        /* \"#utility.yul\":15318:15498   */\n    tag_45:\n        /* \"#utility.yul\":15366:15443   */\n      0x4e487b7100000000000000000000000000000000000000000000000000000000\n        /* \"#utility.yul\":15363:15364   */\n      0x00\n        /* \"#utility.yul\":15356:15444   */\n      mstore\n        /* \"#utility.yul\":15463:15467   */\n      0x32\n        /* \"#utility.yul\":15460:15461   */\n      0x04\n        /* \"#utility.yul\":15453:15468   */\n      mstore\n        /* \"#utility.yul\":15487:15491   */\n      0x24\n        /* \"#utility.yul\":15484:15485   */\n      0x00\n        /* \"#utility.yul\":15477:15492   */\n      revert\n\n    auxdata: 0xa26469706673582212207a9d56061eacf77fb626acc027065d6f18f1e57eb15e5c8963e56a30f629fa3064736f6c63430008160033\n}\n",
				"bytecode": {
					"linkReferences": {},
					"object": "608060405234801561000f575f80fd5b50610b578061001d5f395ff3fe608060405234801561000f575f80fd5b506004361061004a575f3560e01c80630cb6aaf11461004e5780633df9b3661461007e5780637fa4ba871461009a578063a08f6bdd146100b8575b5f80fd5b6100686004803603810190610063919061039d565b6100e8565b60405161007591906103d7565b60405180910390f35b6100986004803603810190610093919061052c565b610108565b005b6100a2610172565b6040516100af91906106cd565b60405180910390f35b6100d260048036038101906100cd919061039d565b6102bf565b6040516100df9190610735565b60405180910390f35b600181815481106100f7575f80fd5b905f5260205f20015f915090505481565b818160405160200161011b9291906107f9565b6040516020818303038152906040525f808581526020019081526020015f2090816101469190610a25565b50600183908060018154018082558091505060019003905f5260205f20015f9091909190915055505050565b60605f60018054905067ffffffffffffffff81111561019457610193610408565b5b6040519080825280602002602001820160405280156101c757816020015b60608152602001906001900390816101b25790505b5090505f5b6001805490508110156102b7575f80600183815481106101ef576101ee610af4565b5b905f5260205f20015481526020019081526020015f20805461021090610858565b80601f016020809104026020016040519081016040528092919081815260200182805461023c90610858565b80156102875780601f1061025e57610100808354040283529160200191610287565b820191905f5260205f20905b81548152906001019060200180831161026a57829003601f168201915b505050505082828151811061029f5761029e610af4565b5b602002602001018190525080806001019150506101cc565b508091505090565b5f602052805f5260405f205f9150905080546102da90610858565b80601f016020809104026020016040519081016040528092919081815260200182805461030690610858565b80156103515780601f1061032857610100808354040283529160200191610351565b820191905f5260205f20905b81548152906001019060200180831161033457829003601f168201915b505050505081565b5f604051905090565b5f80fd5b5f80fd5b5f819050919050565b61037c8161036a565b8114610386575f80fd5b50565b5f8135905061039781610373565b92915050565b5f602082840312156103b2576103b1610362565b5b5f6103bf84828501610389565b91505092915050565b6103d18161036a565b82525050565b5f6020820190506103ea5f8301846103c8565b92915050565b5f80fd5b5f80fd5b5f601f19601f8301169050919050565b7f4e487b71000000000000000000000000000000000000000000000000000000005f52604160045260245ffd5b61043e826103f8565b810181811067ffffffffffffffff8211171561045d5761045c610408565b5b80604052505050565b5f61046f610359565b905061047b8282610435565b919050565b5f67ffffffffffffffff82111561049a57610499610408565b5b6104a3826103f8565b9050602081019050919050565b828183375f83830152505050565b5f6104d06104cb84610480565b610466565b9050828152602081018484840111156104ec576104eb6103f4565b5b6104f78482856104b0565b509392505050565b5f82601f830112610513576105126103f0565b5b81356105238482602086016104be565b91505092915050565b5f805f6060848603121561054357610542610362565b5b5f61055086828701610389565b935050602084013567ffffffffffffffff81111561057157610570610366565b5b61057d868287016104ff565b925050604061058e86828701610389565b9150509250925092565b5f81519050919050565b5f82825260208201905092915050565b5f819050602082019050919050565b5f81519050919050565b5f82825260208201905092915050565b5f5b838110156105f85780820151818401526020810190506105dd565b5f8484015250505050565b5f61060d826105c1565b61061781856105cb565b93506106278185602086016105db565b610630816103f8565b840191505092915050565b5f6106468383610603565b905092915050565b5f602082019050919050565b5f61066482610598565b61066e81856105a2565b935083602082028501610680856105b2565b805f5b858110156106bb578484038952815161069c858261063b565b94506106a78361064e565b925060208a01995050600181019050610683565b50829750879550505050505092915050565b5f6020820190508181035f8301526106e5818461065a565b905092915050565b5f82825260208201905092915050565b5f610707826105c1565b61071181856106ed565b93506107218185602086016105db565b61072a816103f8565b840191505092915050565b5f6020820190508181035f83015261074d81846106fd565b905092915050565b5f81905092915050565b5f610769826105c1565b6107738185610755565b93506107838185602086016105db565b80840191505092915050565b7f20000000000000000000000000000000000000000000000000000000000000005f82015250565b5f6107c3600183610755565b91506107ce8261078f565b600182019050919050565b5f819050919050565b6107f36107ee8261036a565b6107d9565b82525050565b5f610804828561075f565b915061080f826107b7565b915061081b82846107e2565b6020820191508190509392505050565b7f4e487b71000000000000000000000000000000000000000000000000000000005f52602260045260245ffd5b5f600282049050600182168061086f57607f821691505b6020821081036108825761088161082b565b5b50919050565b5f819050815f5260205f209050919050565b5f6020601f8301049050919050565b5f82821b905092915050565b5f600883026108e47fffffffffffffffffffffffffffffffffffffffffffffffffffffffffffffffff826108a9565b6108ee86836108a9565b95508019841693508086168417925050509392505050565b5f819050919050565b5f61092961092461091f8461036a565b610906565b61036a565b9050919050565b5f819050919050565b6109428361090f565b61095661094e82610930565b8484546108b5565b825550505050565b5f90565b61096a61095e565b610975818484610939565b505050565b5b818110156109985761098d5f82610962565b60018101905061097b565b5050565b601f8211156109dd576109ae81610888565b6109b78461089a565b810160208510156109c6578190505b6109da6109d28561089a565b83018261097a565b50505b505050565b5f82821c905092915050565b5f6109fd5f19846008026109e2565b1980831691505092915050565b5f610a1583836109ee565b9150826002028217905092915050565b610a2e826105c1565b67ffffffffffffffff811115610a4757610a46610408565b5b610a518254610858565b610a5c82828561099c565b5f60209050601f831160018114610a8d575f8415610a7b578287015190505b610a858582610a0a565b865550610aec565b601f198416610a9b86610888565b5f5b82811015610ac257848901518255600182019150602085019450602081019050610a9d565b86831015610adf5784890151610adb601f8916826109ee565b8355505b6001600288020188555050505b505050505050565b7f4e487b71000000000000000000000000000000000000000000000000000000005f52603260045260245ffdfea26469706673582212207a9d56061eacf77fb626acc027065d6f18f1e57eb15e5c8963e56a30f629fa3064736f6c63430008160033",
					"opcodes": "PUSH1 0x80 PUSH1 0x40 MSTORE CALLVALUE DUP1 ISZERO PUSH2 0xF JUMPI PUSH0 DUP1 REVERT JUMPDEST POP PUSH2 0xB57 DUP1 PUSH2 0x1D PUSH0 CODECOPY PUSH0 RETURN INVALID PUSH1 0x80 PUSH1 0x40 MSTORE CALLVALUE DUP1 ISZERO PUSH2 0xF JUMPI PUSH0 DUP1 REVERT JUMPDEST POP PUSH1 0x4 CALLDATASIZE LT PUSH2 0x4A JUMPI PUSH0 CALLDATALOAD PUSH1 0xE0 SHR DUP1 PUSH4 0xCB6AAF1 EQ PUSH2 0x4E JUMPI DUP1 PUSH4 0x3DF9B366 EQ PUSH2 0x7E JUMPI DUP1 PUSH4 0x7FA4BA87 EQ PUSH2 0x9A JUMPI DUP1 PUSH4 0xA08F6BDD EQ PUSH2 0xB8 JUMPI JUMPDEST PUSH0 DUP1 REVERT JUMPDEST PUSH2 0x68 PUSH1 0x4 DUP1 CALLDATASIZE SUB DUP2 ADD SWAP1 PUSH2 0x63 SWAP2 SWAP1 PUSH2 0x39D JUMP JUMPDEST PUSH2 0xE8 JUMP JUMPDEST PUSH1 0x40 MLOAD PUSH2 0x75 SWAP2 SWAP1 PUSH2 0x3D7 JUMP JUMPDEST PUSH1 0x40 MLOAD DUP1 SWAP2 SUB SWAP1 RETURN JUMPDEST PUSH2 0x98 PUSH1 0x4 DUP1 CALLDATASIZE SUB DUP2 ADD SWAP1 PUSH2 0x93 SWAP2 SWAP1 PUSH2 0x52C JUMP JUMPDEST PUSH2 0x108 JUMP JUMPDEST STOP JUMPDEST PUSH2 0xA2 PUSH2 0x172 JUMP JUMPDEST PUSH1 0x40 MLOAD PUSH2 0xAF SWAP2 SWAP1 PUSH2 0x6CD JUMP JUMPDEST PUSH1 0x40 MLOAD DUP1 SWAP2 SUB SWAP1 RETURN JUMPDEST PUSH2 0xD2 PUSH1 0x4 DUP1 CALLDATASIZE SUB DUP2 ADD SWAP1 PUSH2 0xCD SWAP2 SWAP1 PUSH2 0x39D JUMP JUMPDEST PUSH2 0x2BF JUMP JUMPDEST PUSH1 0x40 MLOAD PUSH2 0xDF SWAP2 SWAP1 PUSH2 0x735 JUMP JUMPDEST PUSH1 0x40 MLOAD DUP1 SWAP2 SUB SWAP1 RETURN JUMPDEST PUSH1 0x1 DUP2 DUP2 SLOAD DUP2 LT PUSH2 0xF7 JUMPI PUSH0 DUP1 REVERT JUMPDEST SWAP1 PUSH0 MSTORE PUSH1 0x20 PUSH0 KECCAK256 ADD PUSH0 SWAP2 POP SWAP1 POP SLOAD DUP2 JUMP JUMPDEST DUP2 DUP2 PUSH1 0x40 MLOAD PUSH1 0x20 ADD PUSH2 0x11B SWAP3 SWAP2 SWAP1 PUSH2 0x7F9 JUMP JUMPDEST PUSH1 0x40 MLOAD PUSH1 0x20 DUP2 DUP4 SUB SUB DUP2 MSTORE SWAP1 PUSH1 0x40 MSTORE PUSH0 DUP1 DUP6 DUP2 MSTORE PUSH1 0x20 ADD SWAP1 DUP2 MSTORE PUSH1 0x20 ADD PUSH0 KECCAK256 SWAP1 DUP2 PUSH2 0x146 SWAP2 SWAP1 PUSH2 0xA25 JUMP JUMPDEST POP PUSH1 0x1 DUP4 SWAP1 DUP1 PUSH1 0x1 DUP2 SLOAD ADD DUP1 DUP3 SSTORE DUP1 SWAP2 POP POP PUSH1 0x1 SWAP1 SUB SWAP1 PUSH0 MSTORE PUSH1 0x20 PUSH0 KECCAK256 ADD PUSH0 SWAP1 SWAP2 SWAP1 SWAP2 SWAP1 SWAP2 POP SSTORE POP POP POP JUMP JUMPDEST PUSH1 0x60 PUSH0 PUSH1 0x1 DUP1 SLOAD SWAP1 POP PUSH8 0xFFFFFFFFFFFFFFFF DUP2 GT ISZERO PUSH2 0x194 JUMPI PUSH2 0x193 PUSH2 0x408 JUMP JUMPDEST JUMPDEST PUSH1 0x40 MLOAD SWAP1 DUP1 DUP3 MSTORE DUP1 PUSH1 0x20 MUL PUSH1 0x20 ADD DUP3 ADD PUSH1 0x40 MSTORE DUP1 ISZERO PUSH2 0x1C7 JUMPI DUP2 PUSH1 0x20 ADD JUMPDEST PUSH1 0x60 DUP2 MSTORE PUSH1 0x20 ADD SWAP1 PUSH1 0x1 SWAP1 SUB SWAP1 DUP2 PUSH2 0x1B2 JUMPI SWAP1 POP JUMPDEST POP SWAP1 POP PUSH0 JUMPDEST PUSH1 0x1 DUP1 SLOAD SWAP1 POP DUP2 LT ISZERO PUSH2 0x2B7 JUMPI PUSH0 DUP1 PUSH1 0x1 DUP4 DUP2 SLOAD DUP2 LT PUSH2 0x1EF JUMPI PUSH2 0x1EE PUSH2 0xAF4 JUMP JUMPDEST JUMPDEST SWAP1 PUSH0 MSTORE PUSH1 0x20 PUSH0 KECCAK256 ADD SLOAD DUP2 MSTORE PUSH1 0x20 ADD SWAP1 DUP2 MSTORE PUSH1 0x20 ADD PUSH0 KECCAK256 DUP1 SLOAD PUSH2 0x210 SWAP1 PUSH2 0x858 JUMP JUMPDEST DUP1 PUSH1 0x1F ADD PUSH1 0x20 DUP1 SWAP2 DIV MUL PUSH1 0x20 ADD PUSH1 0x40 MLOAD SWAP1 DUP2 ADD PUSH1 0x40 MSTORE DUP1 SWAP3 SWAP2 SWAP1 DUP2 DUP2 MSTORE PUSH1 0x20 ADD DUP3 DUP1 SLOAD PUSH2 0x23C SWAP1 PUSH2 0x858 JUMP JUMPDEST DUP1 ISZERO PUSH2 0x287 JUMPI DUP1 PUSH1 0x1F LT PUSH2 0x25E JUMPI PUSH2 0x100 DUP1 DUP4 SLOAD DIV MUL DUP4 MSTORE SWAP2 PUSH1 0x20 ADD SWAP2 PUSH2 0x287 JUMP JUMPDEST DUP3 ADD SWAP2 SWAP1 PUSH0 MSTORE PUSH1 0x20 PUSH0 KECCAK256 SWAP1 JUMPDEST DUP2 SLOAD DUP2 MSTORE SWAP1 PUSH1 0x1 ADD SWAP1 PUSH1 0x20 ADD DUP1 DUP4 GT PUSH2 0x26A JUMPI DUP3 SWAP1 SUB PUSH1 0x1F AND DUP3 ADD SWAP2 JUMPDEST POP POP POP POP POP DUP3 DUP3 DUP2 MLOAD DUP2 LT PUSH2 0x29F JUMPI PUSH2 0x29E PUSH2 0xAF4 JUMP JUMPDEST JUMPDEST PUSH1 0x20 MUL PUSH1 0x20 ADD ADD DUP2 SWAP1 MSTORE POP DUP1 DUP1 PUSH1 0x1 ADD SWAP2 POP POP PUSH2 0x1CC JUMP JUMPDEST POP DUP1 SWAP2 POP POP SWAP1 JUMP JUMPDEST PUSH0 PUSH1 0x20 MSTORE DUP1 PUSH0 MSTORE PUSH1 0x40 PUSH0 KECCAK256 PUSH0 SWAP2 POP SWAP1 POP DUP1 SLOAD PUSH2 0x2DA SWAP1 PUSH2 0x858 JUMP JUMPDEST DUP1 PUSH1 0x1F ADD PUSH1 0x20 DUP1 SWAP2 DIV MUL PUSH1 0x20 ADD PUSH1 0x40 MLOAD SWAP1 DUP2 ADD PUSH1 0x40 MSTORE DUP1 SWAP3 SWAP2 SWAP1 DUP2 DUP2 MSTORE PUSH1 0x20 ADD DUP3 DUP1 SLOAD PUSH2 0x306 SWAP1 PUSH2 0x858 JUMP JUMPDEST DUP1 ISZERO PUSH2 0x351 JUMPI DUP1 PUSH1 0x1F LT PUSH2 0x328 JUMPI PUSH2 0x100 DUP1 DUP4 SLOAD DIV MUL DUP4 MSTORE SWAP2 PUSH1 0x20 ADD SWAP2 PUSH2 0x351 JUMP JUMPDEST DUP3 ADD SWAP2 SWAP1 PUSH0 MSTORE PUSH1 0x20 PUSH0 KECCAK256 SWAP1 JUMPDEST DUP2 SLOAD DUP2 MSTORE SWAP1 PUSH1 0x1 ADD SWAP1 PUSH1 0x20 ADD DUP1 DUP4 GT PUSH2 0x334 JUMPI DUP3 SWAP1 SUB PUSH1 0x1F AND DUP3 ADD SWAP2 JUMPDEST POP POP POP POP POP DUP2 JUMP JUMPDEST PUSH0 PUSH1 0x40 MLOAD SWAP1 POP SWAP1 JUMP JUMPDEST PUSH0 DUP1 REVERT JUMPDEST PUSH0 DUP1 REVERT JUMPDEST PUSH0 DUP2 SWAP1 POP SWAP2 SWAP1 POP JUMP JUMPDEST PUSH2 0x37C DUP2 PUSH2 0x36A JUMP JUMPDEST DUP2 EQ PUSH2 0x386 JUMPI PUSH0 DUP1 REVERT JUMPDEST POP JUMP JUMPDEST PUSH0 DUP2 CALLDATALOAD SWAP1 POP PUSH2 0x397 DUP2 PUSH2 0x373 JUMP JUMPDEST SWAP3 SWAP2 POP POP JUMP JUMPDEST PUSH0 PUSH1 0x20 DUP3 DUP5 SUB SLT ISZERO PUSH2 0x3B2 JUMPI PUSH2 0x3B1 PUSH2 0x362 JUMP JUMPDEST JUMPDEST PUSH0 PUSH2 0x3BF DUP5 DUP3 DUP6 ADD PUSH2 0x389 JUMP JUMPDEST SWAP2 POP POP SWAP3 SWAP2 POP POP JUMP JUMPDEST PUSH2 0x3D1 DUP2 PUSH2 0x36A JUMP JUMPDEST DUP3 MSTORE POP POP JUMP JUMPDEST PUSH0 PUSH1 0x20 DUP3 ADD SWAP1 POP PUSH2 0x3EA PUSH0 DUP4 ADD DUP5 PUSH2 0x3C8 JUMP JUMPDEST SWAP3 SWAP2 POP POP JUMP JUMPDEST PUSH0 DUP1 REVERT JUMPDEST PUSH0 DUP1 REVERT JUMPDEST PUSH0 PUSH1 0x1F NOT PUSH1 0x1F DUP4 ADD AND SWAP1 POP SWAP2 SWAP1 POP JUMP JUMPDEST PUSH32 0x4E487B7100000000000000000000000000000000000000000000000000000000 PUSH0 MSTORE PUSH1 0x41 PUSH1 0x4 MSTORE PUSH1 0x24 PUSH0 REVERT JUMPDEST PUSH2 0x43E DUP3 PUSH2 0x3F8 JUMP JUMPDEST DUP2 ADD DUP2 DUP2 LT PUSH8 0xFFFFFFFFFFFFFFFF DUP3 GT OR ISZERO PUSH2 0x45D JUMPI PUSH2 0x45C PUSH2 0x408 JUMP JUMPDEST JUMPDEST DUP1 PUSH1 0x40 MSTORE POP POP POP JUMP JUMPDEST PUSH0 PUSH2 0x46F PUSH2 0x359 JUMP JUMPDEST SWAP1 POP PUSH2 0x47B DUP3 DUP3 PUSH2 0x435 JUMP JUMPDEST SWAP2 SWAP1 POP JUMP JUMPDEST PUSH0 PUSH8 0xFFFFFFFFFFFFFFFF DUP3 GT ISZERO PUSH2 0x49A JUMPI PUSH2 0x499 PUSH2 0x408 JUMP JUMPDEST JUMPDEST PUSH2 0x4A3 DUP3 PUSH2 0x3F8 JUMP JUMPDEST SWAP1 POP PUSH1 0x20 DUP2 ADD SWAP1 POP SWAP2 SWAP1 POP JUMP JUMPDEST DUP3 DUP2 DUP4 CALLDATACOPY PUSH0 DUP4 DUP4 ADD MSTORE POP POP POP JUMP JUMPDEST PUSH0 PUSH2 0x4D0 PUSH2 0x4CB DUP5 PUSH2 0x480 JUMP JUMPDEST PUSH2 0x466 JUMP JUMPDEST SWAP1 POP DUP3 DUP2 MSTORE PUSH1 0x20 DUP2 ADD DUP5 DUP5 DUP5 ADD GT ISZERO PUSH2 0x4EC JUMPI PUSH2 0x4EB PUSH2 0x3F4 JUMP JUMPDEST JUMPDEST PUSH2 0x4F7 DUP5 DUP3 DUP6 PUSH2 0x4B0 JUMP JUMPDEST POP SWAP4 SWAP3 POP POP POP JUMP JUMPDEST PUSH0 DUP3 PUSH1 0x1F DUP4 ADD SLT PUSH2 0x513 JUMPI PUSH2 0x512 PUSH2 0x3F0 JUMP JUMPDEST JUMPDEST DUP2 CALLDATALOAD PUSH2 0x523 DUP5 DUP3 PUSH1 0x20 DUP7 ADD PUSH2 0x4BE JUMP JUMPDEST SWAP2 POP POP SWAP3 SWAP2 POP POP JUMP JUMPDEST PUSH0 DUP1 PUSH0 PUSH1 0x60 DUP5 DUP7 SUB SLT ISZERO PUSH2 0x543 JUMPI PUSH2 0x542 PUSH2 0x362 JUMP JUMPDEST JUMPDEST PUSH0 PUSH2 0x550 DUP7 DUP3 DUP8 ADD PUSH2 0x389 JUMP JUMPDEST SWAP4 POP POP PUSH1 0x20 DUP5 ADD CALLDATALOAD PUSH8 0xFFFFFFFFFFFFFFFF DUP2 GT ISZERO PUSH2 0x571 JUMPI PUSH2 0x570 PUSH2 0x366 JUMP JUMPDEST JUMPDEST PUSH2 0x57D DUP7 DUP3 DUP8 ADD PUSH2 0x4FF JUMP JUMPDEST SWAP3 POP POP PUSH1 0x40 PUSH2 0x58E DUP7 DUP3 DUP8 ADD PUSH2 0x389 JUMP JUMPDEST SWAP2 POP POP SWAP3 POP SWAP3 POP SWAP3 JUMP JUMPDEST PUSH0 DUP2 MLOAD SWAP1 POP SWAP2 SWAP1 POP JUMP JUMPDEST PUSH0 DUP3 DUP3 MSTORE PUSH1 0x20 DUP3 ADD SWAP1 POP SWAP3 SWAP2 POP POP JUMP JUMPDEST PUSH0 DUP2 SWAP1 POP PUSH1 0x20 DUP3 ADD SWAP1 POP SWAP2 SWAP1 POP JUMP JUMPDEST PUSH0 DUP2 MLOAD SWAP1 POP SWAP2 SWAP1 POP JUMP JUMPDEST PUSH0 DUP3 DUP3 MSTORE PUSH1 0x20 DUP3 ADD SWAP1 POP SWAP3 SWAP2 POP POP JUMP JUMPDEST PUSH0 JUMPDEST DUP4 DUP2 LT ISZERO PUSH2 0x5F8 JUMPI DUP1 DUP3 ADD MLOAD DUP2 DUP5 ADD MSTORE PUSH1 0x20 DUP2 ADD SWAP1 POP PUSH2 0x5DD JUMP JUMPDEST PUSH0 DUP5 DUP5 ADD MSTORE POP POP POP POP JUMP JUMPDEST PUSH0 PUSH2 0x60D DUP3 PUSH2 0x5C1 JUMP JUMPDEST PUSH2 0x617 DUP2 DUP6 PUSH2 0x5CB JUMP JUMPDEST SWAP4 POP PUSH2 0x627 DUP2 DUP6 PUSH1 0x20 DUP7 ADD PUSH2 0x5DB JUMP JUMPDEST PUSH2 0x630 DUP2 PUSH2 0x3F8 JUMP JUMPDEST DUP5 ADD SWAP2 POP POP SWAP3 SWAP2 POP POP JUMP JUMPDEST PUSH0 PUSH2 0x646 DUP4 DUP4 PUSH2 0x603 JUMP JUMPDEST SWAP1 POP SWAP3 SWAP2 POP POP JUMP JUMPDEST PUSH0 PUSH1 0x20 DUP3 ADD SWAP1 POP SWAP2 SWAP1 POP JUMP JUMPDEST PUSH0 PUSH2 0x664 DUP3 PUSH2 0x598 JUMP JUMPDEST PUSH2 0x66E DUP2 DUP6 PUSH2 0x5A2 JUMP JUMPDEST SWAP4 POP DUP4 PUSH1 0x20 DUP3 MUL DUP6 ADD PUSH2 0x680 DUP6 PUSH2 0x5B2 JUMP JUMPDEST DUP1 PUSH0 JUMPDEST DUP6 DUP2 LT ISZERO PUSH2 0x6BB JUMPI DUP5 DUP5 SUB DUP10 MSTORE DUP2 MLOAD PUSH2 0x69C DUP6 DUP3 PUSH2 0x63B JUMP JUMPDEST SWAP5 POP PUSH2 0x6A7 DUP4 PUSH2 0x64E JUMP JUMPDEST SWAP3 POP PUSH1 0x20 DUP11 ADD SWAP10 POP POP PUSH1 0x1 DUP2 ADD SWAP1 POP PUSH2 0x683 JUMP JUMPDEST POP DUP3 SWAP8 POP DUP8 SWAP6 POP POP POP POP POP POP SWAP3 SWAP2 POP POP JUMP JUMPDEST PUSH0 PUSH1 0x20 DUP3 ADD SWAP1 POP DUP2 DUP2 SUB PUSH0 DUP4 ADD MSTORE PUSH2 0x6E5 DUP2 DUP5 PUSH2 0x65A JUMP JUMPDEST SWAP1 POP SWAP3 SWAP2 POP POP JUMP JUMPDEST PUSH0 DUP3 DUP3 MSTORE PUSH1 0x20 DUP3 ADD SWAP1 POP SWAP3 SWAP2 POP POP JUMP JUMPDEST PUSH0 PUSH2 0x707 DUP3 PUSH2 0x5C1 JUMP JUMPDEST PUSH2 0x711 DUP2 DUP6 PUSH2 0x6ED JUMP JUMPDEST SWAP4 POP PUSH2 0x721 DUP2 DUP6 PUSH1 0x20 DUP7 ADD PUSH2 0x5DB JUMP JUMPDEST PUSH2 0x72A DUP2 PUSH2 0x3F8 JUMP JUMPDEST DUP5 ADD SWAP2 POP POP SWAP3 SWAP2 POP POP JUMP JUMPDEST PUSH0 PUSH1 0x20 DUP3 ADD SWAP1 POP DUP2 DUP2 SUB PUSH0 DUP4 ADD MSTORE PUSH2 0x74D DUP2 DUP5 PUSH2 0x6FD JUMP JUMPDEST SWAP1 POP SWAP3 SWAP2 POP POP JUMP JUMPDEST PUSH0 DUP2 SWAP1 POP SWAP3 SWAP2 POP POP JUMP JUMPDEST PUSH0 PUSH2 0x769 DUP3 PUSH2 0x5C1 JUMP JUMPDEST PUSH2 0x773 DUP2 DUP6 PUSH2 0x755 JUMP JUMPDEST SWAP4 POP PUSH2 0x783 DUP2 DUP6 PUSH1 0x20 DUP7 ADD PUSH2 0x5DB JUMP JUMPDEST DUP1 DUP5 ADD SWAP2 POP POP SWAP3 SWAP2 POP POP JUMP JUMPDEST PUSH32 0x2000000000000000000000000000000000000000000000000000000000000000 PUSH0 DUP3 ADD MSTORE POP JUMP JUMPDEST PUSH0 PUSH2 0x7C3 PUSH1 0x1 DUP4 PUSH2 0x755 JUMP JUMPDEST SWAP2 POP PUSH2 0x7CE DUP3 PUSH2 0x78F JUMP JUMPDEST PUSH1 0x1 DUP3 ADD SWAP1 POP SWAP2 SWAP1 POP JUMP JUMPDEST PUSH0 DUP2 SWAP1 POP SWAP2 SWAP1 POP JUMP JUMPDEST PUSH2 0x7F3 PUSH2 0x7EE DUP3 PUSH2 0x36A JUMP JUMPDEST PUSH2 0x7D9 JUMP JUMPDEST DUP3 MSTORE POP POP JUMP JUMPDEST PUSH0 PUSH2 0x804 DUP3 DUP6 PUSH2 0x75F JUMP JUMPDEST SWAP2 POP PUSH2 0x80F DUP3 PUSH2 0x7B7 JUMP JUMPDEST SWAP2 POP PUSH2 0x81B DUP3 DUP5 PUSH2 0x7E2 JUMP JUMPDEST PUSH1 0x20 DUP3 ADD SWAP2 POP DUP2 SWAP1 POP SWAP4 SWAP3 POP POP POP JUMP JUMPDEST PUSH32 0x4E487B7100000000000000000000000000000000000000000000000000000000 PUSH0 MSTORE PUSH1 0x22 PUSH1 0x4 MSTORE PUSH1 0x24 PUSH0 REVERT JUMPDEST PUSH0 PUSH1 0x2 DUP3 DIV SWAP1 POP PUSH1 0x1 DUP3 AND DUP1 PUSH2 0x86F JUMPI PUSH1 0x7F DUP3 AND SWAP2 POP JUMPDEST PUSH1 0x20 DUP3 LT DUP2 SUB PUSH2 0x882 JUMPI PUSH2 0x881 PUSH2 0x82B JUMP JUMPDEST JUMPDEST POP SWAP2 SWAP1 POP JUMP JUMPDEST PUSH0 DUP2 SWAP1 POP DUP2 PUSH0 MSTORE PUSH1 0x20 PUSH0 KECCAK256 SWAP1 POP SWAP2 SWAP1 POP JUMP JUMPDEST PUSH0 PUSH1 0x20 PUSH1 0x1F DUP4 ADD DIV SWAP1 POP SWAP2 SWAP1 POP JUMP JUMPDEST PUSH0 DUP3 DUP3 SHL SWAP1 POP SWAP3 SWAP2 POP POP JUMP JUMPDEST PUSH0 PUSH1 0x8 DUP4 MUL PUSH2 0x8E4 PUSH32 0xFFFFFFFFFFFFFFFFFFFFFFFFFFFFFFFFFFFFFFFFFFFFFFFFFFFFFFFFFFFFFFFF DUP3 PUSH2 0x8A9 JUMP JUMPDEST PUSH2 0x8EE DUP7 DUP4 PUSH2 0x8A9 JUMP JUMPDEST SWAP6 POP DUP1 NOT DUP5 AND SWAP4 POP DUP1 DUP7 AND DUP5 OR SWAP3 POP POP POP SWAP4 SWAP3 POP POP POP JUMP JUMPDEST PUSH0 DUP2 SWAP1 POP SWAP2 SWAP1 POP JUMP JUMPDEST PUSH0 PUSH2 0x929 PUSH2 0x924 PUSH2 0x91F DUP5 PUSH2 0x36A JUMP JUMPDEST PUSH2 0x906 JUMP JUMPDEST PUSH2 0x36A JUMP JUMPDEST SWAP1 POP SWAP2 SWAP1 POP JUMP JUMPDEST PUSH0 DUP2 SWAP1 POP SWAP2 SWAP1 POP JUMP JUMPDEST PUSH2 0x942 DUP4 PUSH2 0x90F JUMP JUMPDEST PUSH2 0x956 PUSH2 0x94E DUP3 PUSH2 0x930 JUMP JUMPDEST DUP5 DUP5 SLOAD PUSH2 0x8B5 JUMP JUMPDEST DUP3 SSTORE POP POP POP POP JUMP JUMPDEST PUSH0 SWAP1 JUMP JUMPDEST PUSH2 0x96A PUSH2 0x95E JUMP JUMPDEST PUSH2 0x975 DUP2 DUP5 DUP5 PUSH2 0x939 JUMP JUMPDEST POP POP POP JUMP JUMPDEST JUMPDEST DUP2 DUP2 LT ISZERO PUSH2 0x998 JUMPI PUSH2 0x98D PUSH0 DUP3 PUSH2 0x962 JUMP JUMPDEST PUSH1 0x1 DUP2 ADD SWAP1 POP PUSH2 0x97B JUMP JUMPDEST POP POP JUMP JUMPDEST PUSH1 0x1F DUP3 GT ISZERO PUSH2 0x9DD JUMPI PUSH2 0x9AE DUP2 PUSH2 0x888 JUMP JUMPDEST PUSH2 0x9B7 DUP5 PUSH2 0x89A JUMP JUMPDEST DUP2 ADD PUSH1 0x20 DUP6 LT ISZERO PUSH2 0x9C6 JUMPI DUP2 SWAP1 POP JUMPDEST PUSH2 0x9DA PUSH2 0x9D2 DUP6 PUSH2 0x89A JUMP JUMPDEST DUP4 ADD DUP3 PUSH2 0x97A JUMP JUMPDEST POP POP JUMPDEST POP POP POP JUMP JUMPDEST PUSH0 DUP3 DUP3 SHR SWAP1 POP SWAP3 SWAP2 POP POP JUMP JUMPDEST PUSH0 PUSH2 0x9FD PUSH0 NOT DUP5 PUSH1 0x8 MUL PUSH2 0x9E2 JUMP JUMPDEST NOT DUP1 DUP4 AND SWAP2 POP POP SWAP3 SWAP2 POP POP JUMP JUMPDEST PUSH0 PUSH2 0xA15 DUP4 DUP4 PUSH2 0x9EE JUMP JUMPDEST SWAP2 POP DUP3 PUSH1 0x2 MUL DUP3 OR SWAP1 POP SWAP3 SWAP2 POP POP JUMP JUMPDEST PUSH2 0xA2E DUP3 PUSH2 0x5C1 JUMP JUMPDEST PUSH8 0xFFFFFFFFFFFFFFFF DUP2 GT ISZERO PUSH2 0xA47 JUMPI PUSH2 0xA46 PUSH2 0x408 JUMP JUMPDEST JUMPDEST PUSH2 0xA51 DUP3 SLOAD PUSH2 0x858 JUMP JUMPDEST PUSH2 0xA5C DUP3 DUP3 DUP6 PUSH2 0x99C JUMP JUMPDEST PUSH0 PUSH1 0x20 SWAP1 POP PUSH1 0x1F DUP4 GT PUSH1 0x1 DUP2 EQ PUSH2 0xA8D JUMPI PUSH0 DUP5 ISZERO PUSH2 0xA7B JUMPI DUP3 DUP8 ADD MLOAD SWAP1 POP JUMPDEST PUSH2 0xA85 DUP6 DUP3 PUSH2 0xA0A JUMP JUMPDEST DUP7 SSTORE POP PUSH2 0xAEC JUMP JUMPDEST PUSH1 0x1F NOT DUP5 AND PUSH2 0xA9B DUP7 PUSH2 0x888 JUMP JUMPDEST PUSH0 JUMPDEST DUP3 DUP2 LT ISZERO PUSH2 0xAC2 JUMPI DUP5 DUP10 ADD MLOAD DUP3 SSTORE PUSH1 0x1 DUP3 ADD SWAP2 POP PUSH1 0x20 DUP6 ADD SWAP5 POP PUSH1 0x20 DUP2 ADD SWAP1 POP PUSH2 0xA9D JUMP JUMPDEST DUP7 DUP4 LT ISZERO PUSH2 0xADF JUMPI DUP5 DUP10 ADD MLOAD PUSH2 0xADB PUSH1 0x1F DUP10 AND DUP3 PUSH2 0x9EE JUMP JUMPDEST DUP4 SSTORE POP JUMPDEST PUSH1 0x1 PUSH1 0x2 DUP9 MUL ADD DUP9 SSTORE POP POP POP JUMPDEST POP POP POP POP POP POP JUMP JUMPDEST PUSH32 0x4E487B7100000000000000000000000000000000000000000000000000000000 PUSH0 MSTORE PUSH1 0x32 PUSH1 0x4 MSTORE PUSH1 0x24 PUSH0 REVERT INVALID LOG2 PUSH5 0x6970667358 0x22 SLT KECCAK256 PUSH27 0x9D56061EACF77FB626ACC027065D6F18F1E57EB15E5C8963E56A30 0xF6 0x29 STATICCALL ADDRESS PUSH5 0x736F6C6343 STOP ADDMOD AND STOP CALLER "
				},
				"gasEstimates": {
					"creation": {
						"codeDepositCost": "580600",
						"executionCost": "611",
						"totalCost": "581211"
					},
					"external": {
						"addPerson(uint256,string,uint256)": "infinite",
						"getAllPersons()": "infinite",
						"keys(uint256)": "infinite",
						"nameToAge(uint256)": "infinite"
					}
				},
				"methodIdentifiers": {
					"addPerson(uint256,string,uint256)": "3df9b366",
					"getAllPersons()": "7fa4ba87",
					"keys(uint256)": "0cb6aaf1",
					"nameToAge(uint256)": "a08f6bdd"
				}
			},
			"storageLayout": {
				"storage": [
					{
						"astId": 5,
						"contract": "contract/for遍历映射.sol:MappingTraversal",
						"label": "nameToAge",
						"offset": 0,
						"slot": "0",
						"type": "t_mapping(t_uint256,t_string_storage)"
					},
					{
						"astId": 8,
						"contract": "contract/for遍历映射.sol:MappingTraversal",
						"label": "keys",
						"offset": 0,
						"slot": "1",
						"type": "t_array(t_uint256)dyn_storage"
					}
				],
				"types": {
					"t_array(t_uint256)dyn_storage": {
						"base": "t_uint256",
						"encoding": "dynamic_array",
						"label": "uint256[]",
						"numberOfBytes": "32"
					},
					"t_mapping(t_uint256,t_string_storage)": {
						"encoding": "mapping",
						"key": "t_uint256",
						"label": "mapping(uint256 => string)",
						"numberOfBytes": "32",
						"value": "t_string_storage"
					},
					"t_string_storage": {
						"encoding": "bytes",
						"label": "string",
						"numberOfBytes": "32"
					},
					"t_uint256": {
						"encoding": "inplace",
						"label": "uint256",
						"numberOfBytes": "32"
					}
				}
			},
			"userdoc": {
				"kind": "user",
				"methods": {},
				"version": 1
			}
		}
	}
}