{
	"contract/9.Loop.sol": {
		"Loop": {
			"abi": [
				{
					"inputs": [
						{
							"internalType": "uint256",
							"name": "_num",
							"type": "uint256"
						}
					],
					"name": "foo",
					"outputs": [
						{
							"internalType": "uint256",
							"name": "",
							"type": "uint256"
						},
						{
							"internalType": "uint256",
							"name": "",
							"type": "uint256"
						}
					],
					"stateMutability": "pure",
					"type": "function"
				}
			],
			"devdoc": {
				"kind": "dev",
				"methods": {},
				"version": 1
			},
			"evm": {
				"assembly": "    /* \"contract/9.Loop.sol\":57:434  contract Loop {... */\n  mstore(0x40, 0x80)\n  callvalue\n  dup1\n  iszero\n  tag_1\n  jumpi\n  0x00\n  dup1\n  revert\ntag_1:\n  pop\n  dataSize(sub_0)\n  dup1\n  dataOffset(sub_0)\n  0x00\n  codecopy\n  0x00\n  return\nstop\n\nsub_0: assembly {\n        /* \"contract/9.Loop.sol\":57:434  contract Loop {... */\n      mstore(0x40, 0x80)\n      callvalue\n      dup1\n      iszero\n      tag_1\n      jumpi\n      0x00\n      dup1\n      revert\n    tag_1:\n      pop\n      jumpi(tag_2, lt(calldatasize, 0x04))\n      shr(0xe0, calldataload(0x00))\n      dup1\n      0x2fbebd38\n      eq\n      tag_3\n      jumpi\n    tag_2:\n      0x00\n      dup1\n      revert\n        /* \"contract/9.Loop.sol\":96:432  function foo(uint _num) external  pure returns (uint,uint)  {... */\n    tag_3:\n      tag_4\n      0x04\n      dup1\n      calldatasize\n      sub\n      dup2\n      add\n      swap1\n      tag_5\n      swap2\n      swap1\n      tag_6\n      jump\t// in\n    tag_5:\n      tag_7\n      jump\t// in\n    tag_4:\n      mload(0x40)\n      tag_8\n      swap3\n      swap2\n      swap1\n      tag_9\n      jump\t// in\n    tag_8:\n      mload(0x40)\n      dup1\n      swap2\n      sub\n      swap1\n      return\n    tag_7:\n        /* \"contract/9.Loop.sol\":144:148  uint */\n      0x00\n        /* \"contract/9.Loop.sol\":149:153  uint */\n      dup1\n        /* \"contract/9.Loop.sol\":205:214  uint256 s */\n      0x00\n        /* \"contract/9.Loop.sol\":229:238  uint256 i */\n      dup1\n        /* \"contract/9.Loop.sol\":241:242  1 */\n      0x01\n        /* \"contract/9.Loop.sol\":229:242  uint256 i = 1 */\n      swap1\n      pop\n        /* \"contract/9.Loop.sol\":224:291  for (uint256 i = 1; i <= _num; i++) {... */\n    tag_11:\n        /* \"contract/9.Loop.sol\":249:253  _num */\n      dup5\n        /* \"contract/9.Loop.sol\":244:245  i */\n      dup2\n        /* \"contract/9.Loop.sol\":244:253  i <= _num */\n      gt\n        /* \"contract/9.Loop.sol\":224:291  for (uint256 i = 1; i <= _num; i++) {... */\n      tag_12\n      jumpi\n        /* \"contract/9.Loop.sol\":279:280  i */\n      dup1\n        /* \"contract/9.Loop.sol\":274:280  s += i */\n      dup3\n      tag_14\n      swap2\n      swap1\n      tag_15\n      jump\t// in\n    tag_14:\n      swap2\n      pop\n        /* \"contract/9.Loop.sol\":255:258  i++ */\n      dup1\n      dup1\n      tag_16\n      swap1\n      tag_17\n      jump\t// in\n    tag_16:\n      swap2\n      pop\n      pop\n        /* \"contract/9.Loop.sol\":224:291  for (uint256 i = 1; i <= _num; i++) {... */\n      jump(tag_11)\n    tag_12:\n      pop\n        /* \"contract/9.Loop.sol\":333:342  uint256 j */\n      0x00\n        /* \"contract/9.Loop.sol\":352:395  while (j < 10) {... */\n    tag_18:\n        /* \"contract/9.Loop.sol\":363:365  10 */\n      0x0a\n        /* \"contract/9.Loop.sol\":359:360  j */\n      dup2\n        /* \"contract/9.Loop.sol\":359:365  j < 10 */\n      lt\n        /* \"contract/9.Loop.sol\":352:395  while (j < 10) {... */\n      iszero\n      tag_19\n      jumpi\n        /* \"contract/9.Loop.sol\":381:384  j++ */\n      dup1\n      dup1\n      tag_20\n      swap1\n      tag_17\n      jump\t// in\n    tag_20:\n      swap2\n      pop\n      pop\n        /* \"contract/9.Loop.sol\":352:395  while (j < 10) {... */\n      jump(tag_18)\n    tag_19:\n        /* \"contract/9.Loop.sol\":421:422  s */\n      dup2\n        /* \"contract/9.Loop.sol\":423:424  j */\n      dup2\n        /* \"contract/9.Loop.sol\":413:425  return (s,j) */\n      swap4\n      pop\n      swap4\n      pop\n      pop\n      pop\n        /* \"contract/9.Loop.sol\":96:432  function foo(uint _num) external  pure returns (uint,uint)  {... */\n      swap2\n      pop\n      swap2\n      jump\t// out\n        /* \"#utility.yul\":88:205   */\n    tag_22:\n        /* \"#utility.yul\":197:198   */\n      0x00\n        /* \"#utility.yul\":194:195   */\n      dup1\n        /* \"#utility.yul\":187:199   */\n      revert\n        /* \"#utility.yul\":334:411   */\n    tag_24:\n        /* \"#utility.yul\":371:378   */\n      0x00\n        /* \"#utility.yul\":400:405   */\n      dup2\n        /* \"#utility.yul\":389:405   */\n      swap1\n      pop\n        /* \"#utility.yul\":334:411   */\n      swap2\n      swap1\n      pop\n      jump\t// out\n        /* \"#utility.yul\":417:539   */\n    tag_25:\n        /* \"#utility.yul\":490:514   */\n      tag_35\n        /* \"#utility.yul\":508:513   */\n      dup2\n        /* \"#utility.yul\":490:514   */\n      tag_24\n      jump\t// in\n    tag_35:\n        /* \"#utility.yul\":483:488   */\n      dup2\n        /* \"#utility.yul\":480:515   */\n      eq\n        /* \"#utility.yul\":470:533   */\n      tag_36\n      jumpi\n        /* \"#utility.yul\":529:530   */\n      0x00\n        /* \"#utility.yul\":526:527   */\n      dup1\n        /* \"#utility.yul\":519:531   */\n      revert\n        /* \"#utility.yul\":470:533   */\n    tag_36:\n        /* \"#utility.yul\":417:539   */\n      pop\n      jump\t// out\n        /* \"#utility.yul\":545:684   */\n    tag_26:\n        /* \"#utility.yul\":591:596   */\n      0x00\n        /* \"#utility.yul\":629:635   */\n      dup2\n        /* \"#utility.yul\":616:636   */\n      calldataload\n        /* \"#utility.yul\":607:636   */\n      swap1\n      pop\n        /* \"#utility.yul\":645:678   */\n      tag_38\n        /* \"#utility.yul\":672:677   */\n      dup2\n        /* \"#utility.yul\":645:678   */\n      tag_25\n      jump\t// in\n    tag_38:\n        /* \"#utility.yul\":545:684   */\n      swap3\n      swap2\n      pop\n      pop\n      jump\t// out\n        /* \"#utility.yul\":690:1019   */\n    tag_6:\n        /* \"#utility.yul\":749:755   */\n      0x00\n        /* \"#utility.yul\":798:800   */\n      0x20\n        /* \"#utility.yul\":786:795   */\n      dup3\n        /* \"#utility.yul\":777:784   */\n      dup5\n        /* \"#utility.yul\":773:796   */\n      sub\n        /* \"#utility.yul\":769:801   */\n      slt\n        /* \"#utility.yul\":766:885   */\n      iszero\n      tag_40\n      jumpi\n        /* \"#utility.yul\":804:883   */\n      tag_41\n      tag_22\n      jump\t// in\n    tag_41:\n        /* \"#utility.yul\":766:885   */\n    tag_40:\n        /* \"#utility.yul\":924:925   */\n      0x00\n        /* \"#utility.yul\":949:1002   */\n      tag_42\n        /* \"#utility.yul\":994:1001   */\n      dup5\n        /* \"#utility.yul\":985:991   */\n      dup3\n        /* \"#utility.yul\":974:983   */\n      dup6\n        /* \"#utility.yul\":970:992   */\n      add\n        /* \"#utility.yul\":949:1002   */\n      tag_26\n      jump\t// in\n    tag_42:\n        /* \"#utility.yul\":939:1002   */\n      swap2\n      pop\n        /* \"#utility.yul\":895:1012   */\n      pop\n        /* \"#utility.yul\":690:1019   */\n      swap3\n      swap2\n      pop\n      pop\n      jump\t// out\n        /* \"#utility.yul\":1025:1143   */\n    tag_27:\n        /* \"#utility.yul\":1112:1136   */\n      tag_44\n        /* \"#utility.yul\":1130:1135   */\n      dup2\n        /* \"#utility.yul\":1112:1136   */\n      tag_24\n      jump\t// in\n    tag_44:\n        /* \"#utility.yul\":1107:1110   */\n      dup3\n        /* \"#utility.yul\":1100:1137   */\n      mstore\n        /* \"#utility.yul\":1025:1143   */\n      pop\n      pop\n      jump\t// out\n        /* \"#utility.yul\":1149:1481   */\n    tag_9:\n        /* \"#utility.yul\":1270:1274   */\n      0x00\n        /* \"#utility.yul\":1308:1310   */\n      0x40\n        /* \"#utility.yul\":1297:1306   */\n      dup3\n        /* \"#utility.yul\":1293:1311   */\n      add\n        /* \"#utility.yul\":1285:1311   */\n      swap1\n      pop\n        /* \"#utility.yul\":1321:1392   */\n      tag_46\n        /* \"#utility.yul\":1389:1390   */\n      0x00\n        /* \"#utility.yul\":1378:1387   */\n      dup4\n        /* \"#utility.yul\":1374:1391   */\n      add\n        /* \"#utility.yul\":1365:1371   */\n      dup6\n        /* \"#utility.yul\":1321:1392   */\n      tag_27\n      jump\t// in\n    tag_46:\n        /* \"#utility.yul\":1402:1474   */\n      tag_47\n        /* \"#utility.yul\":1470:1472   */\n      0x20\n        /* \"#utility.yul\":1459:1468   */\n      dup4\n        /* \"#utility.yul\":1455:1473   */\n      add\n        /* \"#utility.yul\":1446:1452   */\n      dup5\n        /* \"#utility.yul\":1402:1474   */\n      tag_27\n      jump\t// in\n    tag_47:\n        /* \"#utility.yul\":1149:1481   */\n      swap4\n      swap3\n      pop\n      pop\n      pop\n      jump\t// out\n        /* \"#utility.yul\":1487:1667   */\n    tag_28:\n        /* \"#utility.yul\":1535:1612   */\n      0x4e487b7100000000000000000000000000000000000000000000000000000000\n        /* \"#utility.yul\":1532:1533   */\n      0x00\n        /* \"#utility.yul\":1525:1613   */\n      mstore\n        /* \"#utility.yul\":1632:1636   */\n      0x11\n        /* \"#utility.yul\":1629:1630   */\n      0x04\n        /* \"#utility.yul\":1622:1637   */\n      mstore\n        /* \"#utility.yul\":1656:1660   */\n      0x24\n        /* \"#utility.yul\":1653:1654   */\n      0x00\n        /* \"#utility.yul\":1646:1661   */\n      revert\n        /* \"#utility.yul\":1673:1864   */\n    tag_15:\n        /* \"#utility.yul\":1713:1716   */\n      0x00\n        /* \"#utility.yul\":1732:1752   */\n      tag_50\n        /* \"#utility.yul\":1750:1751   */\n      dup3\n        /* \"#utility.yul\":1732:1752   */\n      tag_24\n      jump\t// in\n    tag_50:\n        /* \"#utility.yul\":1727:1752   */\n      swap2\n      pop\n        /* \"#utility.yul\":1766:1786   */\n      tag_51\n        /* \"#utility.yul\":1784:1785   */\n      dup4\n        /* \"#utility.yul\":1766:1786   */\n      tag_24\n      jump\t// in\n    tag_51:\n        /* \"#utility.yul\":1761:1786   */\n      swap3\n      pop\n        /* \"#utility.yul\":1809:1810   */\n      dup3\n        /* \"#utility.yul\":1806:1807   */\n      dup3\n        /* \"#utility.yul\":1802:1811   */\n      add\n        /* \"#utility.yul\":1795:1811   */\n      swap1\n      pop\n        /* \"#utility.yul\":1830:1833   */\n      dup1\n        /* \"#utility.yul\":1827:1828   */\n      dup3\n        /* \"#utility.yul\":1824:1834   */\n      gt\n        /* \"#utility.yul\":1821:1857   */\n      iszero\n      tag_52\n      jumpi\n        /* \"#utility.yul\":1837:1855   */\n      tag_53\n      tag_28\n      jump\t// in\n    tag_53:\n        /* \"#utility.yul\":1821:1857   */\n    tag_52:\n        /* \"#utility.yul\":1673:1864   */\n      swap3\n      swap2\n      pop\n      pop\n      jump\t// out\n        /* \"#utility.yul\":1870:2103   */\n    tag_17:\n        /* \"#utility.yul\":1909:1912   */\n      0x00\n        /* \"#utility.yul\":1932:1956   */\n      tag_55\n        /* \"#utility.yul\":1950:1955   */\n      dup3\n        /* \"#utility.yul\":1932:1956   */\n      tag_24\n      jump\t// in\n    tag_55:\n        /* \"#utility.yul\":1923:1956   */\n      swap2\n      pop\n        /* \"#utility.yul\":1978:2044   */\n      0xffffffffffffffffffffffffffffffffffffffffffffffffffffffffffffffff\n        /* \"#utility.yul\":1971:1976   */\n      dup3\n        /* \"#utility.yul\":1968:2045   */\n      sub\n        /* \"#utility.yul\":1965:2068   */\n      tag_56\n      jumpi\n        /* \"#utility.yul\":2048:2066   */\n      tag_57\n      tag_28\n      jump\t// in\n    tag_57:\n        /* \"#utility.yul\":1965:2068   */\n    tag_56:\n        /* \"#utility.yul\":2095:2096   */\n      0x01\n        /* \"#utility.yul\":2088:2093   */\n      dup3\n        /* \"#utility.yul\":2084:2097   */\n      add\n        /* \"#utility.yul\":2077:2097   */\n      swap1\n      pop\n        /* \"#utility.yul\":1870:2103   */\n      swap2\n      swap1\n      pop\n      jump\t// out\n\n    auxdata: 0xa2646970667358221220645ae99478757d74e0d7c240f67b9c386e6506078d34ddf7fe6aac53a9a3cf4064736f6c63430008160033\n}\n",
				"bytecode": {
					"linkReferences": {},
					"object": "608060405234801561000f575f80fd5b506102308061001d5f395ff3fe608060405234801561000f575f80fd5b5060043610610029575f3560e01c80632fbebd381461002d575b5f80fd5b610047600480360381019061004291906100f2565b61005e565b60405161005592919061012c565b60405180910390f35b5f805f80600190505b84811161008f57808261007a9190610180565b91508080610087906101b3565b915050610067565b505f5b600a8110156100ae5780806100a6906101b3565b915050610092565b8181935093505050915091565b5f80fd5b5f819050919050565b6100d1816100bf565b81146100db575f80fd5b50565b5f813590506100ec816100c8565b92915050565b5f60208284031215610107576101066100bb565b5b5f610114848285016100de565b91505092915050565b610126816100bf565b82525050565b5f60408201905061013f5f83018561011d565b61014c602083018461011d565b9392505050565b7f4e487b71000000000000000000000000000000000000000000000000000000005f52601160045260245ffd5b5f61018a826100bf565b9150610195836100bf565b92508282019050808211156101ad576101ac610153565b5b92915050565b5f6101bd826100bf565b91507fffffffffffffffffffffffffffffffffffffffffffffffffffffffffffffffff82036101ef576101ee610153565b5b60018201905091905056fea2646970667358221220645ae99478757d74e0d7c240f67b9c386e6506078d34ddf7fe6aac53a9a3cf4064736f6c63430008160033",
					"opcodes": "PUSH1 0x80 PUSH1 0x40 MSTORE CALLVALUE DUP1 ISZERO PUSH2 0xF JUMPI PUSH0 DUP1 REVERT JUMPDEST POP PUSH2 0x230 DUP1 PUSH2 0x1D PUSH0 CODECOPY PUSH0 RETURN INVALID PUSH1 0x80 PUSH1 0x40 MSTORE CALLVALUE DUP1 ISZERO PUSH2 0xF JUMPI PUSH0 DUP1 REVERT JUMPDEST POP PUSH1 0x4 CALLDATASIZE LT PUSH2 0x29 JUMPI PUSH0 CALLDATALOAD PUSH1 0xE0 SHR DUP1 PUSH4 0x2FBEBD38 EQ PUSH2 0x2D JUMPI JUMPDEST PUSH0 DUP1 REVERT JUMPDEST PUSH2 0x47 PUSH1 0x4 DUP1 CALLDATASIZE SUB DUP2 ADD SWAP1 PUSH2 0x42 SWAP2 SWAP1 PUSH2 0xF2 JUMP JUMPDEST PUSH2 0x5E JUMP JUMPDEST PUSH1 0x40 MLOAD PUSH2 0x55 SWAP3 SWAP2 SWAP1 PUSH2 0x12C JUMP JUMPDEST PUSH1 0x40 MLOAD DUP1 SWAP2 SUB SWAP1 RETURN JUMPDEST PUSH0 DUP1 PUSH0 DUP1 PUSH1 0x1 SWAP1 POP JUMPDEST DUP5 DUP2 GT PUSH2 0x8F JUMPI DUP1 DUP3 PUSH2 0x7A SWAP2 SWAP1 PUSH2 0x180 JUMP JUMPDEST SWAP2 POP DUP1 DUP1 PUSH2 0x87 SWAP1 PUSH2 0x1B3 JUMP JUMPDEST SWAP2 POP POP PUSH2 0x67 JUMP JUMPDEST POP PUSH0 JUMPDEST PUSH1 0xA DUP2 LT ISZERO PUSH2 0xAE JUMPI DUP1 DUP1 PUSH2 0xA6 SWAP1 PUSH2 0x1B3 JUMP JUMPDEST SWAP2 POP POP PUSH2 0x92 JUMP JUMPDEST DUP2 DUP2 SWAP4 POP SWAP4 POP POP POP SWAP2 POP SWAP2 JUMP JUMPDEST PUSH0 DUP1 REVERT JUMPDEST PUSH0 DUP2 SWAP1 POP SWAP2 SWAP1 POP JUMP JUMPDEST PUSH2 0xD1 DUP2 PUSH2 0xBF JUMP JUMPDEST DUP2 EQ PUSH2 0xDB JUMPI PUSH0 DUP1 REVERT JUMPDEST POP JUMP JUMPDEST PUSH0 DUP2 CALLDATALOAD SWAP1 POP PUSH2 0xEC DUP2 PUSH2 0xC8 JUMP JUMPDEST SWAP3 SWAP2 POP POP JUMP JUMPDEST PUSH0 PUSH1 0x20 DUP3 DUP5 SUB SLT ISZERO PUSH2 0x107 JUMPI PUSH2 0x106 PUSH2 0xBB JUMP JUMPDEST JUMPDEST PUSH0 PUSH2 0x114 DUP5 DUP3 DUP6 ADD PUSH2 0xDE JUMP JUMPDEST SWAP2 POP POP SWAP3 SWAP2 POP POP JUMP JUMPDEST PUSH2 0x126 DUP2 PUSH2 0xBF JUMP JUMPDEST DUP3 MSTORE POP POP JUMP JUMPDEST PUSH0 PUSH1 0x40 DUP3 ADD SWAP1 POP PUSH2 0x13F PUSH0 DUP4 ADD DUP6 PUSH2 0x11D JUMP JUMPDEST PUSH2 0x14C PUSH1 0x20 DUP4 ADD DUP5 PUSH2 0x11D JUMP JUMPDEST SWAP4 SWAP3 POP POP POP JUMP JUMPDEST PUSH32 0x4E487B7100000000000000000000000000000000000000000000000000000000 PUSH0 MSTORE PUSH1 0x11 PUSH1 0x4 MSTORE PUSH1 0x24 PUSH0 REVERT JUMPDEST PUSH0 PUSH2 0x18A DUP3 PUSH2 0xBF JUMP JUMPDEST SWAP2 POP PUSH2 0x195 DUP4 PUSH2 0xBF JUMP JUMPDEST SWAP3 POP DUP3 DUP3 ADD SWAP1 POP DUP1 DUP3 GT ISZERO PUSH2 0x1AD JUMPI PUSH2 0x1AC PUSH2 0x153 JUMP JUMPDEST JUMPDEST SWAP3 SWAP2 POP POP JUMP JUMPDEST PUSH0 PUSH2 0x1BD DUP3 PUSH2 0xBF JUMP JUMPDEST SWAP2 POP PUSH32 0xFFFFFFFFFFFFFFFFFFFFFFFFFFFFFFFFFFFFFFFFFFFFFFFFFFFFFFFFFFFFFFFF DUP3 SUB PUSH2 0x1EF JUMPI PUSH2 0x1EE PUSH2 0x153 JUMP JUMPDEST JUMPDEST PUSH1 0x1 DUP3 ADD SWAP1 POP SWAP2 SWAP1 POP JUMP INVALID LOG2 PUSH5 0x6970667358 0x22 SLT KECCAK256 PUSH5 0x5AE9947875 PUSH30 0x74E0D7C240F67B9C386E6506078D34DDF7FE6AAC53A9A3CF4064736F6C63 NUMBER STOP ADDMOD AND STOP CALLER "
				},
				"gasEstimates": {
					"creation": {
						"codeDepositCost": "112000",
						"executionCost": "157",
						"totalCost": "112157"
					},
					"external": {
						"foo(uint256)": "infinite"
					}
				},
				"methodIdentifiers": {
					"foo(uint256)": "2fbebd38"
				}
			},
			"storageLayout": {
				"storage": [
					{
						"astId": 4,
						"contract": "contract/9.Loop.sol:Loop",
						"label": "arr1",
						"offset": 0,
						"slot": "0",
						"type": "t_array(t_uint256)dyn_storage"
					}
				],
				"types": {
					"t_array(t_uint256)dyn_storage": {
						"base": "t_uint256",
						"encoding": "dynamic_array",
						"label": "uint256[]",
						"numberOfBytes": "32"
					},
					"t_uint256": {
						"encoding": "inplace",
						"label": "uint256",
						"numberOfBytes": "32"
					}
				}
			},
			"userdoc": {
				"kind": "user",
				"methods": {},
				"version": 1
			}
		}
	}
}