{
	"contract/12.ArrayRemoveByShifting.sol": {
		"ArrayRemove": {
			"abi": [
				{
					"inputs": [
						{
							"internalType": "uint256",
							"name": "",
							"type": "uint256"
						}
					],
					"name": "darr",
					"outputs": [
						{
							"internalType": "uint256",
							"name": "",
							"type": "uint256"
						}
					],
					"stateMutability": "view",
					"type": "function"
				},
				{
					"inputs": [
						{
							"internalType": "uint256",
							"name": "",
							"type": "uint256"
						}
					],
					"name": "darr2",
					"outputs": [
						{
							"internalType": "uint256",
							"name": "",
							"type": "uint256"
						}
					],
					"stateMutability": "view",
					"type": "function"
				},
				{
					"inputs": [],
					"name": "get1",
					"outputs": [
						{
							"internalType": "uint256[]",
							"name": "",
							"type": "uint256[]"
						}
					],
					"stateMutability": "view",
					"type": "function"
				},
				{
					"inputs": [],
					"name": "get2",
					"outputs": [
						{
							"internalType": "uint256[]",
							"name": "",
							"type": "uint256[]"
						}
					],
					"stateMutability": "view",
					"type": "function"
				},
				{
					"inputs": [
						{
							"internalType": "uint256",
							"name": "_index",
							"type": "uint256"
						}
					],
					"name": "removeItem1",
					"outputs": [],
					"stateMutability": "nonpayable",
					"type": "function"
				},
				{
					"inputs": [
						{
							"internalType": "uint256",
							"name": "_index",
							"type": "uint256"
						}
					],
					"name": "removeItem2",
					"outputs": [],
					"stateMutability": "nonpayable",
					"type": "function"
				}
			],
			"devdoc": {
				"kind": "dev",
				"methods": {},
				"version": 1
			},
			"evm": {
				"assembly": "    /* \"contract/12.ArrayRemoveByShifting.sol\":382:1525  contract ArrayRemove {... */\n  mstore(0x40, 0x80)\n    /* \"contract/12.ArrayRemoveByShifting.sol\":409:448  uint256[] public darr = [1, 2, 3, 4, 5] */\n  mload(0x40)\n  dup1\n  0xa0\n  add\n  0x40\n  mstore\n  dup1\n    /* \"contract/12.ArrayRemoveByShifting.sol\":434:435  1 */\n  0x01\n    /* \"contract/12.ArrayRemoveByShifting.sol\":409:448  uint256[] public darr = [1, 2, 3, 4, 5] */\n  0xff\n  and\n  dup2\n  mstore\n  0x20\n  add\n    /* \"contract/12.ArrayRemoveByShifting.sol\":437:438  2 */\n  0x02\n    /* \"contract/12.ArrayRemoveByShifting.sol\":409:448  uint256[] public darr = [1, 2, 3, 4, 5] */\n  0xff\n  and\n  dup2\n  mstore\n  0x20\n  add\n    /* \"contract/12.ArrayRemoveByShifting.sol\":440:441  3 */\n  0x03\n    /* \"contract/12.ArrayRemoveByShifting.sol\":409:448  uint256[] public darr = [1, 2, 3, 4, 5] */\n  0xff\n  and\n  dup2\n  mstore\n  0x20\n  add\n    /* \"contract/12.ArrayRemoveByShifting.sol\":443:444  4 */\n  0x04\n    /* \"contract/12.ArrayRemoveByShifting.sol\":409:448  uint256[] public darr = [1, 2, 3, 4, 5] */\n  0xff\n  and\n  dup2\n  mstore\n  0x20\n  add\n    /* \"contract/12.ArrayRemoveByShifting.sol\":446:447  5 */\n  0x05\n    /* \"contract/12.ArrayRemoveByShifting.sol\":409:448  uint256[] public darr = [1, 2, 3, 4, 5] */\n  0xff\n  and\n  dup2\n  mstore\n  pop\n  0x00\n  swap1\n  0x05\n  tag_1\n  swap3\n  swap2\n  swap1\n  tag_2\n  jump\t// in\ntag_1:\n  pop\n    /* \"contract/12.ArrayRemoveByShifting.sol\":454:500  uint256[] public darr2 = [1, 2, 3, 4, 5, 6, 7] */\n  mload(0x40)\n  dup1\n  0xe0\n  add\n  0x40\n  mstore\n  dup1\n    /* \"contract/12.ArrayRemoveByShifting.sol\":480:481  1 */\n  0x01\n    /* \"contract/12.ArrayRemoveByShifting.sol\":454:500  uint256[] public darr2 = [1, 2, 3, 4, 5, 6, 7] */\n  0xff\n  and\n  dup2\n  mstore\n  0x20\n  add\n    /* \"contract/12.ArrayRemoveByShifting.sol\":483:484  2 */\n  0x02\n    /* \"contract/12.ArrayRemoveByShifting.sol\":454:500  uint256[] public darr2 = [1, 2, 3, 4, 5, 6, 7] */\n  0xff\n  and\n  dup2\n  mstore\n  0x20\n  add\n    /* \"contract/12.ArrayRemoveByShifting.sol\":486:487  3 */\n  0x03\n    /* \"contract/12.ArrayRemoveByShifting.sol\":454:500  uint256[] public darr2 = [1, 2, 3, 4, 5, 6, 7] */\n  0xff\n  and\n  dup2\n  mstore\n  0x20\n  add\n    /* \"contract/12.ArrayRemoveByShifting.sol\":489:490  4 */\n  0x04\n    /* \"contract/12.ArrayRemoveByShifting.sol\":454:500  uint256[] public darr2 = [1, 2, 3, 4, 5, 6, 7] */\n  0xff\n  and\n  dup2\n  mstore\n  0x20\n  add\n    /* \"contract/12.ArrayRemoveByShifting.sol\":492:493  5 */\n  0x05\n    /* \"contract/12.ArrayRemoveByShifting.sol\":454:500  uint256[] public darr2 = [1, 2, 3, 4, 5, 6, 7] */\n  0xff\n  and\n  dup2\n  mstore\n  0x20\n  add\n    /* \"contract/12.ArrayRemoveByShifting.sol\":495:496  6 */\n  0x06\n    /* \"contract/12.ArrayRemoveByShifting.sol\":454:500  uint256[] public darr2 = [1, 2, 3, 4, 5, 6, 7] */\n  0xff\n  and\n  dup2\n  mstore\n  0x20\n  add\n    /* \"contract/12.ArrayRemoveByShifting.sol\":498:499  7 */\n  0x07\n    /* \"contract/12.ArrayRemoveByShifting.sol\":454:500  uint256[] public darr2 = [1, 2, 3, 4, 5, 6, 7] */\n  0xff\n  and\n  dup2\n  mstore\n  pop\n  0x01\n  swap1\n  0x07\n  tag_3\n  swap3\n  swap2\n  swap1\n  tag_4\n  jump\t// in\ntag_3:\n  pop\n    /* \"contract/12.ArrayRemoveByShifting.sol\":382:1525  contract ArrayRemove {... */\n  callvalue\n  dup1\n  iszero\n  tag_5\n  jumpi\n  0x00\n  dup1\n  revert\ntag_5:\n  pop\n  jump(tag_6)\ntag_2:\n  dup3\n  dup1\n  sload\n  dup3\n  dup3\n  sstore\n  swap1\n  0x00\n  mstore\n  keccak256(0x00, 0x20)\n  swap1\n  dup2\n  add\n  swap3\n  dup3\n  iszero\n  tag_7\n  jumpi\n  swap2\n  0x20\n  mul\n  dup3\n  add\ntag_8:\n  dup3\n  dup2\n  gt\n  iszero\n  tag_9\n  jumpi\n  dup3\n  mload\n  dup3\n  swap1\n  0xff\n  and\n  swap1\n  sstore\n  swap2\n  0x20\n  add\n  swap2\n  swap1\n  0x01\n  add\n  swap1\n  jump(tag_8)\ntag_9:\ntag_7:\n  pop\n  swap1\n  pop\n  tag_10\n  swap2\n  swap1\n  tag_11\n  jump\t// in\ntag_10:\n  pop\n  swap1\n  jump\t// out\ntag_4:\n  dup3\n  dup1\n  sload\n  dup3\n  dup3\n  sstore\n  swap1\n  0x00\n  mstore\n  keccak256(0x00, 0x20)\n  swap1\n  dup2\n  add\n  swap3\n  dup3\n  iszero\n  tag_12\n  jumpi\n  swap2\n  0x20\n  mul\n  dup3\n  add\ntag_13:\n  dup3\n  dup2\n  gt\n  iszero\n  tag_14\n  jumpi\n  dup3\n  mload\n  dup3\n  swap1\n  0xff\n  and\n  swap1\n  sstore\n  swap2\n  0x20\n  add\n  swap2\n  swap1\n  0x01\n  add\n  swap1\n  jump(tag_13)\ntag_14:\ntag_12:\n  pop\n  swap1\n  pop\n  tag_15\n  swap2\n  swap1\n  tag_11\n  jump\t// in\ntag_15:\n  pop\n  swap1\n  jump\t// out\ntag_11:\ntag_16:\n  dup1\n  dup3\n  gt\n  iszero\n  tag_17\n  jumpi\n  0x00\n  dup2\n  0x00\n  swap1\n  sstore\n  pop\n  0x01\n  add\n  jump(tag_16)\ntag_17:\n  pop\n  swap1\n  jump\t// out\ntag_6:\n  dataSize(sub_0)\n  dup1\n  dataOffset(sub_0)\n  0x00\n  codecopy\n  0x00\n  return\nstop\n\nsub_0: assembly {\n        /* \"contract/12.ArrayRemoveByShifting.sol\":382:1525  contract ArrayRemove {... */\n      mstore(0x40, 0x80)\n      callvalue\n      dup1\n      iszero\n      tag_1\n      jumpi\n      0x00\n      dup1\n      revert\n    tag_1:\n      pop\n      jumpi(tag_2, lt(calldatasize, 0x04))\n      shr(0xe0, calldataload(0x00))\n      dup1\n      0x054c1a75\n      eq\n      tag_3\n      jumpi\n      dup1\n      0x63de57b7\n      eq\n      tag_4\n      jumpi\n      dup1\n      0x771ed7f9\n      eq\n      tag_5\n      jumpi\n      dup1\n      0xd2178b08\n      eq\n      tag_6\n      jumpi\n      dup1\n      0xd99b2367\n      eq\n      tag_7\n      jumpi\n      dup1\n      0xe9cee983\n      eq\n      tag_8\n      jumpi\n    tag_2:\n      0x00\n      dup1\n      revert\n        /* \"contract/12.ArrayRemoveByShifting.sol\":962:1044  function get1() external view returns (uint[] memory) {... */\n    tag_3:\n      tag_9\n      tag_10\n      jump\t// in\n    tag_9:\n      mload(0x40)\n      tag_11\n      swap2\n      swap1\n      tag_12\n      jump\t// in\n    tag_11:\n      mload(0x40)\n      dup1\n      swap2\n      sub\n      swap1\n      return\n        /* \"contract/12.ArrayRemoveByShifting.sol\":409:448  uint256[] public darr = [1, 2, 3, 4, 5] */\n    tag_4:\n      tag_13\n      0x04\n      dup1\n      calldatasize\n      sub\n      dup2\n      add\n      swap1\n      tag_14\n      swap2\n      swap1\n      tag_15\n      jump\t// in\n    tag_14:\n      tag_16\n      jump\t// in\n    tag_13:\n      mload(0x40)\n      tag_17\n      swap2\n      swap1\n      tag_18\n      jump\t// in\n    tag_17:\n      mload(0x40)\n      dup1\n      swap2\n      sub\n      swap1\n      return\n        /* \"contract/12.ArrayRemoveByShifting.sol\":454:500  uint256[] public darr2 = [1, 2, 3, 4, 5, 6, 7] */\n    tag_5:\n      tag_19\n      0x04\n      dup1\n      calldatasize\n      sub\n      dup2\n      add\n      swap1\n      tag_20\n      swap2\n      swap1\n      tag_15\n      jump\t// in\n    tag_20:\n      tag_21\n      jump\t// in\n    tag_19:\n      mload(0x40)\n      tag_22\n      swap2\n      swap1\n      tag_18\n      jump\t// in\n    tag_22:\n      mload(0x40)\n      dup1\n      swap2\n      sub\n      swap1\n      return\n        /* \"contract/12.ArrayRemoveByShifting.sol\":1440:1523  function get2() external view returns (uint[] memory) {... */\n    tag_6:\n      tag_23\n      tag_24\n      jump\t// in\n    tag_23:\n      mload(0x40)\n      tag_25\n      swap2\n      swap1\n      tag_12\n      jump\t// in\n    tag_25:\n      mload(0x40)\n      dup1\n      swap2\n      sub\n      swap1\n      return\n        /* \"contract/12.ArrayRemoveByShifting.sol\":1198:1430  function removeItem2( uint _index) external {... */\n    tag_7:\n      tag_26\n      0x04\n      dup1\n      calldatasize\n      sub\n      dup2\n      add\n      swap1\n      tag_27\n      swap2\n      swap1\n      tag_15\n      jump\t// in\n    tag_27:\n      tag_28\n      jump\t// in\n    tag_26:\n      stop\n        /* \"contract/12.ArrayRemoveByShifting.sol\":645:956  function removeItem1(uint256 _index) external {... */\n    tag_8:\n      tag_29\n      0x04\n      dup1\n      calldatasize\n      sub\n      dup2\n      add\n      swap1\n      tag_30\n      swap2\n      swap1\n      tag_15\n      jump\t// in\n    tag_30:\n      tag_31\n      jump\t// in\n    tag_29:\n      stop\n        /* \"contract/12.ArrayRemoveByShifting.sol\":962:1044  function get1() external view returns (uint[] memory) {... */\n    tag_10:\n        /* \"contract/12.ArrayRemoveByShifting.sol\":1001:1014  uint[] memory */\n      0x60\n        /* \"contract/12.ArrayRemoveByShifting.sol\":1033:1037  darr */\n      0x00\n        /* \"contract/12.ArrayRemoveByShifting.sol\":1026:1037  return darr */\n      dup1\n      sload\n      dup1\n      0x20\n      mul\n      0x20\n      add\n      mload(0x40)\n      swap1\n      dup2\n      add\n      0x40\n      mstore\n      dup1\n      swap3\n      swap2\n      swap1\n      dup2\n      dup2\n      mstore\n      0x20\n      add\n      dup3\n      dup1\n      sload\n      dup1\n      iszero\n      tag_33\n      jumpi\n      0x20\n      mul\n      dup3\n      add\n      swap2\n      swap1\n      0x00\n      mstore\n      keccak256(0x00, 0x20)\n      swap1\n    tag_34:\n      dup2\n      sload\n      dup2\n      mstore\n      0x20\n      add\n      swap1\n      0x01\n      add\n      swap1\n      dup1\n      dup4\n      gt\n      tag_34\n      jumpi\n    tag_33:\n      pop\n      pop\n      pop\n      pop\n      pop\n      swap1\n      pop\n        /* \"contract/12.ArrayRemoveByShifting.sol\":962:1044  function get1() external view returns (uint[] memory) {... */\n      swap1\n      jump\t// out\n        /* \"contract/12.ArrayRemoveByShifting.sol\":409:448  uint256[] public darr = [1, 2, 3, 4, 5] */\n    tag_16:\n      0x00\n      dup2\n      dup2\n      sload\n      dup2\n      lt\n      tag_35\n      jumpi\n      0x00\n      dup1\n      revert\n    tag_35:\n      swap1\n      0x00\n      mstore\n      keccak256(0x00, 0x20)\n      add\n      0x00\n      swap2\n      pop\n      swap1\n      pop\n      sload\n      dup2\n      jump\t// out\n        /* \"contract/12.ArrayRemoveByShifting.sol\":454:500  uint256[] public darr2 = [1, 2, 3, 4, 5, 6, 7] */\n    tag_21:\n      0x01\n      dup2\n      dup2\n      sload\n      dup2\n      lt\n      tag_37\n      jumpi\n      0x00\n      dup1\n      revert\n    tag_37:\n      swap1\n      0x00\n      mstore\n      keccak256(0x00, 0x20)\n      add\n      0x00\n      swap2\n      pop\n      swap1\n      pop\n      sload\n      dup2\n      jump\t// out\n        /* \"contract/12.ArrayRemoveByShifting.sol\":1440:1523  function get2() external view returns (uint[] memory) {... */\n    tag_24:\n        /* \"contract/12.ArrayRemoveByShifting.sol\":1479:1492  uint[] memory */\n      0x60\n        /* \"contract/12.ArrayRemoveByShifting.sol\":1511:1516  darr2 */\n      0x01\n        /* \"contract/12.ArrayRemoveByShifting.sol\":1504:1516  return darr2 */\n      dup1\n      sload\n      dup1\n      0x20\n      mul\n      0x20\n      add\n      mload(0x40)\n      swap1\n      dup2\n      add\n      0x40\n      mstore\n      dup1\n      swap3\n      swap2\n      swap1\n      dup2\n      dup2\n      mstore\n      0x20\n      add\n      dup3\n      dup1\n      sload\n      dup1\n      iszero\n      tag_40\n      jumpi\n      0x20\n      mul\n      dup3\n      add\n      swap2\n      swap1\n      0x00\n      mstore\n      keccak256(0x00, 0x20)\n      swap1\n    tag_41:\n      dup2\n      sload\n      dup2\n      mstore\n      0x20\n      add\n      swap1\n      0x01\n      add\n      swap1\n      dup1\n      dup4\n      gt\n      tag_41\n      jumpi\n    tag_40:\n      pop\n      pop\n      pop\n      pop\n      pop\n      swap1\n      pop\n        /* \"contract/12.ArrayRemoveByShifting.sol\":1440:1523  function get2() external view returns (uint[] memory) {... */\n      swap1\n      jump\t// out\n        /* \"contract/12.ArrayRemoveByShifting.sol\":1198:1430  function removeItem2( uint _index) external {... */\n    tag_28:\n        /* \"contract/12.ArrayRemoveByShifting.sol\":1320:1325  darr2 */\n      0x01\n        /* \"contract/12.ArrayRemoveByShifting.sol\":1320:1332  darr2.length */\n      dup1\n      sload\n      swap1\n      pop\n        /* \"contract/12.ArrayRemoveByShifting.sol\":1311:1317  _index */\n      dup2\n        /* \"contract/12.ArrayRemoveByShifting.sol\":1311:1332  _index < darr2.length */\n      lt\n        /* \"contract/12.ArrayRemoveByShifting.sol\":1303:1355  require(_index < darr2.length, \"index out of bound\") */\n      tag_43\n      jumpi\n      mload(0x40)\n      0x08c379a000000000000000000000000000000000000000000000000000000000\n      dup2\n      mstore\n      0x04\n      add\n      tag_44\n      swap1\n      tag_45\n      jump\t// in\n    tag_44:\n      mload(0x40)\n      dup1\n      swap2\n      sub\n      swap1\n      revert\n    tag_43:\n        /* \"contract/12.ArrayRemoveByShifting.sol\":1381:1386  darr2 */\n      0x01\n        /* \"contract/12.ArrayRemoveByShifting.sol\":1400:1401  1 */\n      dup1\n        /* \"contract/12.ArrayRemoveByShifting.sol\":1387:1392  darr2 */\n      dup1\n        /* \"contract/12.ArrayRemoveByShifting.sol\":1387:1399  darr2.length */\n      dup1\n      sload\n      swap1\n      pop\n        /* \"contract/12.ArrayRemoveByShifting.sol\":1387:1401  darr2.length-1 */\n      tag_46\n      swap2\n      swap1\n      tag_47\n      jump\t// in\n    tag_46:\n        /* \"contract/12.ArrayRemoveByShifting.sol\":1381:1402  darr2[darr2.length-1] */\n      dup2\n      sload\n      dup2\n      lt\n      tag_48\n      jumpi\n      tag_49\n      tag_50\n      jump\t// in\n    tag_49:\n    tag_48:\n      swap1\n      0x00\n      mstore\n      keccak256(0x00, 0x20)\n      add\n      sload\n        /* \"contract/12.ArrayRemoveByShifting.sol\":1365:1370  darr2 */\n      0x01\n        /* \"contract/12.ArrayRemoveByShifting.sol\":1371:1377  _index */\n      dup3\n        /* \"contract/12.ArrayRemoveByShifting.sol\":1365:1378  darr2[_index] */\n      dup2\n      sload\n      dup2\n      lt\n      tag_52\n      jumpi\n      tag_53\n      tag_50\n      jump\t// in\n    tag_53:\n    tag_52:\n      swap1\n      0x00\n      mstore\n      keccak256(0x00, 0x20)\n      add\n        /* \"contract/12.ArrayRemoveByShifting.sol\":1365:1402  darr2[_index] = darr2[darr2.length-1] */\n      dup2\n      swap1\n      sstore\n      pop\n        /* \"contract/12.ArrayRemoveByShifting.sol\":1412:1417  darr2 */\n      0x01\n        /* \"contract/12.ArrayRemoveByShifting.sol\":1412:1423  darr2.pop() */\n      dup1\n      sload\n      dup1\n      tag_55\n      jumpi\n      tag_56\n      tag_57\n      jump\t// in\n    tag_56:\n    tag_55:\n      0x01\n      swap1\n      sub\n      dup2\n      dup2\n      swap1\n      0x00\n      mstore\n      keccak256(0x00, 0x20)\n      add\n      0x00\n      swap1\n      sstore\n      swap1\n      sstore\n        /* \"contract/12.ArrayRemoveByShifting.sol\":1198:1430  function removeItem2( uint _index) external {... */\n      pop\n      jump\t// out\n        /* \"contract/12.ArrayRemoveByShifting.sol\":645:956  function removeItem1(uint256 _index) external {... */\n    tag_31:\n        /* \"contract/12.ArrayRemoveByShifting.sol\":701:712  uint256 len */\n      0x00\n        /* \"contract/12.ArrayRemoveByShifting.sol\":715:719  darr */\n      dup1\n        /* \"contract/12.ArrayRemoveByShifting.sol\":715:726  darr.length */\n      dup1\n      sload\n      swap1\n      pop\n        /* \"contract/12.ArrayRemoveByShifting.sol\":701:726  uint256 len = darr.length */\n      swap1\n      pop\n        /* \"contract/12.ArrayRemoveByShifting.sol\":804:807  len */\n      dup1\n        /* \"contract/12.ArrayRemoveByShifting.sol\":795:801  _index */\n      dup3\n        /* \"contract/12.ArrayRemoveByShifting.sol\":795:807  _index < len */\n      lt\n        /* \"contract/12.ArrayRemoveByShifting.sol\":787:830  require(_index < len, \"index out of bound\") */\n      tag_60\n      jumpi\n      mload(0x40)\n      0x08c379a000000000000000000000000000000000000000000000000000000000\n      dup2\n      mstore\n      0x04\n      add\n      tag_61\n      swap1\n      tag_45\n      jump\t// in\n    tag_61:\n      mload(0x40)\n      dup1\n      swap2\n      sub\n      swap1\n      revert\n    tag_60:\n        /* \"contract/12.ArrayRemoveByShifting.sol\":846:855  uint256 i */\n      0x00\n        /* \"contract/12.ArrayRemoveByShifting.sol\":858:864  _index */\n      dup3\n        /* \"contract/12.ArrayRemoveByShifting.sol\":846:864  uint256 i = _index */\n      swap1\n      pop\n        /* \"contract/12.ArrayRemoveByShifting.sol\":841:930  for (uint256 i = _index; i < len - 1; i++) {... */\n    tag_62:\n        /* \"contract/12.ArrayRemoveByShifting.sol\":876:877  1 */\n      0x01\n        /* \"contract/12.ArrayRemoveByShifting.sol\":870:873  len */\n      dup3\n        /* \"contract/12.ArrayRemoveByShifting.sol\":870:877  len - 1 */\n      tag_65\n      swap2\n      swap1\n      tag_47\n      jump\t// in\n    tag_65:\n        /* \"contract/12.ArrayRemoveByShifting.sol\":866:867  i */\n      dup2\n        /* \"contract/12.ArrayRemoveByShifting.sol\":866:877  i < len - 1 */\n      lt\n        /* \"contract/12.ArrayRemoveByShifting.sol\":841:930  for (uint256 i = _index; i < len - 1; i++) {... */\n      iszero\n      tag_63\n      jumpi\n        /* \"contract/12.ArrayRemoveByShifting.sol\":908:912  darr */\n      0x00\n        /* \"contract/12.ArrayRemoveByShifting.sol\":917:918  1 */\n      0x01\n        /* \"contract/12.ArrayRemoveByShifting.sol\":913:914  i */\n      dup3\n        /* \"contract/12.ArrayRemoveByShifting.sol\":913:918  i + 1 */\n      tag_66\n      swap2\n      swap1\n      tag_67\n      jump\t// in\n    tag_66:\n        /* \"contract/12.ArrayRemoveByShifting.sol\":908:919  darr[i + 1] */\n      dup2\n      sload\n      dup2\n      lt\n      tag_68\n      jumpi\n      tag_69\n      tag_50\n      jump\t// in\n    tag_69:\n    tag_68:\n      swap1\n      0x00\n      mstore\n      keccak256(0x00, 0x20)\n      add\n      sload\n        /* \"contract/12.ArrayRemoveByShifting.sol\":898:902  darr */\n      0x00\n        /* \"contract/12.ArrayRemoveByShifting.sol\":903:904  i */\n      dup3\n        /* \"contract/12.ArrayRemoveByShifting.sol\":898:905  darr[i] */\n      dup2\n      sload\n      dup2\n      lt\n      tag_71\n      jumpi\n      tag_72\n      tag_50\n      jump\t// in\n    tag_72:\n    tag_71:\n      swap1\n      0x00\n      mstore\n      keccak256(0x00, 0x20)\n      add\n        /* \"contract/12.ArrayRemoveByShifting.sol\":898:919  darr[i] = darr[i + 1] */\n      dup2\n      swap1\n      sstore\n      pop\n        /* \"contract/12.ArrayRemoveByShifting.sol\":879:882  i++ */\n      dup1\n      dup1\n      0x01\n      add\n      swap2\n      pop\n      pop\n        /* \"contract/12.ArrayRemoveByShifting.sol\":841:930  for (uint256 i = _index; i < len - 1; i++) {... */\n      jump(tag_62)\n    tag_63:\n      pop\n        /* \"contract/12.ArrayRemoveByShifting.sol\":939:943  darr */\n      0x00\n        /* \"contract/12.ArrayRemoveByShifting.sol\":939:949  darr.pop() */\n      dup1\n      sload\n      dup1\n      tag_74\n      jumpi\n      tag_75\n      tag_57\n      jump\t// in\n    tag_75:\n    tag_74:\n      0x01\n      swap1\n      sub\n      dup2\n      dup2\n      swap1\n      0x00\n      mstore\n      keccak256(0x00, 0x20)\n      add\n      0x00\n      swap1\n      sstore\n      swap1\n      sstore\n        /* \"contract/12.ArrayRemoveByShifting.sol\":691:956  {... */\n      pop\n        /* \"contract/12.ArrayRemoveByShifting.sol\":645:956  function removeItem1(uint256 _index) external {... */\n      pop\n      jump\t// out\n        /* \"#utility.yul\":7:121   */\n    tag_77:\n        /* \"#utility.yul\":74:80   */\n      0x00\n        /* \"#utility.yul\":108:113   */\n      dup2\n        /* \"#utility.yul\":102:114   */\n      mload\n        /* \"#utility.yul\":92:114   */\n      swap1\n      pop\n        /* \"#utility.yul\":7:121   */\n      swap2\n      swap1\n      pop\n      jump\t// out\n        /* \"#utility.yul\":127:311   */\n    tag_78:\n        /* \"#utility.yul\":226:237   */\n      0x00\n        /* \"#utility.yul\":260:266   */\n      dup3\n        /* \"#utility.yul\":255:258   */\n      dup3\n        /* \"#utility.yul\":248:267   */\n      mstore\n        /* \"#utility.yul\":300:304   */\n      0x20\n        /* \"#utility.yul\":295:298   */\n      dup3\n        /* \"#utility.yul\":291:305   */\n      add\n        /* \"#utility.yul\":276:305   */\n      swap1\n      pop\n        /* \"#utility.yul\":127:311   */\n      swap3\n      swap2\n      pop\n      pop\n      jump\t// out\n        /* \"#utility.yul\":317:449   */\n    tag_79:\n        /* \"#utility.yul\":384:388   */\n      0x00\n        /* \"#utility.yul\":407:410   */\n      dup2\n        /* \"#utility.yul\":399:410   */\n      swap1\n      pop\n        /* \"#utility.yul\":437:441   */\n      0x20\n        /* \"#utility.yul\":432:435   */\n      dup3\n        /* \"#utility.yul\":428:442   */\n      add\n        /* \"#utility.yul\":420:442   */\n      swap1\n      pop\n        /* \"#utility.yul\":317:449   */\n      swap2\n      swap1\n      pop\n      jump\t// out\n        /* \"#utility.yul\":455:532   */\n    tag_80:\n        /* \"#utility.yul\":492:499   */\n      0x00\n        /* \"#utility.yul\":521:526   */\n      dup2\n        /* \"#utility.yul\":510:526   */\n      swap1\n      pop\n        /* \"#utility.yul\":455:532   */\n      swap2\n      swap1\n      pop\n      jump\t// out\n        /* \"#utility.yul\":538:646   */\n    tag_81:\n        /* \"#utility.yul\":615:639   */\n      tag_101\n        /* \"#utility.yul\":633:638   */\n      dup2\n        /* \"#utility.yul\":615:639   */\n      tag_80\n      jump\t// in\n    tag_101:\n        /* \"#utility.yul\":610:613   */\n      dup3\n        /* \"#utility.yul\":603:640   */\n      mstore\n        /* \"#utility.yul\":538:646   */\n      pop\n      pop\n      jump\t// out\n        /* \"#utility.yul\":652:831   */\n    tag_82:\n        /* \"#utility.yul\":721:731   */\n      0x00\n        /* \"#utility.yul\":742:788   */\n      tag_103\n        /* \"#utility.yul\":784:787   */\n      dup4\n        /* \"#utility.yul\":776:782   */\n      dup4\n        /* \"#utility.yul\":742:788   */\n      tag_81\n      jump\t// in\n    tag_103:\n        /* \"#utility.yul\":820:824   */\n      0x20\n        /* \"#utility.yul\":815:818   */\n      dup4\n        /* \"#utility.yul\":811:825   */\n      add\n        /* \"#utility.yul\":797:825   */\n      swap1\n      pop\n        /* \"#utility.yul\":652:831   */\n      swap3\n      swap2\n      pop\n      pop\n      jump\t// out\n        /* \"#utility.yul\":837:950   */\n    tag_83:\n        /* \"#utility.yul\":907:911   */\n      0x00\n        /* \"#utility.yul\":939:943   */\n      0x20\n        /* \"#utility.yul\":934:937   */\n      dup3\n        /* \"#utility.yul\":930:944   */\n      add\n        /* \"#utility.yul\":922:944   */\n      swap1\n      pop\n        /* \"#utility.yul\":837:950   */\n      swap2\n      swap1\n      pop\n      jump\t// out\n        /* \"#utility.yul\":986:1718   */\n    tag_84:\n        /* \"#utility.yul\":1105:1108   */\n      0x00\n        /* \"#utility.yul\":1134:1188   */\n      tag_106\n        /* \"#utility.yul\":1182:1187   */\n      dup3\n        /* \"#utility.yul\":1134:1188   */\n      tag_77\n      jump\t// in\n    tag_106:\n        /* \"#utility.yul\":1204:1290   */\n      tag_107\n        /* \"#utility.yul\":1283:1289   */\n      dup2\n        /* \"#utility.yul\":1278:1281   */\n      dup6\n        /* \"#utility.yul\":1204:1290   */\n      tag_78\n      jump\t// in\n    tag_107:\n        /* \"#utility.yul\":1197:1290   */\n      swap4\n      pop\n        /* \"#utility.yul\":1314:1370   */\n      tag_108\n        /* \"#utility.yul\":1364:1369   */\n      dup4\n        /* \"#utility.yul\":1314:1370   */\n      tag_79\n      jump\t// in\n    tag_108:\n        /* \"#utility.yul\":1393:1400   */\n      dup1\n        /* \"#utility.yul\":1424:1425   */\n      0x00\n        /* \"#utility.yul\":1409:1693   */\n    tag_109:\n        /* \"#utility.yul\":1434:1440   */\n      dup4\n        /* \"#utility.yul\":1431:1432   */\n      dup2\n        /* \"#utility.yul\":1428:1441   */\n      lt\n        /* \"#utility.yul\":1409:1693   */\n      iszero\n      tag_111\n      jumpi\n        /* \"#utility.yul\":1510:1516   */\n      dup2\n        /* \"#utility.yul\":1504:1517   */\n      mload\n        /* \"#utility.yul\":1537:1600   */\n      tag_112\n        /* \"#utility.yul\":1596:1599   */\n      dup9\n        /* \"#utility.yul\":1581:1594   */\n      dup3\n        /* \"#utility.yul\":1537:1600   */\n      tag_82\n      jump\t// in\n    tag_112:\n        /* \"#utility.yul\":1530:1600   */\n      swap8\n      pop\n        /* \"#utility.yul\":1623:1683   */\n      tag_113\n        /* \"#utility.yul\":1676:1682   */\n      dup4\n        /* \"#utility.yul\":1623:1683   */\n      tag_83\n      jump\t// in\n    tag_113:\n        /* \"#utility.yul\":1613:1683   */\n      swap3\n      pop\n        /* \"#utility.yul\":1469:1693   */\n      pop\n        /* \"#utility.yul\":1456:1457   */\n      0x01\n        /* \"#utility.yul\":1453:1454   */\n      dup2\n        /* \"#utility.yul\":1449:1458   */\n      add\n        /* \"#utility.yul\":1444:1458   */\n      swap1\n      pop\n        /* \"#utility.yul\":1409:1693   */\n      jump(tag_109)\n    tag_111:\n        /* \"#utility.yul\":1413:1427   */\n      pop\n        /* \"#utility.yul\":1709:1712   */\n      dup6\n        /* \"#utility.yul\":1702:1712   */\n      swap4\n      pop\n        /* \"#utility.yul\":1110:1718   */\n      pop\n      pop\n      pop\n        /* \"#utility.yul\":986:1718   */\n      swap3\n      swap2\n      pop\n      pop\n      jump\t// out\n        /* \"#utility.yul\":1724:2097   */\n    tag_12:\n        /* \"#utility.yul\":1867:1871   */\n      0x00\n        /* \"#utility.yul\":1905:1907   */\n      0x20\n        /* \"#utility.yul\":1894:1903   */\n      dup3\n        /* \"#utility.yul\":1890:1908   */\n      add\n        /* \"#utility.yul\":1882:1908   */\n      swap1\n      pop\n        /* \"#utility.yul\":1954:1963   */\n      dup2\n        /* \"#utility.yul\":1948:1952   */\n      dup2\n        /* \"#utility.yul\":1944:1964   */\n      sub\n        /* \"#utility.yul\":1940:1941   */\n      0x00\n        /* \"#utility.yul\":1929:1938   */\n      dup4\n        /* \"#utility.yul\":1925:1942   */\n      add\n        /* \"#utility.yul\":1918:1965   */\n      mstore\n        /* \"#utility.yul\":1982:2090   */\n      tag_115\n        /* \"#utility.yul\":2085:2089   */\n      dup2\n        /* \"#utility.yul\":2076:2082   */\n      dup5\n        /* \"#utility.yul\":1982:2090   */\n      tag_84\n      jump\t// in\n    tag_115:\n        /* \"#utility.yul\":1974:2090   */\n      swap1\n      pop\n        /* \"#utility.yul\":1724:2097   */\n      swap3\n      swap2\n      pop\n      pop\n      jump\t// out\n        /* \"#utility.yul\":2184:2301   */\n    tag_86:\n        /* \"#utility.yul\":2293:2294   */\n      0x00\n        /* \"#utility.yul\":2290:2291   */\n      dup1\n        /* \"#utility.yul\":2283:2295   */\n      revert\n        /* \"#utility.yul\":2430:2552   */\n    tag_88:\n        /* \"#utility.yul\":2503:2527   */\n      tag_120\n        /* \"#utility.yul\":2521:2526   */\n      dup2\n        /* \"#utility.yul\":2503:2527   */\n      tag_80\n      jump\t// in\n    tag_120:\n        /* \"#utility.yul\":2496:2501   */\n      dup2\n        /* \"#utility.yul\":2493:2528   */\n      eq\n        /* \"#utility.yul\":2483:2546   */\n      tag_121\n      jumpi\n        /* \"#utility.yul\":2542:2543   */\n      0x00\n        /* \"#utility.yul\":2539:2540   */\n      dup1\n        /* \"#utility.yul\":2532:2544   */\n      revert\n        /* \"#utility.yul\":2483:2546   */\n    tag_121:\n        /* \"#utility.yul\":2430:2552   */\n      pop\n      jump\t// out\n        /* \"#utility.yul\":2558:2697   */\n    tag_89:\n        /* \"#utility.yul\":2604:2609   */\n      0x00\n        /* \"#utility.yul\":2642:2648   */\n      dup2\n        /* \"#utility.yul\":2629:2649   */\n      calldataload\n        /* \"#utility.yul\":2620:2649   */\n      swap1\n      pop\n        /* \"#utility.yul\":2658:2691   */\n      tag_123\n        /* \"#utility.yul\":2685:2690   */\n      dup2\n        /* \"#utility.yul\":2658:2691   */\n      tag_88\n      jump\t// in\n    tag_123:\n        /* \"#utility.yul\":2558:2697   */\n      swap3\n      swap2\n      pop\n      pop\n      jump\t// out\n        /* \"#utility.yul\":2703:3032   */\n    tag_15:\n        /* \"#utility.yul\":2762:2768   */\n      0x00\n        /* \"#utility.yul\":2811:2813   */\n      0x20\n        /* \"#utility.yul\":2799:2808   */\n      dup3\n        /* \"#utility.yul\":2790:2797   */\n      dup5\n        /* \"#utility.yul\":2786:2809   */\n      sub\n        /* \"#utility.yul\":2782:2814   */\n      slt\n        /* \"#utility.yul\":2779:2898   */\n      iszero\n      tag_125\n      jumpi\n        /* \"#utility.yul\":2817:2896   */\n      tag_126\n      tag_86\n      jump\t// in\n    tag_126:\n        /* \"#utility.yul\":2779:2898   */\n    tag_125:\n        /* \"#utility.yul\":2937:2938   */\n      0x00\n        /* \"#utility.yul\":2962:3015   */\n      tag_127\n        /* \"#utility.yul\":3007:3014   */\n      dup5\n        /* \"#utility.yul\":2998:3004   */\n      dup3\n        /* \"#utility.yul\":2987:2996   */\n      dup6\n        /* \"#utility.yul\":2983:3005   */\n      add\n        /* \"#utility.yul\":2962:3015   */\n      tag_89\n      jump\t// in\n    tag_127:\n        /* \"#utility.yul\":2952:3015   */\n      swap2\n      pop\n        /* \"#utility.yul\":2908:3025   */\n      pop\n        /* \"#utility.yul\":2703:3032   */\n      swap3\n      swap2\n      pop\n      pop\n      jump\t// out\n        /* \"#utility.yul\":3038:3156   */\n    tag_90:\n        /* \"#utility.yul\":3125:3149   */\n      tag_129\n        /* \"#utility.yul\":3143:3148   */\n      dup2\n        /* \"#utility.yul\":3125:3149   */\n      tag_80\n      jump\t// in\n    tag_129:\n        /* \"#utility.yul\":3120:3123   */\n      dup3\n        /* \"#utility.yul\":3113:3150   */\n      mstore\n        /* \"#utility.yul\":3038:3156   */\n      pop\n      pop\n      jump\t// out\n        /* \"#utility.yul\":3162:3384   */\n    tag_18:\n        /* \"#utility.yul\":3255:3259   */\n      0x00\n        /* \"#utility.yul\":3293:3295   */\n      0x20\n        /* \"#utility.yul\":3282:3291   */\n      dup3\n        /* \"#utility.yul\":3278:3296   */\n      add\n        /* \"#utility.yul\":3270:3296   */\n      swap1\n      pop\n        /* \"#utility.yul\":3306:3377   */\n      tag_131\n        /* \"#utility.yul\":3374:3375   */\n      0x00\n        /* \"#utility.yul\":3363:3372   */\n      dup4\n        /* \"#utility.yul\":3359:3376   */\n      add\n        /* \"#utility.yul\":3350:3356   */\n      dup5\n        /* \"#utility.yul\":3306:3377   */\n      tag_90\n      jump\t// in\n    tag_131:\n        /* \"#utility.yul\":3162:3384   */\n      swap3\n      swap2\n      pop\n      pop\n      jump\t// out\n        /* \"#utility.yul\":3390:3559   */\n    tag_91:\n        /* \"#utility.yul\":3474:3485   */\n      0x00\n        /* \"#utility.yul\":3508:3514   */\n      dup3\n        /* \"#utility.yul\":3503:3506   */\n      dup3\n        /* \"#utility.yul\":3496:3515   */\n      mstore\n        /* \"#utility.yul\":3548:3552   */\n      0x20\n        /* \"#utility.yul\":3543:3546   */\n      dup3\n        /* \"#utility.yul\":3539:3553   */\n      add\n        /* \"#utility.yul\":3524:3553   */\n      swap1\n      pop\n        /* \"#utility.yul\":3390:3559   */\n      swap3\n      swap2\n      pop\n      pop\n      jump\t// out\n        /* \"#utility.yul\":3565:3733   */\n    tag_92:\n        /* \"#utility.yul\":3705:3725   */\n      0x696e646578206f7574206f6620626f756e640000000000000000000000000000\n        /* \"#utility.yul\":3701:3702   */\n      0x00\n        /* \"#utility.yul\":3693:3699   */\n      dup3\n        /* \"#utility.yul\":3689:3703   */\n      add\n        /* \"#utility.yul\":3682:3726   */\n      mstore\n        /* \"#utility.yul\":3565:3733   */\n      pop\n      jump\t// out\n        /* \"#utility.yul\":3739:4105   */\n    tag_93:\n        /* \"#utility.yul\":3881:3884   */\n      0x00\n        /* \"#utility.yul\":3902:3969   */\n      tag_135\n        /* \"#utility.yul\":3966:3968   */\n      0x12\n        /* \"#utility.yul\":3961:3964   */\n      dup4\n        /* \"#utility.yul\":3902:3969   */\n      tag_91\n      jump\t// in\n    tag_135:\n        /* \"#utility.yul\":3895:3969   */\n      swap2\n      pop\n        /* \"#utility.yul\":3978:4071   */\n      tag_136\n        /* \"#utility.yul\":4067:4070   */\n      dup3\n        /* \"#utility.yul\":3978:4071   */\n      tag_92\n      jump\t// in\n    tag_136:\n        /* \"#utility.yul\":4096:4098   */\n      0x20\n        /* \"#utility.yul\":4091:4094   */\n      dup3\n        /* \"#utility.yul\":4087:4099   */\n      add\n        /* \"#utility.yul\":4080:4099   */\n      swap1\n      pop\n        /* \"#utility.yul\":3739:4105   */\n      swap2\n      swap1\n      pop\n      jump\t// out\n        /* \"#utility.yul\":4111:4530   */\n    tag_45:\n        /* \"#utility.yul\":4277:4281   */\n      0x00\n        /* \"#utility.yul\":4315:4317   */\n      0x20\n        /* \"#utility.yul\":4304:4313   */\n      dup3\n        /* \"#utility.yul\":4300:4318   */\n      add\n        /* \"#utility.yul\":4292:4318   */\n      swap1\n      pop\n        /* \"#utility.yul\":4364:4373   */\n      dup2\n        /* \"#utility.yul\":4358:4362   */\n      dup2\n        /* \"#utility.yul\":4354:4374   */\n      sub\n        /* \"#utility.yul\":4350:4351   */\n      0x00\n        /* \"#utility.yul\":4339:4348   */\n      dup4\n        /* \"#utility.yul\":4335:4352   */\n      add\n        /* \"#utility.yul\":4328:4375   */\n      mstore\n        /* \"#utility.yul\":4392:4523   */\n      tag_138\n        /* \"#utility.yul\":4518:4522   */\n      dup2\n        /* \"#utility.yul\":4392:4523   */\n      tag_93\n      jump\t// in\n    tag_138:\n        /* \"#utility.yul\":4384:4523   */\n      swap1\n      pop\n        /* \"#utility.yul\":4111:4530   */\n      swap2\n      swap1\n      pop\n      jump\t// out\n        /* \"#utility.yul\":4536:4716   */\n    tag_94:\n        /* \"#utility.yul\":4584:4661   */\n      0x4e487b7100000000000000000000000000000000000000000000000000000000\n        /* \"#utility.yul\":4581:4582   */\n      0x00\n        /* \"#utility.yul\":4574:4662   */\n      mstore\n        /* \"#utility.yul\":4681:4685   */\n      0x11\n        /* \"#utility.yul\":4678:4679   */\n      0x04\n        /* \"#utility.yul\":4671:4686   */\n      mstore\n        /* \"#utility.yul\":4705:4709   */\n      0x24\n        /* \"#utility.yul\":4702:4703   */\n      0x00\n        /* \"#utility.yul\":4695:4710   */\n      revert\n        /* \"#utility.yul\":4722:4916   */\n    tag_47:\n        /* \"#utility.yul\":4762:4766   */\n      0x00\n        /* \"#utility.yul\":4782:4802   */\n      tag_141\n        /* \"#utility.yul\":4800:4801   */\n      dup3\n        /* \"#utility.yul\":4782:4802   */\n      tag_80\n      jump\t// in\n    tag_141:\n        /* \"#utility.yul\":4777:4802   */\n      swap2\n      pop\n        /* \"#utility.yul\":4816:4836   */\n      tag_142\n        /* \"#utility.yul\":4834:4835   */\n      dup4\n        /* \"#utility.yul\":4816:4836   */\n      tag_80\n      jump\t// in\n    tag_142:\n        /* \"#utility.yul\":4811:4836   */\n      swap3\n      pop\n        /* \"#utility.yul\":4860:4861   */\n      dup3\n        /* \"#utility.yul\":4857:4858   */\n      dup3\n        /* \"#utility.yul\":4853:4862   */\n      sub\n        /* \"#utility.yul\":4845:4862   */\n      swap1\n      pop\n        /* \"#utility.yul\":4884:4885   */\n      dup2\n        /* \"#utility.yul\":4878:4882   */\n      dup2\n        /* \"#utility.yul\":4875:4886   */\n      gt\n        /* \"#utility.yul\":4872:4909   */\n      iszero\n      tag_143\n      jumpi\n        /* \"#utility.yul\":4889:4907   */\n      tag_144\n      tag_94\n      jump\t// in\n    tag_144:\n        /* \"#utility.yul\":4872:4909   */\n    tag_143:\n        /* \"#utility.yul\":4722:4916   */\n      swap3\n      swap2\n      pop\n      pop\n      jump\t// out\n        /* \"#utility.yul\":4922:5102   */\n    tag_50:\n        /* \"#utility.yul\":4970:5047   */\n      0x4e487b7100000000000000000000000000000000000000000000000000000000\n        /* \"#utility.yul\":4967:4968   */\n      0x00\n        /* \"#utility.yul\":4960:5048   */\n      mstore\n        /* \"#utility.yul\":5067:5071   */\n      0x32\n        /* \"#utility.yul\":5064:5065   */\n      0x04\n        /* \"#utility.yul\":5057:5072   */\n      mstore\n        /* \"#utility.yul\":5091:5095   */\n      0x24\n        /* \"#utility.yul\":5088:5089   */\n      0x00\n        /* \"#utility.yul\":5081:5096   */\n      revert\n        /* \"#utility.yul\":5108:5288   */\n    tag_57:\n        /* \"#utility.yul\":5156:5233   */\n      0x4e487b7100000000000000000000000000000000000000000000000000000000\n        /* \"#utility.yul\":5153:5154   */\n      0x00\n        /* \"#utility.yul\":5146:5234   */\n      mstore\n        /* \"#utility.yul\":5253:5257   */\n      0x31\n        /* \"#utility.yul\":5250:5251   */\n      0x04\n        /* \"#utility.yul\":5243:5258   */\n      mstore\n        /* \"#utility.yul\":5277:5281   */\n      0x24\n        /* \"#utility.yul\":5274:5275   */\n      0x00\n        /* \"#utility.yul\":5267:5282   */\n      revert\n        /* \"#utility.yul\":5294:5485   */\n    tag_67:\n        /* \"#utility.yul\":5334:5337   */\n      0x00\n        /* \"#utility.yul\":5353:5373   */\n      tag_148\n        /* \"#utility.yul\":5371:5372   */\n      dup3\n        /* \"#utility.yul\":5353:5373   */\n      tag_80\n      jump\t// in\n    tag_148:\n        /* \"#utility.yul\":5348:5373   */\n      swap2\n      pop\n        /* \"#utility.yul\":5387:5407   */\n      tag_149\n        /* \"#utility.yul\":5405:5406   */\n      dup4\n        /* \"#utility.yul\":5387:5407   */\n      tag_80\n      jump\t// in\n    tag_149:\n        /* \"#utility.yul\":5382:5407   */\n      swap3\n      pop\n        /* \"#utility.yul\":5430:5431   */\n      dup3\n        /* \"#utility.yul\":5427:5428   */\n      dup3\n        /* \"#utility.yul\":5423:5432   */\n      add\n        /* \"#utility.yul\":5416:5432   */\n      swap1\n      pop\n        /* \"#utility.yul\":5451:5454   */\n      dup1\n        /* \"#utility.yul\":5448:5449   */\n      dup3\n        /* \"#utility.yul\":5445:5455   */\n      gt\n        /* \"#utility.yul\":5442:5478   */\n      iszero\n      tag_150\n      jumpi\n        /* \"#utility.yul\":5458:5476   */\n      tag_151\n      tag_94\n      jump\t// in\n    tag_151:\n        /* \"#utility.yul\":5442:5478   */\n    tag_150:\n        /* \"#utility.yul\":5294:5485   */\n      swap3\n      swap2\n      pop\n      pop\n      jump\t// out\n\n    auxdata: 0xa2646970667358221220e9eebfe32c0294edb8ae3badbf3e11d98076f1a5b59e4758ea0893182abb2bbe64736f6c63430008160033\n}\n",
				"bytecode": {
					"linkReferences": {},
					"object": "60806040526040518060a00160405280600160ff168152602001600260ff168152602001600360ff168152602001600460ff168152602001600560ff168152505f90600561004e9291906100c0565b506040518060e00160405280600160ff168152602001600260ff168152602001600360ff168152602001600460ff168152602001600560ff168152602001600660ff168152602001600760ff1681525060019060076100ae929190610110565b503480156100ba575f80fd5b5061017b565b828054828255905f5260205f209081019282156100ff579160200282015b828111156100fe578251829060ff169055916020019190600101906100de565b5b50905061010c9190610160565b5090565b828054828255905f5260205f2090810192821561014f579160200282015b8281111561014e578251829060ff1690559160200191906001019061012e565b5b50905061015c9190610160565b5090565b5b80821115610177575f815f905550600101610161565b5090565b6106b9806101885f395ff3fe608060405234801561000f575f80fd5b5060043610610060575f3560e01c8063054c1a751461006457806363de57b714610082578063771ed7f9146100b2578063d2178b08146100e2578063d99b236714610100578063e9cee9831461011c575b5f80fd5b61006c610138565b604051610079919061047d565b60405180910390f35b61009c600480360381019061009791906104cb565b61018d565b6040516100a99190610505565b60405180910390f35b6100cc60048036038101906100c791906104cb565b6101ac565b6040516100d99190610505565b60405180910390f35b6100ea6101cc565b6040516100f7919061047d565b60405180910390f35b61011a600480360381019061011591906104cb565b610222565b005b610136600480360381019061013191906104cb565b6102dd565b005b60605f80548060200260200160405190810160405280929190818152602001828054801561018357602002820191905f5260205f20905b81548152602001906001019080831161016f575b5050505050905090565b5f818154811061019b575f80fd5b905f5260205f20015f915090505481565b600181815481106101bb575f80fd5b905f5260205f20015f915090505481565b6060600180548060200260200160405190810160405280929190818152602001828054801561021857602002820191905f5260205f20905b815481526020019060010190808311610204575b5050505050905090565b6001805490508110610269576040517f08c379a000000000000000000000000000000000000000000000000000000000815260040161026090610578565b60405180910390fd5b600180808054905061027b91906105c3565b8154811061028c5761028b6105f6565b5b905f5260205f200154600182815481106102a9576102a86105f6565b5b905f5260205f20018190555060018054806102c7576102c6610623565b5b600190038181905f5260205f20015f9055905550565b5f80805490509050808210610327576040517f08c379a000000000000000000000000000000000000000000000000000000000815260040161031e90610578565b60405180910390fd5b5f8290505b60018261033991906105c3565b811015610394575f60018261034e9190610650565b8154811061035f5761035e6105f6565b5b905f5260205f2001545f828154811061037b5761037a6105f6565b5b905f5260205f200181905550808060010191505061032c565b505f8054806103a6576103a5610623565b5b600190038181905f5260205f20015f905590555050565b5f81519050919050565b5f82825260208201905092915050565b5f819050602082019050919050565b5f819050919050565b6103f8816103e6565b82525050565b5f61040983836103ef565b60208301905092915050565b5f602082019050919050565b5f61042b826103bd565b61043581856103c7565b9350610440836103d7565b805f5b8381101561047057815161045788826103fe565b975061046283610415565b925050600181019050610443565b5085935050505092915050565b5f6020820190508181035f8301526104958184610421565b905092915050565b5f80fd5b6104aa816103e6565b81146104b4575f80fd5b50565b5f813590506104c5816104a1565b92915050565b5f602082840312156104e0576104df61049d565b5b5f6104ed848285016104b7565b91505092915050565b6104ff816103e6565b82525050565b5f6020820190506105185f8301846104f6565b92915050565b5f82825260208201905092915050565b7f696e646578206f7574206f6620626f756e6400000000000000000000000000005f82015250565b5f61056260128361051e565b915061056d8261052e565b602082019050919050565b5f6020820190508181035f83015261058f81610556565b9050919050565b7f4e487b71000000000000000000000000000000000000000000000000000000005f52601160045260245ffd5b5f6105cd826103e6565b91506105d8836103e6565b92508282039050818111156105f0576105ef610596565b5b92915050565b7f4e487b71000000000000000000000000000000000000000000000000000000005f52603260045260245ffd5b7f4e487b71000000000000000000000000000000000000000000000000000000005f52603160045260245ffd5b5f61065a826103e6565b9150610665836103e6565b925082820190508082111561067d5761067c610596565b5b9291505056fea2646970667358221220e9eebfe32c0294edb8ae3badbf3e11d98076f1a5b59e4758ea0893182abb2bbe64736f6c63430008160033",
					"opcodes": "PUSH1 0x80 PUSH1 0x40 MSTORE PUSH1 0x40 MLOAD DUP1 PUSH1 0xA0 ADD PUSH1 0x40 MSTORE DUP1 PUSH1 0x1 PUSH1 0xFF AND DUP2 MSTORE PUSH1 0x20 ADD PUSH1 0x2 PUSH1 0xFF AND DUP2 MSTORE PUSH1 0x20 ADD PUSH1 0x3 PUSH1 0xFF AND DUP2 MSTORE PUSH1 0x20 ADD PUSH1 0x4 PUSH1 0xFF AND DUP2 MSTORE PUSH1 0x20 ADD PUSH1 0x5 PUSH1 0xFF AND DUP2 MSTORE POP PUSH0 SWAP1 PUSH1 0x5 PUSH2 0x4E SWAP3 SWAP2 SWAP1 PUSH2 0xC0 JUMP JUMPDEST POP PUSH1 0x40 MLOAD DUP1 PUSH1 0xE0 ADD PUSH1 0x40 MSTORE DUP1 PUSH1 0x1 PUSH1 0xFF AND DUP2 MSTORE PUSH1 0x20 ADD PUSH1 0x2 PUSH1 0xFF AND DUP2 MSTORE PUSH1 0x20 ADD PUSH1 0x3 PUSH1 0xFF AND DUP2 MSTORE PUSH1 0x20 ADD PUSH1 0x4 PUSH1 0xFF AND DUP2 MSTORE PUSH1 0x20 ADD PUSH1 0x5 PUSH1 0xFF AND DUP2 MSTORE PUSH1 0x20 ADD PUSH1 0x6 PUSH1 0xFF AND DUP2 MSTORE PUSH1 0x20 ADD PUSH1 0x7 PUSH1 0xFF AND DUP2 MSTORE POP PUSH1 0x1 SWAP1 PUSH1 0x7 PUSH2 0xAE SWAP3 SWAP2 SWAP1 PUSH2 0x110 JUMP JUMPDEST POP CALLVALUE DUP1 ISZERO PUSH2 0xBA JUMPI PUSH0 DUP1 REVERT JUMPDEST POP PUSH2 0x17B JUMP JUMPDEST DUP3 DUP1 SLOAD DUP3 DUP3 SSTORE SWAP1 PUSH0 MSTORE PUSH1 0x20 PUSH0 KECCAK256 SWAP1 DUP2 ADD SWAP3 DUP3 ISZERO PUSH2 0xFF JUMPI SWAP2 PUSH1 0x20 MUL DUP3 ADD JUMPDEST DUP3 DUP2 GT ISZERO PUSH2 0xFE JUMPI DUP3 MLOAD DUP3 SWAP1 PUSH1 0xFF AND SWAP1 SSTORE SWAP2 PUSH1 0x20 ADD SWAP2 SWAP1 PUSH1 0x1 ADD SWAP1 PUSH2 0xDE JUMP JUMPDEST JUMPDEST POP SWAP1 POP PUSH2 0x10C SWAP2 SWAP1 PUSH2 0x160 JUMP JUMPDEST POP SWAP1 JUMP JUMPDEST DUP3 DUP1 SLOAD DUP3 DUP3 SSTORE SWAP1 PUSH0 MSTORE PUSH1 0x20 PUSH0 KECCAK256 SWAP1 DUP2 ADD SWAP3 DUP3 ISZERO PUSH2 0x14F JUMPI SWAP2 PUSH1 0x20 MUL DUP3 ADD JUMPDEST DUP3 DUP2 GT ISZERO PUSH2 0x14E JUMPI DUP3 MLOAD DUP3 SWAP1 PUSH1 0xFF AND SWAP1 SSTORE SWAP2 PUSH1 0x20 ADD SWAP2 SWAP1 PUSH1 0x1 ADD SWAP1 PUSH2 0x12E JUMP JUMPDEST JUMPDEST POP SWAP1 POP PUSH2 0x15C SWAP2 SWAP1 PUSH2 0x160 JUMP JUMPDEST POP SWAP1 JUMP JUMPDEST JUMPDEST DUP1 DUP3 GT ISZERO PUSH2 0x177 JUMPI PUSH0 DUP2 PUSH0 SWAP1 SSTORE POP PUSH1 0x1 ADD PUSH2 0x161 JUMP JUMPDEST POP SWAP1 JUMP JUMPDEST PUSH2 0x6B9 DUP1 PUSH2 0x188 PUSH0 CODECOPY PUSH0 RETURN INVALID PUSH1 0x80 PUSH1 0x40 MSTORE CALLVALUE DUP1 ISZERO PUSH2 0xF JUMPI PUSH0 DUP1 REVERT JUMPDEST POP PUSH1 0x4 CALLDATASIZE LT PUSH2 0x60 JUMPI PUSH0 CALLDATALOAD PUSH1 0xE0 SHR DUP1 PUSH4 0x54C1A75 EQ PUSH2 0x64 JUMPI DUP1 PUSH4 0x63DE57B7 EQ PUSH2 0x82 JUMPI DUP1 PUSH4 0x771ED7F9 EQ PUSH2 0xB2 JUMPI DUP1 PUSH4 0xD2178B08 EQ PUSH2 0xE2 JUMPI DUP1 PUSH4 0xD99B2367 EQ PUSH2 0x100 JUMPI DUP1 PUSH4 0xE9CEE983 EQ PUSH2 0x11C JUMPI JUMPDEST PUSH0 DUP1 REVERT JUMPDEST PUSH2 0x6C PUSH2 0x138 JUMP JUMPDEST PUSH1 0x40 MLOAD PUSH2 0x79 SWAP2 SWAP1 PUSH2 0x47D JUMP JUMPDEST PUSH1 0x40 MLOAD DUP1 SWAP2 SUB SWAP1 RETURN JUMPDEST PUSH2 0x9C PUSH1 0x4 DUP1 CALLDATASIZE SUB DUP2 ADD SWAP1 PUSH2 0x97 SWAP2 SWAP1 PUSH2 0x4CB JUMP JUMPDEST PUSH2 0x18D JUMP JUMPDEST PUSH1 0x40 MLOAD PUSH2 0xA9 SWAP2 SWAP1 PUSH2 0x505 JUMP JUMPDEST PUSH1 0x40 MLOAD DUP1 SWAP2 SUB SWAP1 RETURN JUMPDEST PUSH2 0xCC PUSH1 0x4 DUP1 CALLDATASIZE SUB DUP2 ADD SWAP1 PUSH2 0xC7 SWAP2 SWAP1 PUSH2 0x4CB JUMP JUMPDEST PUSH2 0x1AC JUMP JUMPDEST PUSH1 0x40 MLOAD PUSH2 0xD9 SWAP2 SWAP1 PUSH2 0x505 JUMP JUMPDEST PUSH1 0x40 MLOAD DUP1 SWAP2 SUB SWAP1 RETURN JUMPDEST PUSH2 0xEA PUSH2 0x1CC JUMP JUMPDEST PUSH1 0x40 MLOAD PUSH2 0xF7 SWAP2 SWAP1 PUSH2 0x47D JUMP JUMPDEST PUSH1 0x40 MLOAD DUP1 SWAP2 SUB SWAP1 RETURN JUMPDEST PUSH2 0x11A PUSH1 0x4 DUP1 CALLDATASIZE SUB DUP2 ADD SWAP1 PUSH2 0x115 SWAP2 SWAP1 PUSH2 0x4CB JUMP JUMPDEST PUSH2 0x222 JUMP JUMPDEST STOP JUMPDEST PUSH2 0x136 PUSH1 0x4 DUP1 CALLDATASIZE SUB DUP2 ADD SWAP1 PUSH2 0x131 SWAP2 SWAP1 PUSH2 0x4CB JUMP JUMPDEST PUSH2 0x2DD JUMP JUMPDEST STOP JUMPDEST PUSH1 0x60 PUSH0 DUP1 SLOAD DUP1 PUSH1 0x20 MUL PUSH1 0x20 ADD PUSH1 0x40 MLOAD SWAP1 DUP2 ADD PUSH1 0x40 MSTORE DUP1 SWAP3 SWAP2 SWAP1 DUP2 DUP2 MSTORE PUSH1 0x20 ADD DUP3 DUP1 SLOAD DUP1 ISZERO PUSH2 0x183 JUMPI PUSH1 0x20 MUL DUP3 ADD SWAP2 SWAP1 PUSH0 MSTORE PUSH1 0x20 PUSH0 KECCAK256 SWAP1 JUMPDEST DUP2 SLOAD DUP2 MSTORE PUSH1 0x20 ADD SWAP1 PUSH1 0x1 ADD SWAP1 DUP1 DUP4 GT PUSH2 0x16F JUMPI JUMPDEST POP POP POP POP POP SWAP1 POP SWAP1 JUMP JUMPDEST PUSH0 DUP2 DUP2 SLOAD DUP2 LT PUSH2 0x19B JUMPI PUSH0 DUP1 REVERT JUMPDEST SWAP1 PUSH0 MSTORE PUSH1 0x20 PUSH0 KECCAK256 ADD PUSH0 SWAP2 POP SWAP1 POP SLOAD DUP2 JUMP JUMPDEST PUSH1 0x1 DUP2 DUP2 SLOAD DUP2 LT PUSH2 0x1BB JUMPI PUSH0 DUP1 REVERT JUMPDEST SWAP1 PUSH0 MSTORE PUSH1 0x20 PUSH0 KECCAK256 ADD PUSH0 SWAP2 POP SWAP1 POP SLOAD DUP2 JUMP JUMPDEST PUSH1 0x60 PUSH1 0x1 DUP1 SLOAD DUP1 PUSH1 0x20 MUL PUSH1 0x20 ADD PUSH1 0x40 MLOAD SWAP1 DUP2 ADD PUSH1 0x40 MSTORE DUP1 SWAP3 SWAP2 SWAP1 DUP2 DUP2 MSTORE PUSH1 0x20 ADD DUP3 DUP1 SLOAD DUP1 ISZERO PUSH2 0x218 JUMPI PUSH1 0x20 MUL DUP3 ADD SWAP2 SWAP1 PUSH0 MSTORE PUSH1 0x20 PUSH0 KECCAK256 SWAP1 JUMPDEST DUP2 SLOAD DUP2 MSTORE PUSH1 0x20 ADD SWAP1 PUSH1 0x1 ADD SWAP1 DUP1 DUP4 GT PUSH2 0x204 JUMPI JUMPDEST POP POP POP POP POP SWAP1 POP SWAP1 JUMP JUMPDEST PUSH1 0x1 DUP1 SLOAD SWAP1 POP DUP2 LT PUSH2 0x269 JUMPI PUSH1 0x40 MLOAD PUSH32 0x8C379A000000000000000000000000000000000000000000000000000000000 DUP2 MSTORE PUSH1 0x4 ADD PUSH2 0x260 SWAP1 PUSH2 0x578 JUMP JUMPDEST PUSH1 0x40 MLOAD DUP1 SWAP2 SUB SWAP1 REVERT JUMPDEST PUSH1 0x1 DUP1 DUP1 DUP1 SLOAD SWAP1 POP PUSH2 0x27B SWAP2 SWAP1 PUSH2 0x5C3 JUMP JUMPDEST DUP2 SLOAD DUP2 LT PUSH2 0x28C JUMPI PUSH2 0x28B PUSH2 0x5F6 JUMP JUMPDEST JUMPDEST SWAP1 PUSH0 MSTORE PUSH1 0x20 PUSH0 KECCAK256 ADD SLOAD PUSH1 0x1 DUP3 DUP2 SLOAD DUP2 LT PUSH2 0x2A9 JUMPI PUSH2 0x2A8 PUSH2 0x5F6 JUMP JUMPDEST JUMPDEST SWAP1 PUSH0 MSTORE PUSH1 0x20 PUSH0 KECCAK256 ADD DUP2 SWAP1 SSTORE POP PUSH1 0x1 DUP1 SLOAD DUP1 PUSH2 0x2C7 JUMPI PUSH2 0x2C6 PUSH2 0x623 JUMP JUMPDEST JUMPDEST PUSH1 0x1 SWAP1 SUB DUP2 DUP2 SWAP1 PUSH0 MSTORE PUSH1 0x20 PUSH0 KECCAK256 ADD PUSH0 SWAP1 SSTORE SWAP1 SSTORE POP JUMP JUMPDEST PUSH0 DUP1 DUP1 SLOAD SWAP1 POP SWAP1 POP DUP1 DUP3 LT PUSH2 0x327 JUMPI PUSH1 0x40 MLOAD PUSH32 0x8C379A000000000000000000000000000000000000000000000000000000000 DUP2 MSTORE PUSH1 0x4 ADD PUSH2 0x31E SWAP1 PUSH2 0x578 JUMP JUMPDEST PUSH1 0x40 MLOAD DUP1 SWAP2 SUB SWAP1 REVERT JUMPDEST PUSH0 DUP3 SWAP1 POP JUMPDEST PUSH1 0x1 DUP3 PUSH2 0x339 SWAP2 SWAP1 PUSH2 0x5C3 JUMP JUMPDEST DUP2 LT ISZERO PUSH2 0x394 JUMPI PUSH0 PUSH1 0x1 DUP3 PUSH2 0x34E SWAP2 SWAP1 PUSH2 0x650 JUMP JUMPDEST DUP2 SLOAD DUP2 LT PUSH2 0x35F JUMPI PUSH2 0x35E PUSH2 0x5F6 JUMP JUMPDEST JUMPDEST SWAP1 PUSH0 MSTORE PUSH1 0x20 PUSH0 KECCAK256 ADD SLOAD PUSH0 DUP3 DUP2 SLOAD DUP2 LT PUSH2 0x37B JUMPI PUSH2 0x37A PUSH2 0x5F6 JUMP JUMPDEST JUMPDEST SWAP1 PUSH0 MSTORE PUSH1 0x20 PUSH0 KECCAK256 ADD DUP2 SWAP1 SSTORE POP DUP1 DUP1 PUSH1 0x1 ADD SWAP2 POP POP PUSH2 0x32C JUMP JUMPDEST POP PUSH0 DUP1 SLOAD DUP1 PUSH2 0x3A6 JUMPI PUSH2 0x3A5 PUSH2 0x623 JUMP JUMPDEST JUMPDEST PUSH1 0x1 SWAP1 SUB DUP2 DUP2 SWAP1 PUSH0 MSTORE PUSH1 0x20 PUSH0 KECCAK256 ADD PUSH0 SWAP1 SSTORE SWAP1 SSTORE POP POP JUMP JUMPDEST PUSH0 DUP2 MLOAD SWAP1 POP SWAP2 SWAP1 POP JUMP JUMPDEST PUSH0 DUP3 DUP3 MSTORE PUSH1 0x20 DUP3 ADD SWAP1 POP SWAP3 SWAP2 POP POP JUMP JUMPDEST PUSH0 DUP2 SWAP1 POP PUSH1 0x20 DUP3 ADD SWAP1 POP SWAP2 SWAP1 POP JUMP JUMPDEST PUSH0 DUP2 SWAP1 POP SWAP2 SWAP1 POP JUMP JUMPDEST PUSH2 0x3F8 DUP2 PUSH2 0x3E6 JUMP JUMPDEST DUP3 MSTORE POP POP JUMP JUMPDEST PUSH0 PUSH2 0x409 DUP4 DUP4 PUSH2 0x3EF JUMP JUMPDEST PUSH1 0x20 DUP4 ADD SWAP1 POP SWAP3 SWAP2 POP POP JUMP JUMPDEST PUSH0 PUSH1 0x20 DUP3 ADD SWAP1 POP SWAP2 SWAP1 POP JUMP JUMPDEST PUSH0 PUSH2 0x42B DUP3 PUSH2 0x3BD JUMP JUMPDEST PUSH2 0x435 DUP2 DUP6 PUSH2 0x3C7 JUMP JUMPDEST SWAP4 POP PUSH2 0x440 DUP4 PUSH2 0x3D7 JUMP JUMPDEST DUP1 PUSH0 JUMPDEST DUP4 DUP2 LT ISZERO PUSH2 0x470 JUMPI DUP2 MLOAD PUSH2 0x457 DUP9 DUP3 PUSH2 0x3FE JUMP JUMPDEST SWAP8 POP PUSH2 0x462 DUP4 PUSH2 0x415 JUMP JUMPDEST SWAP3 POP POP PUSH1 0x1 DUP2 ADD SWAP1 POP PUSH2 0x443 JUMP JUMPDEST POP DUP6 SWAP4 POP POP POP POP SWAP3 SWAP2 POP POP JUMP JUMPDEST PUSH0 PUSH1 0x20 DUP3 ADD SWAP1 POP DUP2 DUP2 SUB PUSH0 DUP4 ADD MSTORE PUSH2 0x495 DUP2 DUP5 PUSH2 0x421 JUMP JUMPDEST SWAP1 POP SWAP3 SWAP2 POP POP JUMP JUMPDEST PUSH0 DUP1 REVERT JUMPDEST PUSH2 0x4AA DUP2 PUSH2 0x3E6 JUMP JUMPDEST DUP2 EQ PUSH2 0x4B4 JUMPI PUSH0 DUP1 REVERT JUMPDEST POP JUMP JUMPDEST PUSH0 DUP2 CALLDATALOAD SWAP1 POP PUSH2 0x4C5 DUP2 PUSH2 0x4A1 JUMP JUMPDEST SWAP3 SWAP2 POP POP JUMP JUMPDEST PUSH0 PUSH1 0x20 DUP3 DUP5 SUB SLT ISZERO PUSH2 0x4E0 JUMPI PUSH2 0x4DF PUSH2 0x49D JUMP JUMPDEST JUMPDEST PUSH0 PUSH2 0x4ED DUP5 DUP3 DUP6 ADD PUSH2 0x4B7 JUMP JUMPDEST SWAP2 POP POP SWAP3 SWAP2 POP POP JUMP JUMPDEST PUSH2 0x4FF DUP2 PUSH2 0x3E6 JUMP JUMPDEST DUP3 MSTORE POP POP JUMP JUMPDEST PUSH0 PUSH1 0x20 DUP3 ADD SWAP1 POP PUSH2 0x518 PUSH0 DUP4 ADD DUP5 PUSH2 0x4F6 JUMP JUMPDEST SWAP3 SWAP2 POP POP JUMP JUMPDEST PUSH0 DUP3 DUP3 MSTORE PUSH1 0x20 DUP3 ADD SWAP1 POP SWAP3 SWAP2 POP POP JUMP JUMPDEST PUSH32 0x696E646578206F7574206F6620626F756E640000000000000000000000000000 PUSH0 DUP3 ADD MSTORE POP JUMP JUMPDEST PUSH0 PUSH2 0x562 PUSH1 0x12 DUP4 PUSH2 0x51E JUMP JUMPDEST SWAP2 POP PUSH2 0x56D DUP3 PUSH2 0x52E JUMP JUMPDEST PUSH1 0x20 DUP3 ADD SWAP1 POP SWAP2 SWAP1 POP JUMP JUMPDEST PUSH0 PUSH1 0x20 DUP3 ADD SWAP1 POP DUP2 DUP2 SUB PUSH0 DUP4 ADD MSTORE PUSH2 0x58F DUP2 PUSH2 0x556 JUMP JUMPDEST SWAP1 POP SWAP2 SWAP1 POP JUMP JUMPDEST PUSH32 0x4E487B7100000000000000000000000000000000000000000000000000000000 PUSH0 MSTORE PUSH1 0x11 PUSH1 0x4 MSTORE PUSH1 0x24 PUSH0 REVERT JUMPDEST PUSH0 PUSH2 0x5CD DUP3 PUSH2 0x3E6 JUMP JUMPDEST SWAP2 POP PUSH2 0x5D8 DUP4 PUSH2 0x3E6 JUMP JUMPDEST SWAP3 POP DUP3 DUP3 SUB SWAP1 POP DUP2 DUP2 GT ISZERO PUSH2 0x5F0 JUMPI PUSH2 0x5EF PUSH2 0x596 JUMP JUMPDEST JUMPDEST SWAP3 SWAP2 POP POP JUMP JUMPDEST PUSH32 0x4E487B7100000000000000000000000000000000000000000000000000000000 PUSH0 MSTORE PUSH1 0x32 PUSH1 0x4 MSTORE PUSH1 0x24 PUSH0 REVERT JUMPDEST PUSH32 0x4E487B7100000000000000000000000000000000000000000000000000000000 PUSH0 MSTORE PUSH1 0x31 PUSH1 0x4 MSTORE PUSH1 0x24 PUSH0 REVERT JUMPDEST PUSH0 PUSH2 0x65A DUP3 PUSH2 0x3E6 JUMP JUMPDEST SWAP2 POP PUSH2 0x665 DUP4 PUSH2 0x3E6 JUMP JUMPDEST SWAP3 POP DUP3 DUP3 ADD SWAP1 POP DUP1 DUP3 GT ISZERO PUSH2 0x67D JUMPI PUSH2 0x67C PUSH2 0x596 JUMP JUMPDEST JUMPDEST SWAP3 SWAP2 POP POP JUMP INVALID LOG2 PUSH5 0x6970667358 0x22 SLT KECCAK256 0xE9 0xEE 0xBF 0xE3 0x2C MUL SWAP5 0xED 0xB8 0xAE EXTCODESIZE 0xAD 0xBF RETURNDATACOPY GT 0xD9 DUP1 PUSH23 0xF1A5B59E4758EA0893182ABB2BBE64736F6C6343000816 STOP CALLER "
				},
				"gasEstimates": {
					"creation": {
						"codeDepositCost": "344200",
						"executionCost": "infinite",
						"totalCost": "infinite"
					},
					"external": {
						"darr(uint256)": "infinite",
						"darr2(uint256)": "infinite",
						"get1()": "infinite",
						"get2()": "infinite",
						"removeItem1(uint256)": "infinite",
						"removeItem2(uint256)": "infinite"
					}
				},
				"methodIdentifiers": {
					"darr(uint256)": "63de57b7",
					"darr2(uint256)": "771ed7f9",
					"get1()": "054c1a75",
					"get2()": "d2178b08",
					"removeItem1(uint256)": "e9cee983",
					"removeItem2(uint256)": "d99b2367"
				}
			},
			"storageLayout": {
				"storage": [
					{
						"astId": 10,
						"contract": "contract/12.ArrayRemoveByShifting.sol:ArrayRemove",
						"label": "darr",
						"offset": 0,
						"slot": "0",
						"type": "t_array(t_uint256)dyn_storage"
					},
					{
						"astId": 21,
						"contract": "contract/12.ArrayRemoveByShifting.sol:ArrayRemove",
						"label": "darr2",
						"offset": 0,
						"slot": "1",
						"type": "t_array(t_uint256)dyn_storage"
					}
				],
				"types": {
					"t_array(t_uint256)dyn_storage": {
						"base": "t_uint256",
						"encoding": "dynamic_array",
						"label": "uint256[]",
						"numberOfBytes": "32"
					},
					"t_uint256": {
						"encoding": "inplace",
						"label": "uint256",
						"numberOfBytes": "32"
					}
				}
			},
			"userdoc": {
				"kind": "user",
				"methods": {},
				"version": 1
			}
		}
	}
}