{
	"data": {
		"bytecode": {
			"linkReferences": {},
			"object": "60a060405234801561000f575f80fd5b5060405161029a38038061029a83398181016040528101906100319190610076565b8060808181525050506100a1565b5f80fd5b5f819050919050565b61005581610043565b811461005f575f80fd5b50565b5f815190506100708161004c565b92915050565b5f6020828403121561008b5761008a61003f565b5b5f61009884828501610062565b91505092915050565b6080516101e26100b85f395f607601526101e25ff3fe608060405234801561000f575f80fd5b5060043610610034575f3560e01c80634e70b1dc146100385780636cc014de14610056575b5f80fd5b610040610074565b60405161004d91906100e9565b60405180910390f35b61005e610098565b60405161006b919061018c565b60405180910390f35b7f000000000000000000000000000000000000000000000000000000000000000081565b6040518060400160405280600881526020017f636f6e7374616e7400000000000000000000000000000000000000000000000081525081565b5f819050919050565b6100e3816100d1565b82525050565b5f6020820190506100fc5f8301846100da565b92915050565b5f81519050919050565b5f82825260208201905092915050565b5f5b8381101561013957808201518184015260208101905061011e565b5f8484015250505050565b5f601f19601f8301169050919050565b5f61015e82610102565b610168818561010c565b935061017881856020860161011c565b61018181610144565b840191505092915050565b5f6020820190508181035f8301526101a48184610154565b90509291505056fea2646970667358221220c498fae030e9df57155845729c18eb10abc8caee6b78b8d2c1d85c652e031d3564736f6c63430008160033",
			"opcodes": "PUSH1 0xA0 PUSH1 0x40 MSTORE CALLVALUE DUP1 ISZERO PUSH2 0xF JUMPI PUSH0 DUP1 REVERT JUMPDEST POP PUSH1 0x40 MLOAD PUSH2 0x29A CODESIZE SUB DUP1 PUSH2 0x29A DUP4 CODECOPY DUP2 DUP2 ADD PUSH1 0x40 MSTORE DUP2 ADD SWAP1 PUSH2 0x31 SWAP2 SWAP1 PUSH2 0x76 JUMP JUMPDEST DUP1 PUSH1 0x80 DUP2 DUP2 MSTORE POP POP POP PUSH2 0xA1 JUMP JUMPDEST PUSH0 DUP1 REVERT JUMPDEST PUSH0 DUP2 SWAP1 POP SWAP2 SWAP1 POP JUMP JUMPDEST PUSH2 0x55 DUP2 PUSH2 0x43 JUMP JUMPDEST DUP2 EQ PUSH2 0x5F JUMPI PUSH0 DUP1 REVERT JUMPDEST POP JUMP JUMPDEST PUSH0 DUP2 MLOAD SWAP1 POP PUSH2 0x70 DUP2 PUSH2 0x4C JUMP JUMPDEST SWAP3 SWAP2 POP POP JUMP JUMPDEST PUSH0 PUSH1 0x20 DUP3 DUP5 SUB SLT ISZERO PUSH2 0x8B JUMPI PUSH2 0x8A PUSH2 0x3F JUMP JUMPDEST JUMPDEST PUSH0 PUSH2 0x98 DUP5 DUP3 DUP6 ADD PUSH2 0x62 JUMP JUMPDEST SWAP2 POP POP SWAP3 SWAP2 POP POP JUMP JUMPDEST PUSH1 0x80 MLOAD PUSH2 0x1E2 PUSH2 0xB8 PUSH0 CODECOPY PUSH0 PUSH1 0x76 ADD MSTORE PUSH2 0x1E2 PUSH0 RETURN INVALID PUSH1 0x80 PUSH1 0x40 MSTORE CALLVALUE DUP1 ISZERO PUSH2 0xF JUMPI PUSH0 DUP1 REVERT JUMPDEST POP PUSH1 0x4 CALLDATASIZE LT PUSH2 0x34 JUMPI PUSH0 CALLDATALOAD PUSH1 0xE0 SHR DUP1 PUSH4 0x4E70B1DC EQ PUSH2 0x38 JUMPI DUP1 PUSH4 0x6CC014DE EQ PUSH2 0x56 JUMPI JUMPDEST PUSH0 DUP1 REVERT JUMPDEST PUSH2 0x40 PUSH2 0x74 JUMP JUMPDEST PUSH1 0x40 MLOAD PUSH2 0x4D SWAP2 SWAP1 PUSH2 0xE9 JUMP JUMPDEST PUSH1 0x40 MLOAD DUP1 SWAP2 SUB SWAP1 RETURN JUMPDEST PUSH2 0x5E PUSH2 0x98 JUMP JUMPDEST PUSH1 0x40 MLOAD PUSH2 0x6B SWAP2 SWAP1 PUSH2 0x18C JUMP JUMPDEST PUSH1 0x40 MLOAD DUP1 SWAP2 SUB SWAP1 RETURN JUMPDEST PUSH32 0x0 DUP2 JUMP JUMPDEST PUSH1 0x40 MLOAD DUP1 PUSH1 0x40 ADD PUSH1 0x40 MSTORE DUP1 PUSH1 0x8 DUP2 MSTORE PUSH1 0x20 ADD PUSH32 0x636F6E7374616E74000000000000000000000000000000000000000000000000 DUP2 MSTORE POP DUP2 JUMP JUMPDEST PUSH0 DUP2 SWAP1 POP SWAP2 SWAP1 POP JUMP JUMPDEST PUSH2 0xE3 DUP2 PUSH2 0xD1 JUMP JUMPDEST DUP3 MSTORE POP POP JUMP JUMPDEST PUSH0 PUSH1 0x20 DUP3 ADD SWAP1 POP PUSH2 0xFC PUSH0 DUP4 ADD DUP5 PUSH2 0xDA JUMP JUMPDEST SWAP3 SWAP2 POP POP JUMP JUMPDEST PUSH0 DUP2 MLOAD SWAP1 POP SWAP2 SWAP1 POP JUMP JUMPDEST PUSH0 DUP3 DUP3 MSTORE PUSH1 0x20 DUP3 ADD SWAP1 POP SWAP3 SWAP2 POP POP JUMP JUMPDEST PUSH0 JUMPDEST DUP4 DUP2 LT ISZERO PUSH2 0x139 JUMPI DUP1 DUP3 ADD MLOAD DUP2 DUP5 ADD MSTORE PUSH1 0x20 DUP2 ADD SWAP1 POP PUSH2 0x11E JUMP JUMPDEST PUSH0 DUP5 DUP5 ADD MSTORE POP POP POP POP JUMP JUMPDEST PUSH0 PUSH1 0x1F NOT PUSH1 0x1F DUP4 ADD AND SWAP1 POP SWAP2 SWAP1 POP JUMP JUMPDEST PUSH0 PUSH2 0x15E DUP3 PUSH2 0x102 JUMP JUMPDEST PUSH2 0x168 DUP2 DUP6 PUSH2 0x10C JUMP JUMPDEST SWAP4 POP PUSH2 0x178 DUP2 DUP6 PUSH1 0x20 DUP7 ADD PUSH2 0x11C JUMP JUMPDEST PUSH2 0x181 DUP2 PUSH2 0x144 JUMP JUMPDEST DUP5 ADD SWAP2 POP POP SWAP3 SWAP2 POP POP JUMP JUMPDEST PUSH0 PUSH1 0x20 DUP3 ADD SWAP1 POP DUP2 DUP2 SUB PUSH0 DUP4 ADD MSTORE PUSH2 0x1A4 DUP2 DUP5 PUSH2 0x154 JUMP JUMPDEST SWAP1 POP SWAP3 SWAP2 POP POP JUMP INVALID LOG2 PUSH5 0x6970667358 0x22 SLT KECCAK256 0xC4 SWAP9 STATICCALL 0xE0 ADDRESS 0xE9 0xDF JUMPI ISZERO PC GASLIMIT PUSH19 0x9C18EB10ABC8CAEE6B78B8D2C1D85C652E031D CALLDATALOAD PUSH5 0x736F6C6343 STOP ADDMOD AND STOP CALLER "
		},
		"gasEstimates": {
			"creation": {
				"codeDepositCost": "96400",
				"executionCost": "infinite",
				"totalCost": "infinite"
			},
			"external": {
				"num()": "infinite",
				"s1()": "infinite"
			}
		},
		"methodIdentifiers": {
			"num()": "4e70b1dc",
			"s1()": "6cc014de"
		}
	},
	"abi": [
		{
			"inputs": [
				{
					"internalType": "uint256",
					"name": "_num",
					"type": "uint256"
				}
			],
			"stateMutability": "nonpayable",
			"type": "constructor"
		},
		{
			"inputs": [],
			"name": "num",
			"outputs": [
				{
					"internalType": "uint256",
					"name": "",
					"type": "uint256"
				}
			],
			"stateMutability": "view",
			"type": "function"
		},
		{
			"inputs": [],
			"name": "s1",
			"outputs": [
				{
					"internalType": "string",
					"name": "",
					"type": "string"
				}
			],
			"stateMutability": "view",
			"type": "function"
		}
	]
}