{
	"data": {
		"bytecode": {
			"linkReferences": {},
			"object": "608060405234801561000f575f80fd5b506102f48061001d5f395ff3fe608060405234801561000f575f80fd5b5060043610610029575f3560e01c8063057af1c41461002d575b5f80fd5b6100476004803603810190610042919061014f565b610049565b005b60015f604051610058906101ee565b90815260200160405180910390205f6101000a81548160ff02191690831515021790555060015f60405161008b9061024c565b90815260200160405180910390205f6101000a81548160ff02191690831515021790555060015f6040516100be906102aa565b90815260200160405180910390205f6101000a81548160ff0219169083151502179055505050565b5f80fd5b5f80fd5b5f80fd5b5f80fd5b5f80fd5b5f8083601f84011261010f5761010e6100ee565b5b8235905067ffffffffffffffff81111561012c5761012b6100f2565b5b602083019150836001820283011115610148576101476100f6565b5b9250929050565b5f8060208385031215610165576101646100e6565b5b5f83013567ffffffffffffffff811115610182576101816100ea565b5b61018e858286016100fa565b92509250509250929050565b5f81905092915050565b7f7a730000000000000000000000000000000000000000000000000000000000005f82015250565b5f6101d860028361019a565b91506101e3826101a4565b600282019050919050565b5f6101f8826101cc565b9150819050919050565b7f6c730000000000000000000000000000000000000000000000000000000000005f82015250565b5f61023660028361019a565b915061024182610202565b600282019050919050565b5f6102568261022a565b9150819050919050565b7f77770000000000000000000000000000000000000000000000000000000000005f82015250565b5f61029460028361019a565b915061029f82610260565b600282019050919050565b5f6102b482610288565b915081905091905056fea264697066735822122018b873c65af412e0b4394ae70e3330e52e72e747f69b1a454e4b62c1149f50ed64736f6c63430008160033",
			"opcodes": "PUSH1 0x80 PUSH1 0x40 MSTORE CALLVALUE DUP1 ISZERO PUSH2 0xF JUMPI PUSH0 DUP1 REVERT JUMPDEST POP PUSH2 0x2F4 DUP1 PUSH2 0x1D PUSH0 CODECOPY PUSH0 RETURN INVALID PUSH1 0x80 PUSH1 0x40 MSTORE CALLVALUE DUP1 ISZERO PUSH2 0xF JUMPI PUSH0 DUP1 REVERT JUMPDEST POP PUSH1 0x4 CALLDATASIZE LT PUSH2 0x29 JUMPI PUSH0 CALLDATALOAD PUSH1 0xE0 SHR DUP1 PUSH4 0x57AF1C4 EQ PUSH2 0x2D JUMPI JUMPDEST PUSH0 DUP1 REVERT JUMPDEST PUSH2 0x47 PUSH1 0x4 DUP1 CALLDATASIZE SUB DUP2 ADD SWAP1 PUSH2 0x42 SWAP2 SWAP1 PUSH2 0x14F JUMP JUMPDEST PUSH2 0x49 JUMP JUMPDEST STOP JUMPDEST PUSH1 0x1 PUSH0 PUSH1 0x40 MLOAD PUSH2 0x58 SWAP1 PUSH2 0x1EE JUMP JUMPDEST SWAP1 DUP2 MSTORE PUSH1 0x20 ADD PUSH1 0x40 MLOAD DUP1 SWAP2 SUB SWAP1 KECCAK256 PUSH0 PUSH2 0x100 EXP DUP2 SLOAD DUP2 PUSH1 0xFF MUL NOT AND SWAP1 DUP4 ISZERO ISZERO MUL OR SWAP1 SSTORE POP PUSH1 0x1 PUSH0 PUSH1 0x40 MLOAD PUSH2 0x8B SWAP1 PUSH2 0x24C JUMP JUMPDEST SWAP1 DUP2 MSTORE PUSH1 0x20 ADD PUSH1 0x40 MLOAD DUP1 SWAP2 SUB SWAP1 KECCAK256 PUSH0 PUSH2 0x100 EXP DUP2 SLOAD DUP2 PUSH1 0xFF MUL NOT AND SWAP1 DUP4 ISZERO ISZERO MUL OR SWAP1 SSTORE POP PUSH1 0x1 PUSH0 PUSH1 0x40 MLOAD PUSH2 0xBE SWAP1 PUSH2 0x2AA JUMP JUMPDEST SWAP1 DUP2 MSTORE PUSH1 0x20 ADD PUSH1 0x40 MLOAD DUP1 SWAP2 SUB SWAP1 KECCAK256 PUSH0 PUSH2 0x100 EXP DUP2 SLOAD DUP2 PUSH1 0xFF MUL NOT AND SWAP1 DUP4 ISZERO ISZERO MUL OR SWAP1 SSTORE POP POP POP JUMP JUMPDEST PUSH0 DUP1 REVERT JUMPDEST PUSH0 DUP1 REVERT JUMPDEST PUSH0 DUP1 REVERT JUMPDEST PUSH0 DUP1 REVERT JUMPDEST PUSH0 DUP1 REVERT JUMPDEST PUSH0 DUP1 DUP4 PUSH1 0x1F DUP5 ADD SLT PUSH2 0x10F JUMPI PUSH2 0x10E PUSH2 0xEE JUMP JUMPDEST JUMPDEST DUP3 CALLDATALOAD SWAP1 POP PUSH8 0xFFFFFFFFFFFFFFFF DUP2 GT ISZERO PUSH2 0x12C JUMPI PUSH2 0x12B PUSH2 0xF2 JUMP JUMPDEST JUMPDEST PUSH1 0x20 DUP4 ADD SWAP2 POP DUP4 PUSH1 0x1 DUP3 MUL DUP4 ADD GT ISZERO PUSH2 0x148 JUMPI PUSH2 0x147 PUSH2 0xF6 JUMP JUMPDEST JUMPDEST SWAP3 POP SWAP3 SWAP1 POP JUMP JUMPDEST PUSH0 DUP1 PUSH1 0x20 DUP4 DUP6 SUB SLT ISZERO PUSH2 0x165 JUMPI PUSH2 0x164 PUSH2 0xE6 JUMP JUMPDEST JUMPDEST PUSH0 DUP4 ADD CALLDATALOAD PUSH8 0xFFFFFFFFFFFFFFFF DUP2 GT ISZERO PUSH2 0x182 JUMPI PUSH2 0x181 PUSH2 0xEA JUMP JUMPDEST JUMPDEST PUSH2 0x18E DUP6 DUP3 DUP7 ADD PUSH2 0xFA JUMP JUMPDEST SWAP3 POP SWAP3 POP POP SWAP3 POP SWAP3 SWAP1 POP JUMP JUMPDEST PUSH0 DUP2 SWAP1 POP SWAP3 SWAP2 POP POP JUMP JUMPDEST PUSH32 0x7A73000000000000000000000000000000000000000000000000000000000000 PUSH0 DUP3 ADD MSTORE POP JUMP JUMPDEST PUSH0 PUSH2 0x1D8 PUSH1 0x2 DUP4 PUSH2 0x19A JUMP JUMPDEST SWAP2 POP PUSH2 0x1E3 DUP3 PUSH2 0x1A4 JUMP JUMPDEST PUSH1 0x2 DUP3 ADD SWAP1 POP SWAP2 SWAP1 POP JUMP JUMPDEST PUSH0 PUSH2 0x1F8 DUP3 PUSH2 0x1CC JUMP JUMPDEST SWAP2 POP DUP2 SWAP1 POP SWAP2 SWAP1 POP JUMP JUMPDEST PUSH32 0x6C73000000000000000000000000000000000000000000000000000000000000 PUSH0 DUP3 ADD MSTORE POP JUMP JUMPDEST PUSH0 PUSH2 0x236 PUSH1 0x2 DUP4 PUSH2 0x19A JUMP JUMPDEST SWAP2 POP PUSH2 0x241 DUP3 PUSH2 0x202 JUMP JUMPDEST PUSH1 0x2 DUP3 ADD SWAP1 POP SWAP2 SWAP1 POP JUMP JUMPDEST PUSH0 PUSH2 0x256 DUP3 PUSH2 0x22A JUMP JUMPDEST SWAP2 POP DUP2 SWAP1 POP SWAP2 SWAP1 POP JUMP JUMPDEST PUSH32 0x7777000000000000000000000000000000000000000000000000000000000000 PUSH0 DUP3 ADD MSTORE POP JUMP JUMPDEST PUSH0 PUSH2 0x294 PUSH1 0x2 DUP4 PUSH2 0x19A JUMP JUMPDEST SWAP2 POP PUSH2 0x29F DUP3 PUSH2 0x260 JUMP JUMPDEST PUSH1 0x2 DUP3 ADD SWAP1 POP SWAP2 SWAP1 POP JUMP JUMPDEST PUSH0 PUSH2 0x2B4 DUP3 PUSH2 0x288 JUMP JUMPDEST SWAP2 POP DUP2 SWAP1 POP SWAP2 SWAP1 POP JUMP INVALID LOG2 PUSH5 0x6970667358 0x22 SLT KECCAK256 XOR 0xB8 PUSH20 0xC65AF412E0B4394AE70E3330E52E72E747F69B1A GASLIMIT 0x4E 0x4B PUSH3 0xC1149F POP 0xED PUSH5 0x736F6C6343 STOP ADDMOD AND STOP CALLER "
		},
		"gasEstimates": {
			"creation": {
				"codeDepositCost": "151200",
				"executionCost": "194",
				"totalCost": "151394"
			},
			"external": {
				"exist(string)": "infinite"
			}
		},
		"methodIdentifiers": {
			"exist(string)": "057af1c4"
		}
	},
	"abi": [
		{
			"inputs": [
				{
					"internalType": "string",
					"name": "_name",
					"type": "string"
				}
			],
			"name": "exist",
			"outputs": [],
			"stateMutability": "nonpayable",
			"type": "function"
		}
	]
}